:020000040800F2
:10000000306E0020590200086102000863020008F7
:10001000650200086702000869020008000000008D
:100020000000000000000000000000009D0100082A
:100030006D02000800000000F1010008274E0008D2
:1000400073020008730200087302000873020008BC
:1000500073020008730200087302000873020008AC
:10006000730200087302000873020008730200089C
:10007000730200087302000873020008730200088C
:10008000730200087302000873020008730200087C
:10009000730200087302000873020008730200086C
:1000A000730200087302000873020008730200085C
:1000B000730200087302000873020008730200084C
:1000C000730200087302000873020008730200083C
:1000D000730200087302000873020008730200082C
:1000E000730200087302000873020008730200081C
:1000F000730200087302000873020008730200080C
:1001000073020008730200087302000873020008FB
:1001100073020008730200087302000873020008EB
:1001200073020008730200087302000873020008DB
:1001300073020008730200087302000873020008CB
:1001400073020008730200087302000873020008BB
:1001500073020008730200087302000873020008AB
:10016000730200087302000873020008730200089B
:100170007302000873020008730200080000000008
:100180007302000873020008DFF80CD000F012F9C7
:100190000048004759710008306E00202B4B196849
:1001A0000868B0E8F04F80F30988BFF36F8F4FF015
:1001B000000080F3118870470000000006480068C6
:1001C000006880F3088862B661B6BFF34F8FBFF353
:1001D0006F8F00DF00BF00BF08ED00E0DFF80C000C
:1001E000016841F470010160704700BF88ED00E0D4
:1001F000EFF30980BFF36F8F144B1A681EF0100FD6
:1002000008BF20ED108A20E9F04F106008B44FF0CD
:10021000500080F31188BFF34F8FBFF36F8F08F04A
:1002200039FA4FF0000080F3118808BC196808689B
:10023000B0E8F04F1EF0100F08BFB0EC108A80F34A
:100240000988BFF36F8F704700BF00BF48000020D0
:10025000EFF30580704700000648804706480047D6
:10026000FEE7FEE7FEE7FEE7FEE7FEE7FEE7FEE766
:10027000FEE7FEE7B94E00088901000840EA0103E5
:100280009B0703D009E008C9121F08C0042AFAD24C
:1002900003E011F8013B00F8013B521EF9D2704710
:1002A000D2B201E000F8012B491EFBD270470022B8
:1002B000F6E710B513460A4604461946FFF7F0FF65
:1002C000204610BD10B5044604E00B7800F8013B51
:1002D00003B1491C521EF8D2204610BD421C10F832
:1002E000011B0029FBD1801A704710B5002200E0E5
:1002F000521C835C8C5CA34201D1002BF8D1D8B294
:10030000E1B2401A10BD30B504460020034600E0BB
:100310005B1C934203D2E05CCD5C401BF8D030BD47
:10032000034611F8012B00F8012B002AF9D11846D9
:10033000704730B505460020034600E05B1C934241
:1003400005D2EC5CC85C201A01D1002CF6D130BD7E
:100350002DE9F05F0546002092469B4688460646FA
:10036000814640241BE0284641464746224600F08D
:1003700042F853465A46C01A914110D311461846C6
:10038000224600F029F82D1A67EB01084F46224655
:100390000120002100F020F817EB00094E41201E3B
:1003A000A4F10104DFDC484631462A464346BDE855
:1003B000F09F0000064C074D06E0E06840F00103A6
:1003C00094E8070098471034AC42F6D3FFF7E0FEFC
:1003D00060A9000880A90008202A04DB203A00FA5E
:1003E00002F1002070479140C2F1200320FA03F38C
:1003F000194390407047202A04DB203A21FA02F08A
:100400000021704721FA02F3D040C2F1200291404E
:100410000843194670470B794A88002B18BF70476C
:100420004B78406B0978D0F8800005F03FBD406BF9
:100430000978D0F8800005F053BD00F003BE70B518
:10044000446B13680546C4F848319288A4F84C21DF
:10045000A4F854110068002107F09CFC012000263C
:10046000C4E95606286807F01DFD84F89060D4F8AA
:10047000800005F045FD2846BDE8704000F03FBE15
:1004800010B5446B8EB0606F01287DD1D4F8B010E8
:100490000020002994F8D41041DD102941D02F21EB
:1004A000CDE904100322CDE902023C210690CDE9FA
:1004B00000014FF6FF7304220021E06F08F0CEFE2A
:1004C00000281CBF0EB010BDB4F884200DF1140C30
:1004D00004F5A77104F1B400D4F8D8308CE80F000B
:1004E00094F8DF000DF1040C94F8E12094F8E0108A
:1004F000D4F8B0308CE80F0094F8DE00009094F847
:10050000DD3094F8DC2094F8D410E06F08F0AEFAF7
:10051000002804BF0121C4F85C110EB010BD1029E1
:100520004DD10090019002900390049005900690A8
:100530000790B434089009900A900B900C900FCC5F
:100540000DF1080C8CE80F000FCC0DF1180C8CE8A5
:100550000F0014F8240C8DF80700E07A8DF80400E1
:10056000607B8DF8060014F8D4098DF8000094F82B
:10057000DC008DF8010094F8DD008DF8020094F89D
:10058000DE008DF8030000E019E094F8E0008DF83B
:100590000500D4F8D8000C90B4F88400ADF8280019
:1005A00094F8DE00012806D0082804BF94F8E00083
:1005B000082808D003E094F8E000012803D00EB02A
:1005C0004FF0FF3010BD6946E06F08F0FFF80EB045
:1005D000002010BD70B50546406B4FF0FF3400F1B0
:1005E000080141F288330022284601F021F830B991
:1005F000284601F0F5F9284607F07EFD0024204644
:1006000070BD002070472DE9F04F83B0446BDDE9E9
:100610000C9806469A4693460F46D4F8800005F09B
:100620006FFC0025032F0EBFC4F85C510120C4F8F5
:100630005C010021306807F0ADFBC4F85851306808
:1006400007F030FC84F89050C4F84851A4F84C519D
:10065000A4F85451CDE9009853465A4639463046DD
:1006600000F0B3FD94F8AD00002804BF03B0BDE86E
:10067000F08F4EF66021304603F04BFC84F8AD500D
:1006800003B03046BDE8F04FFFF7FABE70B5446BDB
:10069000D4F8580101281CBFD4F85C0101281AD1F4
:1006A000E06F08F029FC00250120C4F85C5184F8B3
:1006B000DC0084F8DD0084F8E00084F8DE0084F8D3
:1006C000E15084F8DF5004F5A77004F0DDFDA4F8D4
:1006D0008450C4F8D850002070BD2DE9F041446B1F
:1006E0000D4607460026E06801280ED15DB141F2B3
:1006F0008833002204F10C01384600F099FFE268CB
:10070000012AF4D0EFE74FF0FF363046BDE8F08124
:1007100070B5446B0546202204F22310FFF7AEFDAE
:100720000120C4F844012846BDE8704000F09BBF9A
:1007300070B50B490024456B496900291CBF002096
:1007400070BD41F28833012205F1740100F070FFA1
:10075000002806BF686F01284FF0FF34204670BDA7
:10076000F069002010B5044601F048F9002818BFD0
:1007700010BD2046BDE8104007F0D6BC2DE9F84377
:100780000C461D46164634211846FFF790FD20887A
:1007900004F00CFD85F82A00E07885F82C00D4F8E8
:1007A00006006860608928811C2E3CBF4FF0FF3036
:1007B000BDE8F88304F11000618B6980218B2980EA
:1007C000A6F11C011C344618B4423CBFDFF8BC80C3
:1007D000002757D2207820B1302812D0DD2829D028
:1007E0004BE06078202848D8002846D085F82B00B8
:1007F0006278002A41D0A11C05F10A00FFF73EFDF6
:100800003BE062886178A01C012A3BD18DF8017021
:10081000891E8DF80070C9B230236A46801C07F02B
:100820008BFB9DF8000085F82E009DF8010085F8EF
:100830002F0022E0607806281FD96279D4F80210D0
:1008400062F31F61414518D1001F81B2E288A01DEB
:10085000012A12D18DF80170891E8DF80070C9B27D
:10086000DD236A46801C07F067FB9DF8000085F8D1
:1008700030009DF8010085F831006078A11C441813
:10088000B442A7D30020BDE8F88300000050F20175
:1008900000F0E2BC38B5D0F834C0049C0125CCE9A6
:1008A0001C35009400F025FD38BD70472DE9F05F40
:1008B00083460E4691F93F003649DBF834400A6919
:1008C00022B131465846BDE8F05F1047A16F0129BB
:1008D00054D1012844D0304605F0ABFA05463046E5
:1008E00005F0A9FA82B2687869880223B3EB901FF9
:1008F0000CBF4FF0010A4FF0000A94F8D430102BCF
:1009000018BF062A3AD3B2F5D06F37D8C1F30039F1
:100910004FEA51380121B1EB901F14BF0027012786
:1009200094F99000002808BF95F9000005D095F9CA
:100930000010C0EBC0000844C01084F8900031469D
:10094000E06F08F0ABFAB8F1000F03D0D2211248E3
:1009500005F000FB57B1D7210F4805F0FBFA0CE07A
:1009600031465846BDE8F05F08F0DAB859EA0A00A7
:1009700009D0DD21084805F0EDFA26B13046BDE882
:10098000F05F05F08EB931465846BDE8F05F00F0E3
:1009900091BD0000F0690020C4A6000870B5446B4A
:1009A000054600221146E06F07F0E3FF0120C4F87E
:1009B000A8012846BDE8704000F055BE2DE9F0477B
:1009C0000C460F68416C00269846496A4FF00109B1
:1009D000102F8D7880F0C080DFE807F0082B3D3DB8
:1009E0003D1BBE3D533D7186BEBE86AA0122911EAF
:1009F00006F060FB0028A8BF854274DB584951F817
:100A000020100A7912F0010F1CBF62680A6076D1CB
:100A100088E06168012206F04DFB0028A8BF8542EE
:100A200061DB4F4951F82020137913F0200F4ED18C
:100A300078E06168012206F03DFB0028A8BF8542EE
:100A400051DB474951F820100A7912F0020F54D1B6
:100A500005F084FE66E06168012206F02BFB0028A9
:100A6000A8BF854278DB3E490123BB4051F82010E6
:100A70004A681A4241D1A268632A08BF8A6051D1EC
:100A80003DE06168012206F015FB0028A8BF854201
:100A900062DB334951F82020938813F4807F41D0E2
:100AA000A368936051F8203004F10C025A6151F8A8
:100AB0002010C1F8108000BF4FF000091FE0284946
:100AC000284651F82020938813F4806F2AD004F12F
:100AD0000C03536151F82020C2F8108051F8201007
:100AE000A2688A60E8E737E01D492846012351F8EB
:100AF0002010BB404A681A4214D0A2688A60184984
:100B00004FF0010C0CFA07FC51F82020536823EA3F
:100B10000C03536051F82000002107F055FBB9F198
:100B2000000F02D0404605F0BCF83046BDE8F08723
:100B30000B49284651F82020938813F4004FF1D038
:100B400004F10C03536151F82030A2689A6051F807
:100B50002010C1F81080AFE74FF0FF36E2E7000049
:100B6000CC690020002918BF002A04D0426B91F8FC
:100B7000EA1082F89010426B0021C2F8BC1100F01C
:100B800072BD10B5446BE06F08F0B6F9012084F82F
:100B9000AD0010BD10B504460020626BC2F898008D
:100BA0000748C2681AB12046BDE810401047084601
:100BB00005F077F82046BDE8104000F054BD000075
:100BC000F069002070B5446B0646A08C38B92088C7
:100BD000022804D0D4F89C00032510B116E00225A9
:100BE00014E0012060600A48C4F89C00304600F020
:100BF00034FD41F288330022211D304600F018FDFB
:100C00006068002802BFA07800280125284670BD32
:100C1000C97B00082DE9F043446B064687B0606F3E
:100C200001281CBF07B0BDE8F08300252F274FF037
:100C300003084FF03C0900BFCDE904750695CDE9E6
:100C40000059CDE9025800231A461946E06F08F012
:100C500005FB48B1022804BF07B0BDE8F0838B2133
:100C6000184805F077F9E7E70121E06F08F0D9FCB3
:100C700048B1022804BF07B0BDE8F0839C211148A9
:100C800005F068F9F0E700221146E06F07F080FDFB
:100C900048B1022804BF07B0BDE8F083B22109487B
:100CA00005F058F9EFE7304607F00EFA002812BFBA
:100CB000022807B0BDE8F083C221024805F04AF9D6
:100CC000F1E7000078A6000810B54FF0FF3481F876
:100CD0003F201BB101F062FA18B103E001F098FA6D
:100CE00000B90024204610BD2DE9F84F8146446B21
:100CF000406C0E469B46406A0021D0E9077A056C9D
:100D0000E06F0090D9F8000007F044F8D4F8A00094
:100D10004FF0000818B104F0C4FFC4F8A080C4F874
:100D2000A0B0C4E929686720B84707000AD0D4E911
:100D30002810002943D001003FD0007848B1012895
:100D400034D030E0002D4FD04FF0FF310020A847C5
:100D50004AE096F82420311DB81DFFF78FFAD6F827
:100D60006B003860B6F86F00B88096F82400B91DA3
:100D700000F8018096F86A20002A08BF87F82680CC
:100D80000BD006F12A0107F12600FFF777FA96F853
:100D90006A0007F1260100F80180002D1CBF002128
:100DA000384600D0A847C4F8A4800DE0002D1CBF31
:100DB0004FF0FF310020F5D1F5E70DB904E01DB18A
:100DC0004FF0FF310020A847D4F8A00004F069FFDD
:100DD0003846C4F8A080D047009808F08DF894F801
:100DE000AC10009808F0C3F9D9F80000BDE8F84F3E
:100DF00007F058B800F0FABA38B50C460021009157
:100E0000416C456B0A48496A897850F8210006F020
:100E10009FF948B9009404236A461221E86F08F04C
:100E20006DFB002808BF38BD4FF0FF3038BD000013
:100E3000CC69002070B582B000254FF4FA600095AF
:100E4000ADF80400174C01260DE000BF606BBDF843
:100E50000410C0F8AC61A06806F0A4FF002818BF19
:100E600010F1020F0FD1606BC0F8AC51A06B0128DC
:100E700009D001AB6A460321204600F0EDFE009840
:100E80000028F0D0E2E7204600F004FEE0680028E9
:100E900018BF06F097FF4FF0FF31204603F039F8F6
:100EA00002B070BDC467002000221021014801F08B
:100EB0005DBD00000000024001221021014801F048
:100EC00055BD00000000024000222021014801F031
:100ED0004DBD00000008024001222021014801F020
:100EE00045BD0000000802402DE9F84F476B406CFB
:100EF0000E460025406A2C466A46D0F8309091F89C
:100F00003C002946C0F3C018304604F002FFB0B1DF
:100F1000009941B18AB218F100011CBF01460020BE
:100F2000C8474FF0000A00986A46204484B2681C03
:100F300085B2E9B2304604F0ECFE0028E8D1308FEB
:100F4000A04217D9D7F86C11001B884203D9902111
:100F50000A4804F0FFFF308F001B82B2B8F1000F87
:100F600019BF0020D7F874110021D7F87401C847C1
:100F70004FF0000A5046BDE8F88F0000CCA80008EA
:100F80001FB5406C190082B0406A4FF00004036B3B
:100F900008BF6946501CC2B203A8984706B0204655
:100FA00010BDF0B585B00027446B0E460097019741
:100FB00002976A46039702F033FE05003ED130885F
:100FC000A0F58070052838D2DFE800F0030C162168
:100FD0002C00A06F012831D19DF90610E06F08F0B8
:100FE000CBF92BE09DF8060084F85C009DF9060023
:100FF00004F16001475421E09DF8060084F85D008B
:101000009DF9060004F160020121815416E09DF86B
:10101000060084F85E009DF9061004F160020220CB
:1010200088540BE09DF8060084F85F009DF90610D7
:1010300004F160020320885400E00E2505B0284624
:10104000F0BD00002DE9F74FC58DFF270024D0F833
:10105000288081460E46002D17D900BF04EB4400BE
:1010600000EBC40008EB800B0BF103010622B01D5E
:10107000FFF749F930B39BF80200B8423CBF07467E
:10108000A246601CC4B2AC42E8D3A54284BF03B000
:10109000BDE8F08FB9F82C0085421FD3F078874265
:1010A00024BF03B0BDE8F08F0AEB4A0000EBCA0092
:1010B000029B08EB800103B032464846BDE8F04F82
:1010C00005F043BF04EB440000EBC40008EB8001D3
:1010D00032464846029B05F038FFD6E705EB45004F
:1010E00000EBC50008EB800132464846029B05F044
:1010F0002CFF681CA9F82E0003B0BDE8F08F2DE985
:10110000F047456C04460021686A676BD0E9079890
:10111000866B206806F03EFE206806F0C3FE1420B1
:10112000C8476979044601291CBF286810F0400FA0
:1011300027D040F001002860002E3DD0D4B100201F
:1011400020606060A060E0602061B7F8540104F0A6
:101150002DF860706879A070A879E07007F1B4008C
:10116000E0602F306060653000222061214610462B
:10117000B04725E0B446BDE8F047002211461046CE
:101180006047286810F0200F16D010F0100F0BD019
:1011900020F0100040F00100286001290CD15EB160
:1011A00000221146022006E040F0040028601EB133
:1011B000002211460320B047002C08BFBDE8F0878D
:1011C0002046C446BDE8F04760472DE9F041456C34
:1011D00006460F46686A0021846B306806F0DAFD27
:1011E000306806F05FFE286810F0010F12D010F092
:1011F000400F07D020F0010028605CB100213A4682
:10120000012006E020F0040028601CB100213A46CD
:101210000420A047286810F0100F08BFBDE8F08137
:1012200020F0100010F0400F28600AD0002C08BFFA
:10123000BDE8F0813A46A446BDE8F0410021012016
:101240006047002C08BFBDE8F0813A46A446BDE8DF
:10125000F0410021042060472DE9F047456C044629
:101260000021686A666BD0E90798876B206806F0F2
:1012700091FD206806F016FE1420C8470446286831
:1012800010F0010F04BF6979012929D110F0400F36
:1012900026D040F00100286017B3D4B100202060B0
:1012A0006060A060E0602061B6F8540103F07EFF4A
:1012B00060706879A070A879E07006F1B400E06011
:1012C0002F30606065300022206121461046B8470B
:1012D0000AE0BC46BDE8F0470022114610466047D0
:1012E000002C08BFBDE8F0872046C446BDE8F047A3
:1012F00060470A68C0F83D208988A0F8411000F0D6
:10130000B2B900002DE9F047DFF8CC8006468946E7
:1013100098F8000018B16621304804F01BFE012047
:1013200088F8000004F013FC2E4D2D4C0020296895
:10133000B1F1FF3F08BFC5E9000404D04FF4897143
:10134000264804F007FE6868C9F8000048212046D6
:10135000FEF7ADFF244800276664C4E90C70204600
:10136000FFF700FA20B1022808BFBDE8F08711E0BE
:10137000204600F0AFFB68B906F092FCE06006F092
:101380008FFCA060204600F045F918B92046FFF711
:10139000CFF998B188F800704FF0FF362046C9F8B1
:1013A0000070FFF72EF92046FFF714F9286800288F
:1013B00004BF4FF0FF30C5E9000709E0022088F8BC
:1013C00000002046FFF726FC060018BFBDE8F087A6
:1013D0003046BDE8F087000090000020C8A5000856
:1013E000C4670020840000200C6800202DE9F0472D
:1013F000406C89461F46406A1646D0E90718056CBE
:1014000067208847040002D10DB1411EA84767211B
:101410002046FEF74CFFB9F1000F0DD01DB14FF083
:10142000FF312046A847002C08BFBDE8F0872046C2
:10143000C446BDE8F047604705221CA13846FEF7C8
:1014400078FF002804BF002084F8260005D0402241
:10145000394604F12600FEF735FF3846FEF73EFF19
:101460003844471C3846FEF739FF00281CBF38783F
:10147000012804D020223946A01DFEF723FF306842
:101480002060B088A080B07950B1F01DFEF726FF33
:1014900030B1B07984F86600F11DA01DFEF740FF61
:1014A000002DC0D000212046A847BCE76B6F6E67B7
:1014B0000000000070B50546406C0C00406A86785C
:1014C00008BF70BD084604F0B4FC0168012228463C
:1014D00005F0F0FD050006D4B54204DC0A4E56F8CE
:1014E0002500416821B12046BDE8704004F0D9BB19
:1014F000C0682146001D04F0C7FB56F82500BDE872
:101500007040002106F060BECC6900202DE9F0415A
:101510000446406C0025406A8078461C002EC8BFF7
:10152000204F0EDD57F82500016839B1C068001D55
:1015300004F097FB002818BF04F0B3FB6D1CB54204
:10154000F0DB606B0069012818BFBDE8F081002165
:10155000206806F01FFC04F1100004F082FB054631
:10156000208B18B90021204600F033FD206806F0DA
:1015700099FC6DB122460C49284604F0E8FB284648
:1015800004F053FC0A2803DAF221084804F0E2FCD4
:10159000284605F0BDFC606B00690128D7D0BDE886
:1015A000F0810000CC6900207316000858A70008DD
:1015B0002DE9F0410446406C0027406A90F8018014
:1015C00084F83C7004F1100004F00FFC04F11C00DE
:1015D00004F00BFC0025B8F1000F10D94FF4D060D7
:1015E00004F0F1FA060011D004F01BFC314604F1BE
:1015F000100004F049FB681C85B2A845EED8616B69
:10160000012008610020A763BDE8F0810220BDE849
:10161000F081000010B50446044806F047FB00289E
:101620000EBF4FF0FF306060002010BD350E000887
:101630002DE9F041984614460D46074600262868D5
:10164000A04207D04146F86806F0ACFB0028F6D06F
:101650004FF0FF363046BDE8F0818068002808BFB3
:10166000704706F0AFBBC068002808BF704706F09F
:10167000A9BB704770B50E4604460068002106F00D
:1016800089FB04F1100004F0ECFA0546208B18B930
:101690000021204600F09DFC206806F003FC6DB19F
:1016A00022460749284604F052FB284604F0BDFBB9
:1016B000B04203DAF221034804F04CFC284670BD26
:1016C0007316000858A700082DE9F041D0F83480BF
:1016D00005460F4698F87A0110F0010403D0214620
:1016E000284603F01DFB3A8F4FF48071284600F026
:1016F00066F806001ED197F83C0010F0800F788F36
:1017000009D040F4004041BA002301222846FFF7E7
:1017100037FC064606E041BA002301222846FFF7BF
:101720002FFC064636B928463946FFF7DDFB06464C
:10173000182816D01CB3182E1FD06F6B2146B7F88F
:101740007A010843A7F87A01084204BF284603F04B
:10175000E7FAB7F87A214FF45061284600F02FF8E5
:101760000DE0B8F87801002140F00800A8F87801F1
:1017700028460A4602F08EFB0CB1A8F87E4130469E
:10178000BDE8F08170B505460020106041F440408E
:10179000144641BA002301222846FFF7F1FB002836
:1017A00018BF70BD2346012200212846FFF7E8FB41
:1017B00021680A0242EA112189B2216070BD70B528
:1017C000054641F48040144641BA002301222846D0
:1017D000FFF7D6FB002818BF70BD200240EA142096
:1017E00081B22846BDE8704000230122FFF7C8BB44
:1017F0002DE9F04F0646406C002483B0406A254630
:10180000C768E7B1022268A13846FEF792FD0028BA
:1018100008BF4FF4007512D0022264A13846FEF7CB
:1018200088FD002808BF4FF4807508D0022260A10F
:101830003846FEF77EFD002808BF4FF440755D482E
:10184000416821B13046884703B0BDE8F08F45F0CC
:101850000208DFF86491DFF864B1594D594F00BFB9
:101860004FF0000A042301AA3946304600F018FB65
:1018700020B14FF40B71544804F06CFB5046411CEE
:101880001FFA81FAB0F57A7F02D201984845E9D172
:10189000BAF57A7F04D303B04FF0FF30BDE8F08F84
:1018A000CDF80480042301AA4849304600F06AFDBF
:1018B00020B140F25B21444804F04CFB200000F1D1
:1018C0000101CCB208BFDA461ED104236A46514654
:1018D000304600F0E5FA20B140F2BB113A4804F07E
:1018E00039FB0098A842F0D1DFF8E4A004236A464F
:1018F0005146304600F0D4FA20B14FF4E27132483C
:1019000004F028FB009818B103B00020BDE8F08F68
:101910004FF0FF30009004236A465146304600F0F5
:1019200031FD20B140F2CF11274804F013FB08200D
:10193000009004236A462749304600F023FD20B179
:101940004FF4EC71204804F005FB23480090042379
:101950006A462249304600F015FD20B140F2E111FF
:10196000194804F0F7FA0020009004236A4639462B
:10197000304600F007FD20B14FF4F571124804F035
:10198000E9FA80200090C10104236A46304600F045
:10199000F9FC20B140F2F3110B4804F0DBFA01210D
:1019A000304602F0B6FA5BE7434E000055530000A4
:1019B0004A500000F069002080BA8C010C07140026
:1019C00004011E007806140010A700080C0614007D
:1019D00020071400B406140078563412B806140018
:1019E00010B5446BFFF792FDD4F8740120B104F0F8
:1019F00096F80020C4F87401002010BD2DE9F041D4
:101A0000446B07464FF4E0712046FEF750FC00257A
:101A1000A56025616567A5670126C4F89450E66056
:101A2000C4F8A85084F8D46084F8DC6084F8DD60E1
:101A300084F8DE6084F8E060C4F84451C4F858517A
:101A4000C4F85C514FF00208C4F8A85184F8AC8087
:101A50001120A4F86201F002C4F8680120201F21BF
:101A6000C4E95B0104F067F8C4F8B051C4F874012C
:101A700084F8365084F8466084F8568018B9DB2123
:101A8000034804F067FA3846BDE8F041FFF790BD1F
:101A900010A7000870B50546446B02F07CFA0021DF
:101AA000284602F03BFA284602F0F0F9E06F0026E3
:101AB00010B107F015FDE667D4F8800018B104F006
:101AC000EDF9C4F88060286806F002F90020A660ED
:101AD00070BD00002DE9F04387B00546466B06F067
:101AE000D9F84FF001094FF00008286000287CD099
:101AF000284602F0F9F90121284602F00FFA28469B
:101B000002F044FB040071D12846FFF771FE040087
:101B10006CD1686B4E4F0321C166B96819B1284674
:101B20008847040062D1396819B128468847040003
:101B30005CD1786940B9284607F015FAC6E91E90CD
:101B400004F0AEF9C6F88000B86900287AD12846BA
:101B500002F072F9040077D16C6BCDF80080CDF8FB
:101B600014804FF48070CDF80880ADF80000CDF8F7
:101B70000480CDF80C80CDF810808DF8088069467F
:101B80002846FFF70EFA070055D10498694640F041
:101B90000100049040F204600590BDF8020020F0BE
:101BA000030040F00500ADF8020040F20110ADF86E
:101BB00000002846FFF7F5F907003CD14FF481708B
:101BC000ADF8000069462846FFF7EBF9070032D16F
:101BD00040F20310ADF8000069462846FFF7E1F92E
:101BE000070028D14FF4827001E02AE02CE0ADF824
:101BF000000069462846FFF7D4F907001BD194F886
:101C00005C0018B9A121134804F0A4F994F85D0010
:101C100018B9A2210F4804F09DF994F85E0018B994
:101C2000A3210C4804F096F994F85F0018B9A42198
:101C3000084804F08FF93C0006D1284602F0C6F8A7
:101C400004460CB9C6E9029807B02046BDE8F08307
:101C5000F069002010A700082DE9FF5F446B0646DD
:101C600005202080706C00259B46406A9046876A5C
:101C700094F8A401012806D10320208084F8A451FF
:101C8000304602F047FC06202080B4F8780110F4BA
:101C9000807F23D0D6F834A0D4F89491BAF87E117E
:101CA00021B1304602F00AFDAAF87E51B9F1000FC9
:101CB0001CBFD9F84420002A0BD049463046904733
:101CC000C4F89451B4F8780120F48070A4F8780135
:101CD00004E040F22111714804F03CF994F8A501A8
:101CE00068B103202080304602F037F910213046D9
:101CF00002F0E4FC304601F0F5FF84F8A55107201E
:101D00002080019810F0010F3AD0304600F090F991
:101D1000012835D12080A16A3046A56200F030F953
:101D200018B166215D4804F015F9C4F86451B4F89F
:101D3000780110F4807F23D0D6F834A0D4F89491A1
:101D4000BAF87E1121B1304602F0B8FCAAF87E51F3
:101D5000B9F1000F1CBFD9F84420002A0BD0494626
:101D600030469047C4F89451B4F8780120F480705C
:101D7000A4F8780104E040F22111484804F0EAF8A0
:101D800008202080019810F0020F1BD0304600F090
:101D90008BFA012816D102202080A08C90B100215E
:101DA000306805F0F7FF04F11C0003F05AFF81468C
:101DB000306806F077F8B9F1000F03D04946304695
:101DC00000F0ACF90920208094F8780110F0080F99
:101DD00008D1D4F89C1029B10420208030468847CF
:101DE0000A2020800B202080B8F1000F16D094F834
:101DF000A201002819BF2069002894F8A401002836
:101E00000AD1A08C18B1304600F04EFA20B9B4F8CF
:101E1000780110F4807F1FD0C8F80050AFB3D4F819
:101E20008800002818BFB847D4F88C0048B1B847DC
:101E3000D4F88C10401A42F21071884288BFC4F85E
:101E40008C50606F012801BFD4F88C000028D4F8B2
:101E50008800002819D111E00120C8F8000060694D
:101E6000012801D02580D9E7BBF1000F1CBF32202B
:101E7000ABF80000A069401CA061F3E7E06F07F039
:101E8000A9F830B1B847C4F88C0004B00020BDE810
:101E9000F09FB847C4F88800F7E70000F8A70008EB
:101EA0002DE9FF4FAFB000203299804600299CBF3A
:101EB00033B0BDE8F08F0DF16C0A4FF0300B042603
:101EC0002F980290319808AF00EB080104230022FC
:101ED0003846009603F0ABFE02980690309840F228
:101EE0007C491CAC01251B901AF805008DF81000E8
:101EF0008DF811008DF812008DF8130004230022D4
:101F000004A92046009603F092FE09EB0500A4F810
:101F10003CB0C0F30E00608726872146069802F089
:101F200047F890B96D1C032DDEDD042300221BA9A8
:101F30002046009603F07BFE1020A087A4F83A907C
:101F400026872146069802F033F848B99020B887D2
:101F500040F2744078873E873946029802F028F8AC
:101F600000281CBF33B0BDE8F08F309908F1040899
:101F7000091D309132998845A2D333B0BDE8F08F66
:101F800070B50C46054602F025FC204603F053FFD1
:101F900002460021284602F0E7F8C0F30E006087F1
:101FA0008420A0872146284602F060FA84F8400089
:101FB000616C002908BF70BD696B1828C1F8944195
:101FC00008BF70BDB1F8782142F48072A1F8782181
:101FD00070BD426B13691161002B0CBF0129704762
:101FE00092F8A211002908BF7047FFF736BB000026
:101FF00030B583B00546002000900C466B4601AA20
:10200000284602F003FC18B11F21084803F0A2FF84
:1020100094F83F0021460028284603D0FEF746FCEE
:1020200003B030BD02F04CFD03B030BD40A8000845
:10203000F8B5446B07460025B4F8780110F0800F1E
:1020400008BF10F4847F43D194F8A20100283FD048
:102050002069002804BFA06A002839D001236A46FD
:102060004FF44061384602F02BF8002830D1009838
:1020700010F0010F09D00120009000236A464FF4B0
:102080004061384602F01CF810BB94F8620110F071
:10209000010F1DD0D4F86401002658B9384602F06B
:1020A00017F820B14FF4E4711A4803F053FFD4F845
:1020B000640178B1D4F8840104F5B271062826BF12
:1020C00049888842C4F8646102D3A06A68B10125D6
:1020D0002846F8BD94F8A2010028F9D084F8A2613E
:1020E0000121384602F0EAFAF2E7D4F8700101441F
:1020F000891D21EA000021690029E9D081B2384612
:10210000FFF7B8FAA06200281CBF03494164DFD082
:10211000DDE70000F8A70008F11F000870B50C46C5
:102120000546466B02F0FCFC98B184F84000616CF7
:10213000002908BF70BD696B1828C1F8944108BF19
:1021400070BD00BFB1F8782142F48072A1F8782107
:1021500070BD204603F06FFE0146B6F870010144E1
:1021600021EA000086B232460021284601F0FCFF39
:10217000C0F30E00608726870420A08721462846EA
:1021800002F074F984F84000616C002908BF70BD4A
:10219000696B1828C1F89441D4D170BD2DE9F04184
:1021A0000546446B19480E4648644FF0FF37062138
:1021B000304603F0EDFD28BB304603F03CFE0146FF
:1021C000D4F87001B4F86820014481438A4228BFE2
:1021D000012005D2B1FBF2F042438A4238BF401CD5
:1021E00086F83E000021286805F0D4FD314604F150
:1021F0001C0003F049FD0027286805F053FE28461F
:10220000FFF72BFA3846BDE8F08100007D22000878
:102210002DE9F0410546446B17480E4648644FF0DF
:10222000FF370621304603F0B3FD10BB304603F004
:1022300002FE0146D4F87001B4F8682001448143DD
:102240008A4228BF012005D2B1FBF2F042438A4204
:1022500038BF401C86F83E000021286805F09AFD32
:10226000314604F11C0003F00FFD0027286805F03B
:1022700019FE3846BDE8F0817D22000870B50C4695
:10228000054602F0D3FB94F83F1029B121462846B9
:10229000BDE87040FEF77EBCBDE8704038210148C3
:1022A00003F058BE40A800082DE9F047446B002712
:1022B00080466761B4F87801B94610F0800F08BF16
:1022C00010F4867F58D1E569002D55D095F83F1060
:1022D000404602F095FF06004ED0284603F0ABFDC5
:1022E0000146D4F87001014421EA0000B4F86810F6
:1022F000884204D94FF4A671214803F02BFEF07AEE
:1023000030B995F83F10404602F0EEF9F07A60B32C
:102310002846C4F8189003F08EFD0146D4F87001E9
:10232000014421EA0000D4F88811401D884222D9D6
:10233000404602F08BF8284603F07DFD0146D4F8B4
:102340007001014421EA0000D4F88811401D884240
:1023500011D9284603F06FFD0146D4F870010144FD
:102360008143404601F0F2FF06E02069002804BFE7
:102370000120606100E001273846BDE8F0870000D9
:10238000F8A700082DE9FF4FADB08946002030992D
:10239000074600299CBF31B0BDE8F08F0DF1640AFB
:1023A0004FF0300B04242F9806AEC1192D9D042345
:1023B00000223046009403F03AFC1020ADF854009F
:1023C00040F27440ADF85200ADF850403146284616
:1023D00001F0EEFD002838D102954FF48F68CDF85A
:1023E00064901AAD5FF0010604231AF806008DF818
:1023F0000C008DF80D008DF80E008DF80F000022F6
:1024000003A92846009403F012FC08EB0600A5F887
:102410003CB0C0F30E0068872C872946029801F073
:10242000C7FD90B9761C032EDEDD0423002219A916
:102430002846009403F0FBFB1020A887A5F83A80FB
:102440002C872946029801F0B3FD00281CBF31B04B
:10245000BDE8F08F3F1D309909F104098F42A2D3E6
:1024600031B0BDE8F08F0000034900200A68B2F1E6
:10247000FF3F18BF48687047840000200249496840
:10248000814218BF00207047840000202DE9F05FD2
:10249000DFF860A10D46044650451CD056488442E2
:1024A00019D05648844216D05548844213D0554816
:1024B000844210D0544884420DD0544884420AD0FB
:1024C0005348844207D05348844204D04FF4A1714A
:1024D00051A003F021FDDFF87CE100204FF001095D
:1024E0004FF00F0B09FA00F105EA01028A427BD195
:1024F000266847000323BB409E432660C60804EBC2
:102500008606D6F820C047074FEAD7680BFA08F7C7
:102510002CEA070CC6F820C0A6689E43A660666831
:102520008E436660E1689943E16020F003037344E1
:102530001E6881070F0F0BFA07F10E40544502D1B8
:102540004FF0000C39E0DFF8B0C0644502D14FF025
:10255000010C32E0DFF8A4C0644502D14FF0020C58
:102560002BE0DFF89CC0644502D14FF0030C24E05F
:10257000DFF890C0644502D14FF0040C1DE0DFF895
:1025800088C0644502D14FF0050C16E0DFF87CC02E
:10259000644502D14FF0060C0FE0DFF874C06445CB
:1025A00002D14FF0070C08E0DFF868C0644502D1A3
:1025B0004FF0080C01E04FF0090C0CFA07FCB44591
:1025C00012D11E688E431E6023490B6893430B6033
:1025D000091D0B6893430B60091D0B6893430B6047
:1025E000091D0B6893430B60401C1028FFF47AAF61
:1025F000BDE8F09F000002400004024000080240D5
:10260000000C02400010024000140240001802407A
:10261000001C0240002002402E2E2F447269766575
:1026200072732F53544D3332463478785F48414C9F
:102630005F4472697665722F5372632F73746D33C2
:1026400032663478785F68616C5F6770696F2E639B
:102650000000000008380140003C01402DE9F84F1F
:102660000446A1480D4684421BD0A048844218D09D
:102670009F48844215D09F48844212D09E4884428D
:102680000FD09E4884420CD09D48844209D09D487A
:10269000844206D09C48844203D0C5219BA003F00D
:1026A0003BFC28880004000C03D1C62197A003F04E
:1026B00033FC6868F8B101281DD011281BD002280E
:1026C00019D0122817D0A049884214D09F498842B7
:1026D00011D09F4988420ED09E4988420BD09E4916
:1026E000884208D09D49884205D0032803D0C721DD
:1026F00086A003F011FCA86838B1012805D0022893
:1027000003D0C82181A003F007FC00264FF0010B85
:102710000BFA06F02F688246074057457DD168685E
:10272000022801D012282ED12869F8B109281DD01D
:1027300001281BD0022819D0032817D0042815D04F
:10274000052813D0062811D007280FD008280DD04F
:102750000A280BD00B2809D00C2807D00D2805D04B
:102760000F2803D0D92169A003F0D6FBF00804EBB1
:102770008002106A7107CB0E0F21994088432969A6
:1027800099400143116220687200032101FA02F9A5
:102790002979904601F0030120EA090001FA08F1C5
:1027A000014321606868012805D0022803D0112860
:1027B00001D012281DD1E86848B1012807D00228AD
:1027C00005D0032803D0EC2150A003F0A5FBA0689E
:1027D000E96820EA090001FA08F10143A160606894
:1027E000297920EA0A00C1F3001101FA06F1014338
:1027F0006160E168A86821EA090100FA08F008436D
:10280000E0606868C00069D55548016841F48041BE
:102810000160006800F4804000E05FE000905148F3
:1028200026F003010A181068B1070B0F0F21994019
:1028300088432D498C4201D1002128E02B498C424C
:1028400001D1012123E02A498C4201D102211EE05D
:1028500028498C4201D1032119E027498C4201D13A
:10286000042114E025498C4201D105210FE02449BF
:102870008C4201D106210AE022498C4201D1072174
:1028800005E021498C4201D1082100E0092101FA2B
:1028900003F101431160344908686A68B843D20300
:1028A00000D5384308603049091D08686A68B84394
:1028B000920300D5384308602B49083108686A68DC
:1028C000B843D20200D53843086027490C31086864
:1028D0006A68B843920200D538430860761C102E0F
:1028E000FFF416AFBDE8F88F00000240000402407C
:1028F00000080240000C0240001002400014024098
:1029000000180240001C0240002002402E2E2F44DE
:102910007269766572732F53544D3332463478782A
:102920005F48414C5F4472697665722F5372632F22
:1029300073746D3332663478785F68616C5F67708A
:10294000696F2E63000000000000111000002110CC
:1029500000003110000012100000221000003210A0
:102960004438024008380140003C014070B515462B
:102970000C00064604D140F2B11108A003F0CCFAD5
:1029800045B1012D04D04FF4D97104A003F0C4FA6D
:10299000B46170BD2004B06170BD00002E2E2F44C4
:1029A0007269766572732F53544D3332463478789A
:1029B0005F48414C5F4472697665722F5372632F92
:1029C00073746D3332663478785F68616C5F6770FA
:1029D000696F2E6300000000014800687047000026
:1029E000100000200B4810B5016841F4007101602F
:1029F000016841F480610160016841F48071016007
:102A0000032000F075F80F2000F006F800F015F82C
:102A1000002010BD003C024010B5044600F058FAFA
:102A20004FF47A71B0FBF1F000F0B8FF00222146BC
:102A3000501E00F00DF8002010BD10B5032000F06E
:102A400057F800220F21BDE81040501EAFF3008060
:102A500070B515460C460646102A03D3BC2114A0B7
:102A600003F05AFA102C03D3BD2111A003F054FA3D
:102A70001E480068C0F30223C3F107022046042A5F
:102A800000D90422191D072901D2002300E0DB1E12
:102A9000012404FA02F1491E014099409C40641E41
:102AA0002C4021433046BDE8704002F05DB9000083
:102AB0002E2E2F447269766572732F53544D333224
:102AC000463478785F48414C5F4472697665722F6E
:102AD0005372632F73746D3332663478785F686134
:102AE0006C5F636F727465782E6300000CED00E01C
:102AF00010B5044607280BD0062C09D0052C07D0AA
:102B0000042C05D0032C03D0A42108A003F004FA60
:102B1000154904F0070208684FF6FF03184040EA21
:102B20000220124A1043086010BD00002E2E2F44D0
:102B30007269766572732F53544D33324634787808
:102B40005F48414C5F4472697665722F5372632F00
:102B500073746D3332663478785F68616C5F636F6D
:102B6000727465782E6300000CED00E00000FA0539
:102B70002DE9F05F044600680E46401E0E2804D979
:102B800040F24F21C2A003F0C7F996B1012E10D038
:102B9000022E0ED0032E0CD0042E0AD0052E08D003
:102BA000062E06D0072E04D04FF41471B8A003F0FF
:102BB000B3F9DFF814A3DAF80000DFF8108300F0AF
:102BC0000F01F0B2C14F814641F2883508F1080883
:102BD000B14276D201468AF80010DAF8000000F01F
:102BE0000F00B0426ED1207880071ED5A068A0B13A
:102BF000802812D0902810D0A0280ED0B0280CD059
:102C0000C0280AD0D02808D0E02806D0F02804D068
:102C100040F266219EA003F07FF9D8F80010A26868
:102C200021F0F0011143C8F800102078C0073BD014
:102C3000606888B1012827D0022828D0032826D030
:102C400040F26D2192A003F067F9606801281BD063
:102C500002281CD003281AD038688007002831DAEF
:102C6000D8F800004646616820F003000843C8F821
:102C70000000FFF7B1FE0746606801280FD0022868
:102C800019D003281FD02AE038688003E6E73868A7
:102C90008001E3E7FFF7A0FEC01BA8427ED83068A2
:102CA000C0F381000128F5D1AFE000BFFFF794FE2B
:102CB000C01BA84272D83068C0F381000228F5D149
:102CC000A3E011E097E03068FFF786FEC01BA84242
:102CD000F9D963E0FFF780FEC01BA8425ED83068D8
:102CE00010F00C0FF6D190E0207880071ED5A06878
:102CF000A0B1802812D0902810D0A0280ED0B028E3
:102D00000CD0C0280AD0D02808D0E02806D0F0285F
:102D100004D04FF430715EA003F0FEF8D8F8001034
:102D2000A26821F0F0011143C8F800102078C00714
:102D300059D0606888B1012833D0022834D00328E4
:102D400032D040F2C72152A003F0E6F860680128B3
:102D500027D0022828D0032826D0386880070028EA
:102D600049DAD8F80010626821F003011143C8F86D
:102D70000010FFF731FE0746606801281ED00228C8
:102D80002AD0032839D0AB464546286810F00C0FEE
:102D900029D0FFF721FEC11B5945F6D90320BDE814
:102DA000F09F38688003DAE738688001D7E700BF12
:102DB000FFF712FEC11B594502D9EFE7AB46454666
:102DC0002868C0F381000128F2D10CE0FFF704FE6F
:102DD000C11B594502D9E1E7AB4645462868C0F317
:102DE00081000228F2D18AF80090DAF8000000F0A1
:102DF0000F00B04209D00120D1E744462068FFF718
:102E0000EBFDC01BA842F9D9C8E720784FF48055E4
:102E100040074FF4A0564FF4C0574FF4E05916D571
:102E2000E06860B1A8420AD0B04208D0B84206D0EB
:102E3000484504D040F2213115A003F06DF8D8F8D0
:102E40000010E26821F4E0511143C8F80010207826
:102E5000000717D5206960B1A8420AD0B04208D057
:102E6000B84206D0484504D04FF44A7108A003F098
:102E700053F8D8F80010226921F4604141EAC201F8
:102E8000C8F800100F20FFF7C7FD002087E70000FB
:102E90002E2E2F447269766572732F53544D333240
:102EA000463478785F48414C5F4472697665722F8A
:102EB0005372632F73746D3332663478785F686150
:102EC0006C5F7263632E6300003C02400038024076
:102ED00010B500F043F808490968F02292FAA2F20E
:102EE00001F0F001B2FA82F2D140044A515CC840CC
:102EF0000349086010BD00000838024074A50008AE
:102F00000C00002010B5FFF7E3FF074909684FF4F4
:102F1000E05292FAA2F201F4E051B2FA82F2D14008
:102F2000024A515CC84010BD0838024074A5000830
:102F300010B5FFF7CDFF074909684FF4604292FAD8
:102F4000A2F201F46041B2FA82F2D140024A515C2D
:102F5000C84010BD0838024074A5000830B51948B3
:102F6000006810F00C01184812D0441004290ED04B
:102F700008290DD11349091F0A6802F03F030A68A6
:102F8000550247F6C07204D5B4FBF3F003E02046C7
:102F900030BDB0FBF3F00B680968134092FAA2F25F
:102FA000B2FA82F2D34058434FF4403292FAA2F27E
:102FB00001F44031B2FA82F2D140491C4900B0FB21
:102FC000F1F030BD083802400024F4002DE9F84F3C
:102FD000044600680F2803D9EF21F4A002F09CFFFB
:102FE0002078DFF80084C0074FF00006FE4D53D074
:102FF000606838B1012805D0052803D0F421EBA082
:1030000002F08AFFD8F800104046C1F3810101297F
:1030100009D00068C0F3810002280BD1F148001FDD
:103020000068400206D52868800335D5606800280E
:103030007ED031E0DFF8B09309F1020989F8006031
:10304000FFF7CAFC074604E0FFF7C6FCC01B642874
:103050006FD828688003F7D4207989F80000606869
:1030600068B1FFF7B9FC074605E000BFFFF7B4FC05
:10307000C01B6428ECD828688003F7D50CE0FFF764
:10308000ABFC074605E000BFFFF7A6FCC01B6428A9
:10309000DED828688003F7D42078D44F80074FF01B
:1030A000010B58D5E06830B1012804D040F2351149
:1030B000BEA002F031FF20691F2804D94FF49B7194
:1030C000BAA002F029FFD8F80010404611F00C0F0A
:1030D0004FF0F80A09D00068C0F3810002280BD134
:1030E000C048001F0068400206D42868800714D535
:1030F000E06801281CD110E0E068E8B1C7F800B032
:10310000FFF76AFC814605E0FFF766FCA0EB0900CB
:1031100064289DD828688007F6D528689AFAAAF20C
:103120002169B2FA82F220F0F8009140084301E0F0
:1031300033E170E128600EE03E60FFF74DFC814610
:1031400006E000BFFFF748FCA0EB0900642891D817
:1031500028688007F6D42078000733D5DFF884A2EA
:10316000DFF88C9260690AF16C0AD0B1012806D0B0
:103170004FF4BB718DA002F0CFFE606988B1C9F831
:1031800000B0FFF729FC814606E000BFFFF724FCF2
:10319000A0EB09006428BCD8DAF800008007F5D558
:1031A00010E0C9F80060FFF717FC814606E000BF99
:1031B000FFF712FCA0EB09006428AAD8DAF8000097
:1031C0008007F5D42078400764D5A06840B1012875
:1031D00006D0052804D04FF4D07174A002F09CFEF4
:1031E00080483830016841F0805101600068DFF8A4
:1031F00004A200F080500090DAF8001041F48071D1
:10320000CAF80010FFF7E8FB814605E0FFF7E4FB92
:10321000A0EB090064289AD8DAF80000C005F5D5BB
:10322000DFF8C09109F1680989F80060FFF7D4FB65
:1032300041F2883A009005E0FFF7CEFB0099411A71
:10324000514584D8D9F800008007F5D4207A89F850
:103250000000A06878B1FFF7BFFB009006E000BF58
:10326000FFF7BAFB0099411A514594D8D9F80000EC
:103270008007F5D50EE0FFF7AFFB009006E000BF3A
:10328000FFF7AAFB0099411A514584D8D9F80000EC
:103290008007F5D4A06900287ED0012809D0022833
:1032A00007D04FF4F27141A002F036FEA069002869
:1032B000F2D0D8F80000C0F3810002286DD0A069D8
:1032C000022804D03E66FFF787FB0446A6E0E069CB
:1032D00038B1B0F5800F04D040F2ED1133A002F008
:1032E0001BFE206A3F2804D94FF4F7712FA002F08B
:1032F00013FE606A3238B0F5BF7F04D940F2EF1197
:103300002AA002F009FEA06A02280AD0042808D0E8
:10331000062806D0082804D04FF4F87123A002F044
:10332000FBFDE06A001F0B2804D940F2F1111FA039
:1033300002F0F2FD3E66FFF74FFB064605E000BFD8
:10334000FFF74AFB801B642865D828688001F7D402
:10335000D4E90701084347F6C07292FAA2F2616A03
:10336000B2FA82F29140A26A4FF0FF3303EB5202AD
:103370004FF4403393FAA3F3B3FA83F39A40114323
:1033800008434FF0706292FAA2F2E16AB2FA82F256
:1033900091400843134901E043E044E0091F0860FD
:1033A000C7F860B0FFF718FB04462AE02E2E2F4422
:1033B0007269766572732F53544D33324634787880
:1033C0005F48414C5F4472697665722F5372632F78
:1033D00073746D3332663478785F68616C5F7263E2
:1033E000632E630008380240003802400000474264
:1033F000800E474200700040FFF7EEFA001B642881
:1034000009D828688001F7D50BE000BFFFF7E4FA80
:10341000001B642802D90320BDE8F88F28688001CA
:10342000F4D40020F8E70120F6E7000070B50400AE
:1034300076D0606830B1B0F5827F03D0B82155A056
:1034400002F06AFDA06848B1B0F5806F06D0B0F513
:10345000004F03D0B9214FA002F05EFDE068B0F547
:10346000006F04D018B1BA214AA002F055FD2069BE
:1034700028B1022803D0BB2146A002F04DFD6069AF
:1034800028B1012803D0BC2142A002F045FDA0696B
:10349000B0F5007F07D030B1B0F5802F03D0BD214B
:1034A0003CA002F039FDE06988B108280FD010284F
:1034B0000DD018280BD0202809D0282807D0302874
:1034C00005D0382803D0BE2132A002F025FD206AA5
:1034D00028B1802803D0BF212EA002F01DFD606A14
:1034E00028B1102803D0C0212AA002F015FDA06A3F
:1034F00030B1B0F5005F03D0C12126A002F00CFD71
:10350000E06A4FF6FE71401E884203D9C22121A015
:1035100002F002FD94F85100002518B107E0FFE722
:10352000012070BD84F85050204600F063F802205E
:1035300084F851002068016821F040010160D4E95D
:1035400001010843D4E903121143084361690843A8
:10355000218B01F400710843E1690843216A0843A3
:10356000A16A084321680860A069042101EA1040AB
:10357000616A0843216848602168E06A0861206840
:10358000C16921F40061C1616565012084F85100C1
:10359000002070BD2E2E2F447269766572732F53F2
:1035A000544D3332463478785F48414C5F447269F9
:1035B0007665722F5372632F73746D33326634786D
:1035C000785F68616C5F7370692E630000680649FC
:1035D000884208D10548016821F480510160E0214A
:1035E0000348FEF753BF70470030014044380240A3
:1035F0000000024000B500680D4987B0884215D12F
:103600000C48016841F4805101600068694600F48B
:1036100080500590E020009002200190012002904F
:103620000390052004900448FFF718F807B000BD88
:103630000030014044380240000002402DE9F84FBC
:10364000044690F85100DDF828A01D46174688462C
:10365000012801D0222872D1B8F1000F15D0A7B1EE
:103660009DB1A06820B14FF42771A5A002F054FCD1
:1036700094F85000012862D04FF0010984F850906E
:1036800094F85100012803D005E00120BDE8F88F2F
:10369000322084F8510000266665A763A587E58778
:1036A000C4F83080A586E586A664E664A06A4FF477
:1036B0000055A84209D12068016821F40051016039
:1036C0002068016841F400510160206801684906E2
:1036D00003D4016841F040010160E0684FF4827159
:1036E000B0F5006F606807D0002866D088426DD1C1
:1036F000E08E012861D069E020B188420CD1E08ED3
:10370000012809D1206B21680088C860206B801CCB
:103710002063E08E401EE086E08E88B9A06AA84251
:1037200043D12068016841F4805101603DE0206888
:10373000C068A16B0880A06B801CA0639DE0DDE0E9
:10374000534600220221204601F01EFB002871D1C1
:10375000206B21680088C860206B801C2063E08E8D
:10376000401E0004000CE08607D1A06AA84204D1E4
:103770002068016841F48051016053460022012114
:10378000204601F001FB00286FD12068C068A16BC2
:103790000880A06B801CA063E08F401EE087E08E55
:1037A0000028CDD1606800286AD15346002201214B
:1037B000204601F0E9FAE8BBB9E7206B411C216320
:1037C00021680078C860E08E401EE086E08E98B9DF
:1037D000A06AA84204D12068016841F480510160C8
:1037E000534600220121204601F0CEFA10BB20688A
:1037F000C068A16B087040E05346002202212046B9
:1038000001F0C2FAB0B9206B411C21632168007835
:10381000C860E08E401E0004000CE08607D1A06A5C
:10382000A84204D12068016841F4805101605346E8
:10383000002200E019E00121204601F0A5FAA0B91C
:103840002068C168A06B421CA2630170E08F401E1B
:10385000E087E08E0028CFD1606888B95346002207
:103860000121204601F090FA08B103200EE72068FC
:10387000C168A06B421CA2630170E08F401EE0870C
:10388000A06AA84210D1534600220121204601F02F
:103890007BFA18B1606D40F002000FE02068C0684C
:1038A000ADF80000BDF800005346012280212046FB
:1038B00001F06AFA20B1606D40F020006065D4E745
:1038C00084F8519020688168A26AC1F30011AA426D
:1038D00010D179B1616D41F002016165016821F497
:1038E000005101602068016841F40051016084F8D2
:1038F0005060CAE684F850600020C7E60220C5E6A2
:103900002E2E2F447269766572732F53544D3332C5
:10391000463478785F48414C5F4472697665722F0F
:103920005372632F73746D3332663478785F6861D5
:103930006C5F7370692E630010B54FF0E0240428AB
:1039400009D020B140F2B31105A002F0E5FA2069D8
:1039500020F0040002E0206940F00400206110BD66
:103960002E2E2F447269766572732F53544D333265
:10397000463478785F48414C5F4472697665722FAF
:103980005372632F73746D3332663478785F686175
:103990006C5F636F727465782E63000010B5401E13
:1039A000B0F1807F01D3012010BD4FF0E0246061B1
:1039B0000F21601701F0D8F90020A06107202061D5
:1039C000002010BD70B5040021D0A069394900283D
:1039D000394A3A4B3A4D20681BD088420BD090426E
:1039E00009D0984207D0A84205D0FC2135A002F0AA
:1039F00093FAA06900B3A069B0F5807F1CD0B0F540
:103A0000007F19D0B0F5407F16D0FD2111E00120D4
:103A100070BD884210D090420ED098420CD03849E8
:103A2000884209D03749884206D0A84204D040F2E3
:103A3000011124A002F070FAA06838B1B0F5805FDF
:103A400004D040F203111FA002F066FAE06938B119
:103A5000B0F5004F04D04FF482711AA002F05CFA66
:103A600094F83900002520B984F83850204600F039
:103A70004BF8022084F839002068C16821F4005115
:103A8000C160204601F042FA2068016921F49041AA
:103A900001612068416921F02A0141612068C16803
:103AA00041F40051C160E563012084F83900002031
:103AB00070BD00000010014000440040004800407C
:103AC000001401402E2E2F447269766572732F53B5
:103AD000544D3332463478785F48414C5F447269C4
:103AE0007665722F5372632F73746D333266347838
:103AF000785F68616C5F756172742E63000000000E
:103B0000004C00400050004000B500680E4987B0EE
:103B1000884217D10D48016841F01001016000682A
:103B2000694600F0100005904FF4C060009002203C
:103B30000190012002900320039007200490044884
:103B4000FEF78CFD07B000BD001001404438024074
:103B5000000002402DE9F047044690F839009946EC
:103B60000D46012801D0222858D12DB322B394F854
:103B70003800012852D0012684F838600027E76316
:103B800094F8390022281AD05FF0120084F8390026
:103B9000A284E2844FF48058E08C4B46401EE084BF
:103BA000A0684FF0000240454FF08001204613D13D
:103BB00001F0B2FA08BB04E00120BDE8F087322032
:103BC000E4E728882168C0F308004860206908B14C
:103BD0006D1C08E0AD1C06E001F09EFA68B9216892
:103BE00015F8010B4860E08C0028D5D14B46002227
:103BF0004021204601F090FA08B10320DDE794F857
:103C00003900322806D084F8396000BF84F8387053
:103C10000020D2E7222084F83900F7E70220CCE721
:103C200070B584B0064606208DF8040000200D46CD
:103C3000029009881446012904BF8DF804004FF44E
:103C400080702DD02549D1F800C0BCF1000F08D0FC
:103C500002A8009001AB29463046E04708B304B003
:103C600070BD20732888A0F5807141F230000529CD
:103C700017D2DFE801F003090E13190001208DF8B7
:103C8000040040F206600BE002218DF8041002905F
:103C900007E003218DF80410029002E0042104E003
:103CA0000290029848B903E005218DF80410F7E767
:103CB0004FF415710A4802F04DF99DF9040081B2E4
:103CC000304601F09DFA298841809DF80410A171C9
:103CD0000299A160018004B0002070BD0C6A002030
:103CE000804A00082DE9F04194B04FF00408446B7D
:103CF000054602AE4346002201A93046CDF80080B9
:103D000001F095FF94F8B40100281CBF14B0BDE881
:103D1000F081012784F8B4719020ADF8440040F29E
:103D20002440ADF84200ADF840803146284600F00E
:103D30003FF918B1CD2115A002F00CF99DF807004C
:103D4000A4F86600686B002190F8662080F8377050
:103D500080F8387080F8351080F83410016380F8EE
:103D6000477080F8487080F8451080F84410921E23
:103D7000016480F8572080F8582080F8551080F8AA
:103D80005410016514B0BDE8F08100002E2E5C2EA9
:103D90002E5C6273705F61746865726F735F7769C0
:103DA00066695C7372635C61746865726F735F7778
:103DB0006966695C636F6D6D6F6E5F7372635C687B
:103DC00074635C6874632E630000000070B5416B1F
:103DD0000646012591F86600002481F8375081F8E5
:103DE000385081F8354081F834400C6381F84750F1
:103DF00081F8485081F8454081F84440801E0C64A9
:103E000081F8570081F8580081F85540094881F839
:103E100054400C65416819B130468847040006D10A
:103E20000121304600F04AFC706BC0F8B0512046CA
:103E300070BD00000C6A002010B513490446406BA9
:103E400089688AB021B12046884740B10AB010BDC8
:103E50000621A0F866104FF4D061A0F86810002089
:103E600000900190029003900490059006900790B6
:103E7000089009900120ADF8000006AA6946204686
:103E8000FFF7CEFE0AB010BD0C6A0020406C406AFD
:103E9000406900472DE9F0410546446B406C17002E
:103EA0008846406AC66A03D10021286803F072FF81
:103EB00094F8A301B8F1000F0FD028B9012084F8BD
:103EC000A30108F0FF00B047002F18BFBDE8F08144
:103ED0002868BDE8F04103F0E5BF012804BF0020D9
:103EE00084F8A301F0D1EEE710B5446B406C406A52
:103EF00000698047C4F89C010120C4F89801C120E2
:103F000084F8A00194F8A10140F0020084F8A10116
:103F100010BD406C406A426A0846104770B50646BC
:103F2000406C82B00D00406A846909D00846A04701
:103F3000716C0120496A496A02B0BDE870400847C7
:103F4000FF210091036B01A902226846984702B045
:103F50002846A446BDE87040604770B594B001257E
:103F6000064602AC2B46002201A92046009501F02E
:103F70005EFEFF208DF804001020ADF8440040F2F2
:103F80000140ADF84200ADF840502146304600F007
:103F90000FF814B070BD416B91F8A11111F0020F30
:103FA00008BF70474FF400425111FDF708BC0000F4
:103FB000F8B5064691F83C000C4610F0200018BFFA
:103FC00040200090084601F036FF009940EA0102C7
:103FD0004FF4C06130460092FDF7F1FB05006AD155
:103FE00094F83C0010F0800F16D1002301224A21E2
:103FF0003046FCF7C5FF05005DD130462146FCF791
:1040000073FF0546182801D035B154E04FF499717B
:104010002A4801F09FFF4EE04FF40040009094F8D2
:104020003C0010F0800F14BF00204FF4804040F49B
:104030000040618F41EA00024FF4E0613046009297
:10404000FDF7BDFB050008BFC82534D16A464FF413
:10405000A0613046FDF796FB002804BF009810F0E1
:10406000010F0DD09DB194F83C0010F0800F1BD0D3
:1040700000230122C8213046FCF782FF50B113E033
:104080006D1E04D001213046FFF743FFDEE74FF0FD
:10409000FF3510E030462146FCF726FF182803D1F3
:1040A000D621064801F056FF4FF440729100304689
:1040B000FDF785FB05462846F8BD000088A80008E6
:1040C000012B02D01268FDF77ABBFDF75BBB000045
:1040D000F0B585B0054603AA4FF44071446BFDF777
:1040E00051FB07003AD10398C4F88401042835D362
:1040F0006A464FF4A0512846FDF744FB07002DD136
:1041000000986A4686B2ADF804604FF4A85128467C
:10411000FDF738FB070021D1009871BA80B240BA90
:10412000ADF80410ADF808009DF804008DF800000B
:104130009DF805008DF801009DF808008DF802003B
:104140009DF809008DF80300009820B940F2334132
:10415000044801F0FFFE0098C4F8640105B0384639
:10416000F0BD000088A8000810B529B1FC21064860
:1041700001F0F0FE204610BD406BD0F86801801AB7
:1041800000F50064F6E7000088A8000870B5446BED
:10419000054694F8A00110F0030F04D140F29331CA
:1041A000684801F0D7FEB4F8780120F0200040F014
:1041B0004001A4F8781194F8A0214FF0000012F00B
:1041C000080F23D0032184F8801184F8811100BFE7
:1041D000A4F87C015C48D4F89C11814284BF4FF460
:1041E0000070A4F87C01B4F87C0140F08000A4F8D1
:1041F0007C0194F88111032908BF40F0040017D016
:10420000012908BF40F0060012D013E012F0010FA0
:104210001FBF84F8800184F8810121F04001A4F8D7
:10422000781102BF012184F8801184F88111CFE751
:10423000A4F87C0101212846FFF76BFEB4F87C212D
:104240004FF480612846FDF7BAFA060077D104F5ED
:10425000C4724FF400712846FDF794FA06006ED13F
:10426000D4F88801C4F88C01A0F540615B3918BF0F
:104270004FF0FF3663D100224FF498512846FDF7E6
:104280009EFA060007D14FF480624FF44061284641
:10429000FDF795FA0646002E51D16C6B0E21B4F84D
:1042A0007A0140F00E00A4F87A0110F00E0F04BF5E
:1042B000284600F035FDB4F87A214FF450612846C5
:1042C000FDF77DFA6C6B1021B4F87A0140F0100014
:1042D000A4F87A0110F0100F04BF284600F020FD6A
:1042E000B4F87A214FF450612846FDF768FA6C6BF8
:1042F00001214FF0000294F8A00110F0800F1BD0B4
:104300004FF450612846FDF75AFA18B176210D484E
:1043100001F020FE002201212846FFF7BBFDB4F882
:104320007A214FF450612846FDF749FA18B17E21F1
:10433000044801F00FFE02E02846FFF7ABFD3046CF
:1043400070BD000088A8000800366E0170B5456B8E
:10435000044684B0D5F88C01461AB04203D9002E29
:1043600008BF012604E040F21221374801F0F2FDB7
:1043700032464FF498512046FDF721FA00281CBF21
:1043800004B070BD02AA4FF4A0612046FDF7FAF90F
:1043900000281CBF04B070BD029800F0060004287D
:1043A00012D101212046FFF7B4FD02AA4FF4A0610B
:1043B0002046FDF7E7F900281CBF04B070BD029845
:1043C00000F0060004281ED0B5F878014FF4806193
:1043D00040F00400A5F87801656BB5F87A0140F467
:1043E0008060A5F87A0110F4806F04BF204600F0C9
:1043F00097FCB5F87A214FF450612046FDF7DFF9BC
:1044000004B0182070BD6A464FF400712046FDF7D5
:10441000B9F900281CBF04B070BD0098C5F8880128
:1044200000224FF498512046FDF7C9F900281CBF1F
:1044300004B070BD4FF480624FF440612046FDF738
:10444000BEF904B070BD000088A8000838B5044665
:104450006A464FF40071FDF795F9002818BF38BD82
:104460000098616BC1F8880138BD00002DE9F0416A
:10447000456B06460F46B5F8780110F0800F1CBF5B
:104480001720BDE8F08110F0010F1CBF1020BDE81F
:10449000F08195F88101B5F87C41032808BF44F00C
:1044A00004002AD0012808BF44F0060409D00028DF
:1044B00008BF24F0040020D04FF4D171144801F05B
:1044C00049FD706BB0F87C11A1420BD0A0F87C4183
:1044D00022464FF480613046FDF771F9002818BF7D
:1044E000BDE8F08197F83C0010F0800F08D0394605
:1044F0003046BDE8F041FDF7E7B820F00204E0E700
:10450000388FD5F88811081A401FC5F88801EEE7E2
:1045100088A800082DE9F041446B0546002794F86F
:10452000780182B010F0080F7DD16A464FF44061E7
:104530002846FDF727F9060076D1B4F87A010099EC
:10454000084040F20E71009010EA010206D04FF4CC
:1045500040612846FDF733F9060070D1009810F04D
:104560000E0F17D000F00E024FF440612846FDF701
:1045700026F90098002220F00E000090B4F878018F
:104580004FF4506140F08000A4F878012846FDF710
:1045900016F954E010F4407F07D020F440700090EA
:1045A0004FF44071284600F0BBFB009810F4806F78
:1045B0002ED020F4806000904FF48061284600F0F7
:1045C000AFFB94F8780110F0040F21D001AA4FF44A
:1045D00000712846FDF7D6F8060030D10198C4F8DE
:1045E0008801B4F87801002220F00400A4F87801D2
:1045F0004FF498512846FDF7E2F8060007D14FF432
:1046000080624FF440612846FDF7D9F806465EB94E
:10461000009810F0010F04D00121284600F080FB23
:104620000127009801E043E009E010F0100F06D0E8
:104630009021284600F074FB012084F8A50194F82D
:10464000780110F0080F28D1D5F8348001214FF0FF
:10465000000298F8A00110F0800F1BD04FF45061B9
:104660002846FDF7ACF818B17621134801F072FC2A
:10467000002201212846FFF70DFCB8F87A214FF4FB
:1046800050612846FDF79BF838B17E210A4801F0B9
:1046900061FC02E02846FFF7FDFB002F1CBF022053
:1046A00084F8A20126B140F24531034801F052FCE2
:1046B00002B00120BDE8F08188A8000870B5446B05
:1046C0000546B4F87A010843A4F87A01084204BF09
:1046D000284600F025FBB4F87A212846BDE8704052
:1046E0004FF45061FDF76BB82DE9F04395B00546E6
:1046F000466B00F085FD044696F8B401002801BF22
:104700000020207215B0BDE8F083A07A4FF00409B4
:10471000860800F003070DF108084B46002201A9A6
:104720004046CDF8009001F082FA9020ADF84400A8
:104730004FF4846000EB8600ADF84200ADF8409085
:1047400041462846FFF734FC18B14C21104801F0CF
:1047500001FC0198F900C8402072617A401AC5B284
:104760006068C82824BF15B0BDE8F083854203D235
:10477000742108A001F0EEFB6168681AC0B2014420
:104780006160E17A0844E07215B0BDE8F083000092
:10479000804A00082E2E5C2E2E5C6273705F61745E
:1047A0006865726F735F776966695C7372635C6179
:1047B000746865726F735F776966695C636F6D6D4E
:1047C0006F6E5F7372635C6874635C6874632E639E
:1047D0000000000070B5466B002081F83E0096F89E
:1047E000640181F83F000D46B6F86601B6F8701115
:1047F000801D0844884384B22146284601F0DCFA33
:104800002C87D6F86401686370BD00002DE9FF4F66
:1048100085B08146002608981746B246002818BF82
:10482000C0F800A0069801F006FB85B2069801F0DA
:1048300000FB040001D0062D04D24FF4D5716AA00C
:1048400001F088FB2078658860F30708607860F3E2
:104850000F28A07860F31748E07860F31F68069887
:10486000406B404504D040F2BB115FA001F072FBE9
:10487000069801F0E0FAA91D884207D9069801F0D0
:10488000DAFA401B811F069801F0F4FA607810F004
:10489000020F00F0A38094F80480B8F1020F01D356
:1048A000A84504D940F2D3114FA001F053FB601981
:1048B000A0EB0800CDF8089000F106094FF00001C8
:1048C000B8F100000097039140F37680022807D3E7
:1048D000A0F1020B99F8010009F10207584506DD25
:1048E000132640F25111504801F034FB6DE099F865
:1048F00000103C46012904D0022931D003294DD0B3
:1049000051E00299460800250191002E4BDD00BFC1
:1049100014F81500062803D3A021434801F01AFB20
:1049200014F81510019800F06BFC04EB4501427A75
:104930004B781A444272497843680A464BB1934215
:104940009DBFC91AC9B2C0F804A0002184BF9A1A39
:104950004260C27A6D1C1144C172B542D8DB22E0BC
:10496000062804D240F20F112F4801F0F3FA6179C2
:104970002078C943C9B2884215D1009898B16178AE
:1049800001700098A17841700098E17881700098DA
:104990002179C17008990120086004E040F23D11BE
:1049A000214801F0D7FA99F8010000EB0709ABEBB9
:1049B000000000288ADC039E4146069801F05AFA5E
:1049C0000621069801F0D0F926B14FF4F67106A041
:1049D00001F0C0FA09B03046BDE8F08F0621069814
:1049E00001F0C2F9F6E700002E2E5C2E2E5C6273F9
:1049F000705F61746865726F735F776966695C7315
:104A000072635C61746865726F735F776966695C15
:104A1000636F6D6D6F6E5F7372635C6874635C6807
:104A200074632E6300000000804A000808460621D7
:104A300001F09AB9F0B595B004250E46074602ACD0
:104A40002B46002201A92046009501F0F0F89020A5
:104A5000ADF844004FF4846000EB8600C0F30E0014
:104A6000ADF84200ADF8405021463846FFF7A0FAB5
:104A700018B14C2102A001F06DFA019815B0F0BDFB
:104A80002E2E5C2E2E5C6273705F61746865726F8F
:104A9000735F776966695C7372635C617468657281
:104AA0006F735F776966695C636F6D6D6F6E5F735F
:104AB00072635C6874635C6874632E63000000005A
:104AC00010B50C46084601F0B6F918B1392104A01A
:104AD00001F040FA2046BDE8104001F0E2B80000C5
:104AE0002E2E5C2E2E5C6273705F61746865726F2F
:104AF000735F776966695C7372635C617468657221
:104B00006F735F776966695C636F6D6D6F6E5F73FE
:104B100072635C6874635C6874632E6300000000F9
:104B20002DE9F0470D4600274FF0FF383E4691F83B
:104B30003F10D0F8349000F063FB040032D0D9F875
:104B4000B001012817D1E07A00282BD095F83E005B
:104B500020B940F26B1115A001F0FCF9E07A95F84C
:104B60003E10401A10F0FF00E072667B06F1010172
:104B7000617308BF0127284601F05BF90446284607
:104B800001F059F9801FA070284601F054F9801FE8
:104B9000000AE070677095F83F00207000202071D7
:104BA000667180464046BDE8F08700002E2E5C2EE0
:104BB0002E5C6273705F61746865726F735F776992
:104BC00066695C7372635C61746865726F735F774A
:104BD0006966695C636F6D6D6F6E5F7372635C684D
:104BE00074635C6874632E630000000010B586B0C7
:104BF0000020059005A802F0D0FA074C14220749BE
:104C0000A0606846FBF73AFB6846216802F0BAFBF1
:104C1000606006B010BD00000000002060A5000824
:104C20001B4810B5016886B041F0040101600168BD
:104C300001F004010591016841F080010160016803
:104C400001F080010591016841F0010101600068F7
:104C5000012400F0010005901020CDE9000402209D
:104C6000CDE9024069460B48FDF7F8FC2020CDE96C
:104C7000000402940394084C69462046FDF7EEFCBC
:104C8000002220212046FDF771FE06B010BD000075
:104C9000303802400000024000080240114810B5C0
:104CA0000F4901604FF4827141600021022281604E
:104CB000C0E9031201224261520282610822C0E966
:104CC0000721416281620721C162FEF7AFFB002824
:104CD00005D0BDE81040402103A001F01DB910BD72
:104CE00000300140980000202E2E2F5372632F7346
:104CF00070692E63000000000848074901604FF406
:104D0000E1314160002181600C22C160C0E90412E0
:104D10008161C161FEF756BE00100140F000002025
:104D200070B5456B0446B5F87A018843A5F87A0159
:104D300008420FD0666B08430842A6F87A0104BF08
:104D40002046FFF7EDFFB6F87A214FF45061204678
:104D5000FCF735FDB5F87A212046BDE870404FF4E8
:104D60005061FCF72CBD00000907090E002803DA8A
:104D700000F00F00024A00E0024A81547047000030
:104D800014ED00E000E400E02DE9F0471D469046F8
:104D90000E460446FDF720FE07465FEA08004FF086
:104DA00000084FF4005A4FF0010926D034E0681C87
:104DB00023D025B1FDF710FEC01BA8421DD92068E5
:104DC000416821F0E00141602068016821F0400164
:104DD0000160A06A504509D12068016821F40051A2
:104DE00001602068016841F40051016084F851902D
:104DF00084F850800320BDE8F0872068806836EA98
:104E00000000D4D10DE0681C06D0002DD7D0FDF7EE
:104E1000E3FDC01BA842D2D82068806836EA0000B3
:104E2000F1D00020E7E702F0A3BA000030B5204837
:104E300093B00025016841F080510160006800F0E6
:104E4000805011901B48016841F480410160006866
:104E5000022400F480401190012000900190800510
:104E6000CDE9064008AA0420A82113C20B90684689
:104E7000FEF7ACF80CA90D2031C14FF4A0500F90F3
:104E8000E002109005210CA8FDF772FEFEF720F855
:104E90004FF47A71B0FBF1F0FEF780FD0420FEF7CD
:104EA0004BFD00220F21501EFDF7D2FD13B030BD87
:104EB00040380240007000401048016841F4700121
:104EC00001600F48016841F0010101600C4A0021B6
:104ED0000832116002680B4B1A400260031D0A4A37
:104EE0001A60026822F48022026005480C300160DA
:104EF00002495806803908607047000088ED00E0DC
:104F000000380240FFFFF6FE103000242DE9F0418A
:104F1000044640686E49884204D34FF4E7616DA0AF
:104F200000F0FAFFE06838B1B0F5005F04D040F25D
:104F3000397168A000F0F0FF206950B1B0F5806FC2
:104F400007D0B0F5C06F04D040F23A7161A000F014
:104F5000E3FF60694FF6F371084200D120B940F2D7
:104F60003B715CA000F0D8FF2168086920F4405232
:104F7000E068104308612268D16849F20C608143FF
:104F80002369A068E569184363692B431843084304
:104F9000D0602068416921F44072A16911434161E8
:104FA000E06964253226B0F5004F5949594A206816
:104FB0001DD0904201D0884269D1FDF7B9FF00EBC6
:104FC000C00101EB00106168A8468900B0FBF1F157
:104FD000B1FBF8F5FDF7ACFF00EBC00101EB0010F1
:104FE00061688900B0FBF1F7FDF7A2FF68E090422D
:104FF00001D0884219D1FDF79BFF00EBC00101EB06
:1050000000106168A8464900B0FBF1F1B1FBF8F56A
:10501000FDF78EFF00EBC00101EB00106168490055
:10502000B0FBF1F7FDF784FF18E0FDF76BFF00EB35
:10503000C00101EB00106168A8464900B0FBF1F126
:10504000B1FBF8F5FDF75EFF00EBC00101EB0010CE
:1050500061684900B0FBF1F7FDF754FF00EBC001B8
:1050600001EB001061684900B0FBF1F1B1FBF8F011
:105070006FF01801484307EB800006EB0011B1FB0D
:10508000F8F0216865F31F108860BDE8F081FDF736
:1050900039FF00EBC00101EB00106168A8468900F0
:1050A000B0FBF1F1B1FBF8F5FDF72CFF00EBC0010F
:1050B00001EB001061688900B0FBF1F7FDF722FFFA
:1050C00000EBC00101EB001061688900CCE7000033
:1050D000A137A0002E2E2F447269766572732F536C
:1050E000544D3332463478785F48414C5F4472699E
:1050F0007665722F5372632F73746D333266347812
:10510000785F68616C5F756172742E6300000000E7
:1051100000140140001001402DE9F0471D46904663
:105120000E460446FDF758FC07465FEA08004FF0BC
:1051300000094FF0010808D030E0681C05D095B197
:10514000FDF74AFCC01BA8420DD82068006836EA6B
:105150000000F2D127E0681C20D025B1FDF73CFC0F
:10516000C01BA8421AD92068C16821F08001C16023
:105170002068C16821F02001C1602068C16821F465
:105180008071C1602068416921F00101416184F8AA
:10519000398084F838900320BDE8F08720680068E3
:1051A00036EA0000D7D00020F6E7000040F6B4123F
:1051B0001249904204BF0E20704708D2A0F6671033
:1051C00081FB00104FEA6001A1EBE070704741F2F3
:1051D0008832904208D2A0F51D6081FB0010C110FA
:1051E000A1EBE0700F307047A0F59850883881FB34
:1051F00000104110A1EBE070704700006766666622
:10520000032928BF0221406B2C2202EB0111084424
:10521000704700EB80010E28BCBF01F6671080B21A
:1052200008BF40F6B410D8BF70471B28B9BF40F67E
:10523000A40000EB810041F28830084480B270473E
:105240000FB4054B10B503A9044A029800F094F975
:1052500010BC5DF814FB00002971000894000020C8
:105260000FB4084B10B504A902AA039800F084F902
:10527000044602A9002000F04DFC204610BC5DF859
:1052800014FB0000155B000800210160818070475D
:1052900000210160818081717047002101604160BF
:1052A000704702E008C8121F08C1002AFAD17047EF
:1052B0007047002001E001C1121F002AFBD1704796
:1052C00010B50446006A00281CBFE069002835D0EC
:1052D000606900281CBF206900282FD0A069002821
:1052E0001CBF206B002829D0606A00281CBFE06A20
:1052F000002823D0606B00281FBF60780028E0786A
:1053000000281BD0A078401E082817D204220EA126
:10531000E068FBF70EF8A0B102220DA1E068FBF7F0
:1053200008F870B102220BA1E068FBF702F840B167
:10533000022209A1E068FAF7FCFF10B16FF001004A
:1053400010BD002010BD00004155544F000000006A
:10535000434E0000555300004A50000070B50D4DFB
:10536000286802F02FF80CA001F0E6F9044604F0DA
:1053700059FF0146B923224611A0FFF761FF2868B3
:1053800001F01AFF11A0FFF75BFF1548FEF71EF9A9
:10539000002070BD080000202E2E5C52414B53446B
:1053A0004B5C72775F6C69625C72775F6C69625F9D
:1053B000706C6174666F726D5F6F732E63000000B6
:1053C0002564202025733A25752020005F646569D7
:1053D0006E69745F696E746572666163650D0A005B
:1053E0009800002070B50C4D286801F0EBFF0BA071
:1053F00001F0A2F9044604F015FF014640F27913CA
:10540000224610A0FFF71CFF286801F0D5FEBDE87A
:1054100070400FA0FFF714BF080000202E2E5C5232
:10542000414B53444B5C72775F6C69625C72775F8F
:105430006C69625F706C6174666F726D5F6F732E02
:10544000630000002564202025733A257520200084
:105450005F6578745F696E746572727570740D0A39
:105460000000000070B50C4D286801F0ABFF0BA0E8
:1054700001F062F9044604F0D5FE0146B22322464B
:1054800010A0FFF7DDFE286801F096FE10A0FFF7E0
:10549000D7FE002070BD0000080000202E2E5C52B8
:1054A000414B53444B5C72775F6C69625C72775F0F
:1054B0006C69625F706C6174666F726D5F6F732E82
:1054C000630000002564202025733A257520200004
:1054D0005F696E69745F696E746572666163650D9C
:1054E0000A00000070B5114D0646286801F06AFFF9
:1054F0000FA001F021F9044604F094FE0146C223F6
:10550000224615A0FFF79CFE286801F055FE15A065
:10551000FFF796FE16B1FBF7DFFC01E0FBF7D4FCCA
:10552000BDE87040322001F02CBE000008000020D1
:105530002E2E5C52414B53444B5C72775F6C696218
:105540005C72775F6C69625F706C6174666F726DBC
:105550005F6F732E630000002564202025733A25B9
:10556000752020005F706F7765725F75705F646F84
:10557000776E0D0A000000002DE9FF4F8DB00F4639
:1055800005460026DEE1252874D100246D1CF14972
:10559000A246A14601222B78203B02FA03F00842E2
:1055A00002D004436D1CF6E728782A2810D06FF04B
:1055B0002F022878A0F13001092915D80AEB8A01B9
:1055C00002EB410144F0020400EB010A6D1CF0E71C
:1055D00057F804ABBAF1000F03DA44F40054CAF1EF
:1055E000000A44F002046D1C28782E2817D115F803
:1055F000010F44F004042A280ED06FF02F022878FF
:10560000A0F1300109290AD809EB890102EB410117
:1056100000EB01096D1CF2E757F8049B6D1C28781C
:105620006C280FD006DC4C2817D068280DD06A28CB
:1056300014D104E0742810D07A280FD10DE044F47E
:1056400000140AE044F4801401E044F44014697842
:10565000814202D16D1C04F580146D1C2A786E2ADB
:1056600020D00DDC632A33D005DC002A6FD0582A05
:1056700012D1A2E011E0642A6AD0692A0CD167E055
:10568000732A2FD004DC6F2A6FD0702A04D199E0DE
:10569000752A6BD0782A6AD01046DDE90F12904740
:1056A000761C4EE1C4F30250022806D003280AD02B
:1056B000042801CF0AD0066043E101CF4FEAE6712A
:1056C000C0E900613DE101CF06803AE1067038E1B2
:1056D00017F8040B8DF8000000208DF80100EB4650
:1056E000012003E057F804BB4FF0FF3061074FF093
:1056F000000102D40DE008F10101884649450FDAA6
:105700008045F8DB1BF808100029F4D108E008F107
:10571000010188468142FADB1BF808100029F6D106
:10572000DDE90F23AAEB08008146214600F03BF992
:10573000304400EB080604E0DDE90F121BF8010B12
:105740009047B8F10108F7D221464846F4E0FDE061
:105750000A21C4F302534FF0000B0891022B07D02B
:1057600001CFC117032B09D00AE034E023E024E085
:10577000FF1D27F00707F7E8020105E000B2C11797
:10578000042B01D140B2C117002907DA4FF0000CF9
:10579000D0EB0C006CEB01012D2302E0230504D5B6
:1057A0002B238DF82430012303E0E30701D02023CD
:1057B000F7E7984650E00A210EE010204FF0000B6A
:1057C00008900CE010214FF0000B44F004044FF05F
:1057D0000809089103E008214FF0000B0891C4F379
:1057E0000253022B04D001CF0021032B06D006E088
:1057F000FF1D27F00707F7E8020103E080B2042B42
:1058000000D1C0B24FF00008230725D5702A2AD056
:10581000DDF820C08CF0100C5CEA0B0C09D150EACA
:10582000010306D030238DF824308DF82520022383
:105830009846DDF820C08CF0080C5CEA0B0C0BD10C
:1058400050EA010301D1630706D530238DF82430D7
:105850004FF00108A9F10109582A09D03EA20B9284
:1058600008AA0A9211E040238DF824300123DFE7D3
:105870003EA2F4E75B46089AFAF76AFD0B9B9B5C35
:105880000A9AA2F101020A92137050EA0102F1D1C0
:105890000A98ADEB000000F1200B600702D524F45C
:1058A000803401E04FF00109D94502DDA9EB0B007E
:1058B00000E0002000EB0B0141440890AAEB010A34
:1058C000E00306D4DDE90F232146504600F06BF8D3
:1058D0000644002008E009A911F80900DDE90F12CB
:1058E0009047761C09F1010081464045F3DBE00357
:1058F0000CD5DDE90F232146504600F054F806444C
:1059000004E0DDE90F1230209047761C0899481E0C
:1059100008900029F5DC08E00A980A990078491CEB
:105920000A91DDE90F129047761CBBF10001ABF143
:10593000010BF1DC21465046DDE90F2300F020F891
:1059400006446D1C287800287FF41DAE11B0304647
:10595000BDE8F08F09280100303132333435363755
:1059600038396162636465660000000030313233AB
:10597000343536373839414243444546000000004B
:105980002DE9F041044600251E461746880405D43B
:1059900006E039462020B04705F10105641EF8D520
:1059A0002846BDE8F0812DE9F041044600251E4659
:1059B0009046C80301D5302700E02027880405D58C
:1059C00006E041463846B04705F10105641EF8D5AA
:1059D0002846BDE8F08100002DE9FE4316460F463B
:1059E0000546FBF761FA41F288384FF00004D7B161
:1059F00041E000BFCDF80080C5B12919012302AAFA
:105A00002748FDF71BFE20B14FF4937125A000F04D
:105A100083FA295D2DA0FFF713FC9DF804102FA039
:105A2000FFF70EFC641CB442E4D326E0012302AA73
:105A300001A91B48FDF702FE0028EAD040F223111D
:105A4000E4E700BF07EB0402CDF80080CDB12919CF
:105A500001231348FDF7F2FD20B14FF49C7111A012
:105A600000F05AFA295D21A0FFF7EAFB395D22A078
:105A7000FFF7E6FB641CB442E4D3FBF71DFABDE874
:105A8000FE83012301A90648FDF7D8FD20B140F2AD
:105A9000331104A000F040FA9DF8041019A0E3E7C8
:105AA000980000202E2E5C52414B53444B5C727781
:105AB0005F6C69625C72775F6C69625F706C617465
:105AC000666F726D5F6F732E6300000073656E64A6
:105AD0003D2578202020202020000000726563767C
