:020000040800F2
:10000000889A012059020008610200086302000872
:10001000650200086702000869020008000000008D
:100020000000000000000000000000009D0100082A
:100030006D02000800000000F101000845620008A0
:1000400073020008730200087302000873020008BC
:1000500073020008730200087302000873020008AC
:100060007302000873020008A32700087302000847
:10007000730200087302000873020008730200088C
:10008000730200087302000873020008730200087C
:10009000730200087302000873020008730200086C
:1000A000730200087302000873020008730200085C
:1000B0007302000829630008730200087302000835
:1000C000730200087302000873020008730200083C
:1000D000730200087302000873020008730200082C
:1000E000730200087302000873020008730200081C
:1000F000730200087302000873020008730200080C
:1001000073020008730200087302000873020008FB
:1001100073020008730200087302000873020008EB
:1001200073020008730200087302000873020008DB
:1001300073020008730200087302000873020008CB
:1001400073020008730200087302000873020008BB
:1001500073020008730200087302000873020008AB
:10016000730200087302000873020008730200089B
:100170007302000873020008730200080000000008
:100180007302000873020008DFF80CD000F030F9A9
:1001900000480047BD870008889A01202B4B19684A
:1001A0000868B0E8F04F80F30988BFF36F8F4FF015
:1001B000000080F3118870470000000006480068C6
:1001C000006880F3088862B661B6BFF34F8FBFF353
:1001D0006F8F00DF00BF00BF08ED00E0DFF80C000C
:1001E000016841F470010160704700BF88ED00E0D4
:1001F000EFF30980BFF36F8F144B1A681EF0100FD6
:1002000008BF20ED108A20E9F04F106008B44FF0CD
:10021000500080F31188BFF34F8FBFF36F8F0AF048
:10022000E7F94FF0000080F3118808BC19680868EE
:10023000B0E8F04F1EF0100F08BFB0EC108A80F34A
:100240000988BFF36F8F704700BF00BF44000020D4
:10025000EFF30580704700000648804706480047D6
:10026000FEE7FEE7FEE7FEE7FEE7FEE7FEE7FEE766
:10027000FEE7FEE7D5620008890100082DE9F05F7E
:100280000546002092469B46884606468146402405
:100290001BE0284641464746224600F099F853465F
:1002A0005A46C01A914110D311461846224600F012
:1002B00080F82D1A67EB01084F46224601200021E5
:1002C00000F077F817EB00094E41201EA4F101045D
:1002D000DFDC484631462A464346BDE8F09F40EA07
:1002E00001039B0703D009E008C9121F08C0042AB4
:1002F000FAD203E011F8013B00F8013B521EF9D29B
:100300007047D2B201E000F8012B491EFBD27047C2
:100310000022F6E710B513460A4604461946FFF7D1
:10032000F0FF204610BD10B5044604E00B7800F83D
:10033000013B03B1491C521EF8D2204610BD421C9D
:1003400010F8011B0029FBD1801A704710B500225C
:1003500000E0521C835C8C5CA34201D1002BF8D1DD
:10036000D8B2E1B2401A10BD30B5044600200346B1
:1003700000E05B1C934203D2E05CCD5C401BF8D0F4
:1003800030BD034611F8012B00F8012B002AF9D1EA
:100390001846704730B505460020034600E05B1C58
:1003A000934205D2EC5CC85C201A01D1002CF6D136
:1003B00030BD202A04DB203A00FA02F10020704709
:1003C0009140C2F1200320FA03F319439040704793
:1003D000202A04DB203A21FA02F00021704721FA9A
:1003E00002F3D040C2F12002914008431946704701
:1003F000064C074D06E0E06840F0010394E8070072
:1004000098471034AC42F6D3FFF7C2FE3CC8000850
:100410005CC8000810B504464C48016821F440311E
:10042000016001686268114301602068416821F43D
:100430008071416020684168226941EA022141607F
:100440002068416821F04071416020684168A268DD
:10045000114341602068816821F400618160206857
:100460008168E268114381603949E06A8842206806
:10047000816821F070618160206881680CD0E26A37
:10048000114381602068816821F0405181602068BB
:100490008168226B114301E021F0405181602068A6
:1004A000816821F00201816020688168A26941EAC7
:1004B00042018160606A00B3A06A401E072804D927
:1004C00040F2335123A006F0BDFE2068416841F49C
:1004D000006141602068416821F46041416020680A
:1004E0004268A16A4FF4604393FAA3F3491EB3FA3A
:1004F00083F399400A43426004E02068416821F494
:10050000006141602068C16A21F47001C162206805
:10051000C16A228C1D4B03EB02521143C162206859
:10052000816821F40071816020688168E26941EA94
:10053000422181602068816821F4806181602068A7
:100540008168626941EA8221816010BD0423014013
:100550000100000F2E2E2F447269766572732F539F
:10056000544D3332463478785F48414C5F44726969
:100570007665722F5372632F73746D3332663478DD
:10058000785F68616C5F6164632E63000000F0FF58
:100590000B794A88002B18BF70474B78406B09785D
:1005A000D0F8800006F018BE406B0978D0F88000C3
:1005B00006F02CBE00F092BE70B5446B1368054681
:1005C000C4F848319288A4F84C21A4F8541100686A
:1005D000002108F06FFE01200026C4E956062868B5
:1005E00009F0C0F884F89060D4F8800006F01EFE90
:1005F0002846BDE8704000F0CEBE10B5446B8EB00A
:10060000606F01287DD1D4F8B0100020002994F843
:10061000D41041DD102941D02F21CDE9041003224F
:10062000CDE902023C210690CDE900014FF6FF73AF
:1006300004220021E06F0AF0E5FD00281CBF0EB087
:1006400010BDB4F884200DF1140C04F5A77104F169
:10065000B400D4F8D8308CE80F0094F8DF000DF126
:10066000040C94F8E12094F8E010D4F8B0308CE851
:100670000F0094F8DE00009094F8DD3094F8DC2050
:1006800094F8D410E06F0AF0C5F9002804BF0121E6
:10069000C4F85C110EB010BD10294DD1009001902E
:1006A000029003900490059006900790B43408904F
:1006B00009900A900B900C900FCC0DF1080C8CE86F
:1006C0000F000FCC0DF1180C8CE80F0014F8240C5F
:1006D0008DF80700E07A8DF80400607B8DF8060045
:1006E00014F8D4098DF8000094F8DC008DF80100AE
:1006F00094F8DD008DF8020094F8DE008DF8030018
:1007000000E019E094F8E0008DF80500D4F8D80076
:100710000C90B4F88400ADF8280094F8DE000128AD
:1007200006D0082804BF94F8E000082808D003E0A9
:1007300094F8E000012803D00EB04FF0FF3010BD58
:100740006946E06F0AF016F80EB0002010BD70B5D3
:100750000546406B4FF0FF3400F1080141F2883349
:100760000022284601F0ECF830B9284601F0CCFA16
:10077000284609F071FB0024204670BD0020704718
:100780002DE9F04F83B0446BDDE90C9806469A469C
:1007900093460F46D4F8800006F048FD0025032F4D
:1007A0000EBFC4F85C510120C4F85C010021306820
:1007B00008F080FDC4F85851306808F0D3FF84F881
:1007C0009050C4F84851A4F84C51A4F85451CDE9C4
:1007D000009853465A463946304600F042FE94F897
:1007E000AD00002804BF03B0BDE8F08F4EF66021D5
:1007F000304604F0B5FC84F8AD5003B03046BDE897
:10080000F04FFFF7FABE70B5446BD4F858010128D9
:100810001CBFD4F85C0101281AD1E06F0AF040FB3C
:1008200000250120C4F85C5184F8DC0084F8DD0068
:1008300084F8E00084F8DE0084F8E15084F8DF50AA
:1008400004F5A77005F0CAFFA4F88450C4F8D85086
:10085000002070BD2DE9F041446B0D46074600268F
:10086000E06801280ED15DB141F28833002204F125
:100870000C01384601F064F8E268012AF4D0EFE791
:100880004FF0FF363046BDE8F08170B5446B054649
:10089000202204F22310FFF722FD0120C4F84401B6
:1008A0002846BDE8704001F066B8000070B50B49FD
:1008B0000024456B496900291CBF002070BD41F22E
:1008C0008833012205F1740101F03AF8002806BFCF
:1008D000686F01284FF0FF34204670BD4C96012010
:1008E00010B5044601F01EFA002818BF10BD2046BE
:1008F000BDE8104009F0C8BA2DE9F8430C461D4682
:10090000164634211846FFF703FD208805F0F8FE4F
:1009100085F82A00E07885F82C00D4F80600686095
:10092000608928811C2E3CBF4FF0FF30BDE8F88362
:1009300004F11000618B6980218B2980A6F11C01D4
:100940001C344618B4423CBFDFF8BC80002757D2A5
:10095000207820B1302812D0DD2829D04BE06078F3
:10096000202848D8002846D085F82B006278002A35
:1009700041D0A11C05F10A00FFF7B1FC3BE0628801
:100980006178A01C012A3BD18DF80170891E8DF879
:100990000070C9B230236A46801C09F07DF99DF8C9
:1009A000000085F82E009DF8010085F82F0022E058
:1009B000607806281FD96279D4F8021062F31F61AB
:1009C000414518D1001F81B2E288A01D012A12D131
:1009D0008DF80170891E8DF80070C9B2DD236A465A
:1009E000801C09F059F99DF8000085F830009DF849
:1009F000010085F831006078A11C4418B442A7D3E7
:100A00000020BDE8F88300000050F20100F070BD46
:100A100038B5D0F834C0049C0125CCE91C350094CD
:100A200000F0B3FD38BD70472DE9F05F83460E46F8
:100A300091F93F003649DBF834400A6922B131466A
:100A40005846BDE8F05F1047A16F012954D1012835
:100A500044D0304606F083FB0546304606F081FB65
:100A600082B2687869880223B3EB901F0CBF4FF005
:100A7000010A4FF0000A94F8D430102B18BF062A50
:100A80003AD3B2F5D06F37D8C1F300394FEA5138B5
:100A90000121B1EB901F14BF0027012794F99000AA
:100AA000002808BF95F9000005D095F90010C0EBAB
:100AB000C0000844C01084F890003146E06F0AF08E
:100AC000C1F9B8F1000F03D0D221124806F0E0FBC3
:100AD00057B1D7210F4806F0DBFB0CE031465846F2
:100AE000BDE8F05F09F0F0BF59EA0A0009D0DD2146
:100AF000084806F0CDFB26B13046BDE8F05F06F0B1
:100B000066BA31465846BDE8F05F00F051BE0000BD
:100B10004C960120ECC5000870B5446B05460022D8
:100B20001146E06F09F0F9FE0120C4F8A80128463B
:100B3000BDE8704000F01FBF2DE9F0470C460F687C
:100B4000416C00269846496A4FF00109102F8D78B4
:100B500080F0C080DFE807F0082B3D3D3D1BBE3D27
:100B6000533D7186BEBE86AA0122911E07F068FC25
:100B70000028A8BF854274DB584951F820100A7933
:100B800012F0010F1CBF62680A6076D188E06168CC
:100B9000012207F055FC0028A8BF854261DB4F49C0
:100BA00051F82020137913F0200F4ED178E06168BE
:100BB000012207F045FC0028A8BF854251DB4749C8
:100BC00051F820100A7912F0020F54D106F098FF64
:100BD00066E06168012207F033FC0028A8BF854267
:100BE00078DB3E490123BB4051F820104A681A4285
:100BF00041D1A268632A08BF8A6051D13DE0616893
:100C0000012207F01DFC0028A8BF854262DB3349A2
:100C100051F82020938813F4807F41D0A36893601B
:100C200051F8203004F10C025A6151F82010C1F83B
:100C3000108000BF4FF000091FE02849284651F8F6
:100C40002020938813F4806F2AD004F10C035361A1
:100C500051F82020C2F8108051F82010A2688A6054
:100C6000E8E737E01D492846012351F82010BB4032
:100C70004A681A4214D0A2688A6018494FF0010CE1
:100C80000CFA07FC51F82020536823EA0C03536048
:100C900051F82000002109F087F9B9F1000F02D0C6
:100CA000404606F094F93046BDE8F0870B492846E7
:100CB00051F82020938813F4004FF1D004F10C0375
:100CC000536151F82030A2689A6051F82010C1F8A1
:100CD0001080AFE74FF0FF36E2E7000028960120D2
:100CE000002918BF002A04D0426B91F8EA1082F85C
:100CF0009010426B0021C2F8BC1100F03CBE10B550
:100D0000446BE06F0AF0CCF8012084F8AD0010BD10
:100D100010B504460020626BC2F898000748C2680C
:100D20001AB12046BDE810401047084606F04FF9BA
:100D30002046BDE8104000F01EBE00004C96012089
:100D400070B5446B0646A08C38B92088022804D0C0
:100D5000D4F89C00032510B116E0022514E0012010
:100D600060600A48C4F89C00304600F0FEFD41F285
:100D700088330022211D304600F0E2FD6068002823
:100D800002BFA07800280125284670BD6D9000089C
:100D90002DE9F043446B064687B0606F01281CBF05
:100DA00007B0BDE8F08300252F274FF003084FF070
:100DB0003C0900BFCDE904750695CDE90059CDE9A0
:100DC000025800231A461946E06F0AF01BFA48B190
:100DD000022804BF07B0BDE8F0838B21184806F055
:100DE00057FAE7E70121E06F0AF0EFFB48B102286C
:100DF00004BF07B0BDE8F0839C21114806F048FA13
:100E0000F0E700221146E06F09F096FC48B1022895
:100E100004BF07B0BDE8F083B221094806F038FAF4
:100E2000EFE7304609F000F8002812BF022807B0AB
:100E3000BDE8F083C221024806F02AFAF1E700007B
:100E4000A0C5000810B54FF0FF3481F83F201BB15A
:100E500001F042FB18B103E001F078FB00B9002477
:100E6000204610BD2DE9F84F8146446B406C0E467C
:100E70009B46406A0021D0E9077A056CE06F00903C
:100E8000D9F8000008F016FAD4F8A0004FF00008D6
:100E900018B106F09CF8C4F8A080C4F8A0B0C4E96A
:100EA00029686720B84707000AD0D4E9281000292C
:100EB00043D001003FD0007848B1012834D030E061
:100EC000002D4FD04FF0FF310020A8474AE096F8A0
:100ED0002420311DB81DFFF702FAD6F86B003860E8
:100EE000B6F86F00B88096F82400B91D00F80180AC
:100EF00096F86A20002A08BF87F826800BD006F1F2
:100F00002A0107F12600FFF7EAF996F86A0007F1CF
:100F1000260100F80180002D1CBF0021384600D0BA
:100F2000A847C4F8A4800DE0002D1CBF4FF0FF318E
:100F30000020F5D1F5E70DB904E01DB14FF0FF3108
:100F40000020A847D4F8A00006F041F83846C4F8BD
:100F5000A080D047009809F0A3FF94F8AC10009847
:100F60000AF0D9F8D9F80000BDE8F84F08F0FABB4C
:100F700000F0BABB2DE9F04F8246406C3C4DA3B067
:100F8000406A1F46904684780E46DDF8B09055F8CA
:100F90002400DAF834B007F00DFC002818BF4FF039
:100FA000FF3460D155F82400012E467608D1009612
:100FB000D8F80000019038680290D9F8000003903A
:100FC000212106A80096FFF7A3F92F9818B1014632
:100FD00006A8FFF7D6F955F824008C236A46416825
:100FE00041F4806141600A21DBF87C000AF05AFA82
:100FF00040B155F824004FF0FF34416821F480617E
:10100000416030E055F82410002347F2305250463A
:1010100006F01EFD20B123B04FF0FF30BDE8F08F89
:1010200055F82400808810F4806FEBD155F8240027
:101030008168B1F1FF3F1CBF4069012E0DD04168AE
:10104000C8F8001081683960C168C9F800102D998E
:1010500002690A6041692E98016055F8240084688D
:10106000006905F0B4FF23B02046BDE8F08F000012
:1010700028960120F0B50E46416C476B0E48496A30
:1010800083B01C468978154650F8210007F092FB82
:1010900070B9306800902868CDE901040C236A46D5
:1010A0001021F86F0AF0FEF9002804BF03B0F0BD6C
:1010B0004FF0FF3003B0F0BD2896012038B50C4644
:1010C00000210091416C456B0A48496A897850F8C3
:1010D000210007F06FFB48B9009404236A461221EF
:1010E000E86F0AF0DFF9002808BF38BD4FF0FF3085
:1010F00038BD00002896012070B582B000254FF45D
:10110000FA600095ADF80400194C01260DE000BF0F
:10111000606BBDF80410C0F8AC61A06808F05AFA22
:10112000002818BF10F1020F12D1606BC0F8AC514B
:10113000A06B012809D001AB6A460321204600F0CC
:1011400029FF00980028F0D0E2E70AA005F022FB72
:10115000204600F033FEE068002818BF08F04AFA85
:101160004FF0FF31204603F0FBFF02B070BD0000DE
:10117000209401206465696E69740D0A0000000006
:101180002DE9F84F476B406C0E460025406A2C460F
:101190006A46D0F8309091F83C002946C0F3C01858
:1011A000304605F04CFFB0B1009941B18AB218F158
:1011B00000011CBF01460020C8474FF0000A0098FC
:1011C0006A46204484B2681C85B2E9B2304605F014
:1011D00036FF0028E8D1308FA04217D9D7F86C111C
:1011E000001B884203D996210A4806F051F8308F37
:1011F000001B82B2B8F1000F19BF0020D7F874119C
:101200000021D7F87401C8474FF0000A5046BDE8E6
:10121000F88F0000A4C400081FB5406C190082B00C
:10122000406A4FF00004036B08BF6946501CC2B20D
:1012300003A8984706B0204610BDF0B585B000273A
:10124000446B0E460097019702976A46039703F096
:10125000DDFD05003ED13088A0F58070052838D22C
:10126000DFE800F0030C16212C00A06F012831D11B
:101270009DF90610E06F0AF053F82BE09DF8060088
:1012800084F85C009DF9060004F16001475421E0F8
:101290009DF8060084F85D009DF9060004F16002E7
:1012A0000121815416E09DF8060084F85E009DF946
:1012B000061004F16002022088540BE09DF806003D
:1012C00084F85F009DF9061004F160020320885441
:1012D00000E00E2505B02846F0BD00002DE9F74FCF
:1012E000C58DFF270024D0F8288081460E46002DAA
:1012F00017D900BF04EB440000EBC40008EB800BDF
:101300000BF103010622B01DFFF72EF830B39BF856
:101310000200B8423CBF0746A246601CC4B2AC42C1
:10132000E8D3A54284BF03B0BDE8F08FB9F82C0024
:1013300085421FD3F078874224BF03B0BDE8F08F09
:101340000AEB4A0000EBCA00029B08EB800103B0E5
:1013500032464846BDE8F04F06F0BDBF04EB4400FE
:1013600000EBC40008EB800132464846029B06F0C1
:10137000B2FFD6E705EB450000EBC50008EB8001A6
:1013800032464846029B06F0A6FF681CA9F82E00CC
:1013900003B0BDE8F08F2DE9F047456C044600210D
:1013A000686A676BD0E90798866B206807F082FF50
:1013B000206808F0D7F91420C84769790446012944
:1013C0001CBF286810F0400F27D040F001002860B3
:1013D000002E3DD0D4B1002020606060A060E060AD
:1013E0002061B7F8540105F08BF960706879A0703E
:1013F000A879E07007F1B400E0602F3060606530DC
:101400000022206121461046B04725E0B446BDE8E1
:10141000F0470022114610466047286810F0200F60
:1014200016D010F0100F0BD020F0100040F001008B
:10143000286001290CD15EB100221146022006E08D
:1014400040F0040028601EB1002211460320B0477E
:10145000002C08BFBDE8F0872046C446BDE8F04731
:1014600060472DE9F041456C06460F46686A002149
:10147000846B306807F01EFF306808F073F9286845
:1014800010F0010F12D010F0400F07D020F0010033
:1014900028605CB100213A46012006E020F00400FB
:1014A00028601CB100213A460420A047286810F0AB
:1014B000100F08BFBDE8F08120F0100010F0400FC1
:1014C00028600AD0002C08BFBDE8F0813A46A44647
:1014D000BDE8F041002101206047002C08BFBDE8B5
:1014E000F0813A46A446BDE8F0410021042060475F
:1014F0002DE9F047456C04460021686A666BD0E927
:101500000798876B206807F0D5FE206808F02AF955
:101510001420C8470446286810F0010F04BF6979F9
:10152000012929D110F0400F26D040F00100286099
:1015300017B3D4B1002020606060A060E06020613B
:10154000B6F8540105F0DCF860706879A070A879ED
:10155000E07006F1B400E0602F306060653000227A
:10156000206121461046B8470AE0BC46BDE8F04776
:101570000022114610466047002C08BFBDE8F087E6
:101580002046C446BDE8F04760470A68C0F83D20E1
:101590008988A0F8411000F0EEB900002DE9F04173
:1015A000154D074604686868DFF850800026A042A1
:1015B00015D1A4B1032088F800002046FFF7DEF81B
:1015C000204600F0B3F9606807F0A2FDE06807F07C
:1015D0009AFDA06807F097FD2046FFF7B8F8286845
:1015E000002804BF4FF0FF30C5E9000688F800600E
:1015F0003E60BDE8F08100008800002094000020DB
:101600002DE9F047DFF8CC800646894698F80000BF
:1016100018B16621304805F03BFE012088F8000033
:1016200005F02BFC2E4D2D4C00202968B1F1FF3F19
:1016300008BFC5E9000404D04FF48971264805F0BD
:1016400027FE6868C9F8000048212046FEF760FEC2
:10165000244800276664C4E90C702046FFF740F96F
:1016600020B1022808BFBDE8F08711E0204600F055
:10167000CFFB68B907F02AFDE06007F027FDA06006
:10168000204600F045F918B92046FFF70FF998B148
:1016900088F800704FF0FF362046C9F80070FFF759
:1016A0006DF82046FFF753F82868002804BF4FF074
:1016B000FF30C5E9000709E0022088F80000204655
:1016C000FFF766FB060018BFBDE8F0873046BDE8AF
:1016D000F087000094000020F0C40008209401204E
:1016E00088000020689401202DE9F047406C89466D
:1016F0001F46406A1646D0E90718056C67208847E0
:10170000040002D10DB1411EA84767212046FEF713
:10171000FFFDB9F1000F0DD01DB14FF0FF31204694
:10172000A847002C08BFBDE8F0872046C446BDE8A6
:10173000F047604705221CA13846FEF72BFE002823
:1017400004BF002084F8260005D04022394604F169
:101750002600FEF7E8FD3846FEF7F1FD3844471C49
:101760003846FEF7ECFD00281CBF3878012804D06D
:1017700020223946A01DFEF7D6FD30682060B088D3
:10178000A080B07950B1F01DFEF7D9FD30B1B0792D
:1017900084F86600F11DA01DFEF7F3FD002DC0D0FA
:1017A00000212046A847BCE76B6F6E670000000071
:1017B00070B50546406C0C00406A867808BF70BD65
:1017C000084605F0CCFC01680122284606F038FEE8
:1017D000050006D4B54204DC0A4E56F825004168DF
:1017E00021B12046BDE8704005F0F1BBC06821463C
:1017F000001D05F0DFFB56F82500BDE87040002114
:1018000008F0D2BB289601202DE9F0410446406C37
:101810000025406A8078461C002EC8BF204F0EDD90
:1018200057F82500016839B1C068001D05F0AFFB0D
:10183000002818BF05F0CBFB6D1CB542F0DB606BD8
:101840000069012818BFBDE8F0810021206807F079
:1018500031FD04F1100005F09AFB0546208B18B904
:101860000021204600F053FD206807F07BFF6DB19A
:1018700022460C49284605F000FC284605F06BFC82
:101880000A2803DAF221084805F002FD284606F08E
:1018900005FD606B00690128D7D0BDE8F08100002C
:1018A000289601208319000880C600082DE9F04120
:1018B0000446406C0027406A90F8018084F83C7030
:1018C00004F1100005F027FC04F11C0005F023FCD6
:1018D0000025B8F1000F10D94FF4D06005F009FBD6
:1018E000060011D005F033FC314604F1100005F07C
:1018F00061FB681C85B2A845EED8616B01200861C8
:101900000020A763BDE8F0810220BDE8F08100005F
:1019100010B50446044807F0DFFB00280EBF4FF067
:10192000FF306060002010BDF910000810B50121E3
:1019300081638068002818BF07F05CFE002010BD9E
:101940002DE9F041984614460D46074600262868C2
:10195000A04207D04146F86807F03CFE0028F6D0C8
:101960004FF0FF363046BDE8F0818068002808BFA0
:10197000704707F03FBEC068002808BF704707F0F7
:1019800039BE704770B50E4604460068002107F066
:1019900091FC04F1100005F0FAFA0546208B18B905
:1019A0000021204600F0B3FC206807F0DBFE6DB19B
:1019B00022460749284605F060FB284605F0CBFB88
:1019C000B04203DAF221034805F062FC284670BDFC
:1019D0008319000880C6000810B5002000F0E4FE5E
:1019E000002808BF10BDBDE8104003F09EBB2DE9E4
:1019F000F041D0F8348005460F4698F87A0110F08F
:101A0000010403D02146284604F032FB3A8F4FF4FC
:101A10008071284600F066F806001ED197F83C0059
:101A200010F0800F788F09D040F4004041BA0023B5
:101A300001222846FFF7F0FB064606E041BA0023E4
:101A400001222846FFF7E8FB064636B92846394604
:101A5000FFF796FB0646182816D01CB3182E1FD089
:101A60006F6B2146B7F87A010843A7F87A0108425C
:101A700004BF284604F0FCFAB7F87A214FF450610D
:101A8000284600F02FF80DE0B8F87801002140F06A
:101A90000800A8F8780128460A4603F007FB0CB1B5
:101AA000A8F87E413046BDE8F08170B505460020BB
:101AB000106041F44040144641BA002301222846F8
:101AC000FFF7AAFB002818BF70BD234601220021A2
:101AD0002846FFF7A1FB21680A0242EA112189B2D8
:101AE000216070BD70B5054641F48040144641BA8E
:101AF000002301222846FFF78FFB002818BF70BD86
:101B0000200240EA142081B22846BDE8704000233C
:101B10000122FFF781BB00002DE9F04F0646406C23
:101B2000002483B0406A2546C768E7B1022268A155
:101B30003846FEF72FFC002808BF4FF4007512D07E
:101B4000022264A13846FEF725FC002808BF4FF4A6
:101B5000807508D0022260A13846FEF71BFC0028E1
:101B600008BF4FF440755D48416821B13046884751
:101B700003B0BDE8F08F45F00208DFF86491DFF8AC
:101B800064B1594D594F00BF4FF0000A042301AA18
:101B90003946304600F022FB20B140F22E21544855
:101BA00005F076FB5046411C1FFA81FAB0F57A7FAA
:101BB00002D201984845E9D1BAF57A7F04D303B03F
:101BC0004FF0FF30BDE8F08FCDF80480042301AA68
:101BD0004849304600F074FD20B140F25D21444890
:101BE00005F056FB200000F10101CCB208BFDA4637
:101BF0001ED104236A465146304600F0EFFA20B168
:101C000040F2BD113A4805F043FB0098A842F0D1DC
:101C1000DFF8E4A004236A465146304600F0DEFABD
:101C200020B14FF4E371324805F032FB009818B14F
:101C300003B00020BDE8F08F4FF0FF300090042388
:101C40006A465146304600F03BFD20B140F2D111CA
:101C5000274805F01DFB0820009004236A46274909
:101C6000304600F02DFD20B14FF4ED71204805F015
:101C70000FFB2348009004236A462249304600F0B7
:101C80001FFD20B140F2E311194805F001FB0020CF
:101C9000009004236A463946304600F011FD20B119
:101CA0004FF4F671124805F0F3FA80200090C1015C
:101CB00004236A46304600F003FD20B140F2F511DE
:101CC0000B4805F0E5FA0121304603F049FA5BE7DD
:101CD000434E0000555300004A5000004C9601202E
:101CE00080BA8C010C07140004011E007806140051
:101CF00038C600080C06140020071400B4061400AF
:101D000078563412B806140010B5446BFFF77CFD0A
:101D1000D4F8740120B105F098F80020C4F87401DB
:101D2000002010BD2DE9F041446B07464FF4E071EF
:101D30002046FEF7EDFA0025A56025616567A567D9
:101D40000126C4F89450E660C4F8A85084F8D46022
:101D500084F8DC6084F8DD6084F8DE6084F8E0609C
:101D6000C4F84451C4F85851C4F85C514FF002080B
:101D7000C4F8A85184F8AC801120A4F86201F002E4
:101D8000C4F8680120201F21C4E95B0105F069F84F
:101D9000C4F8B051C4F8740184F8365084F8466031
:101DA00084F8568018B9DB21034805F071FA3846EB
:101DB000BDE8F041FFF77ABD38C6000870B50546AA
:101DC000446B03F033FA10A004F0E4FC0021284631
:101DD00003F0CCF90DA004F0DDFC284603F04CF92B
:101DE000E06F002610B109F04FFBE667D4F88000E1
:101DF00018B105F0E9F9C4F88060286807F07EF9A9
:101E00000020A66070BD0000310D0A00320D0A00EE
:101E10002DE9F04387B00546466B07F051F94FF0C6
:101E200001094FF00008286000287CD0284603F004
:101E300067F90121284603F099F9284603F0F0FAE2
:101E4000040071D12846FFF767FE04006CD1686B6F
:101E50004E4F0321C166B96819B12846884704006E
:101E600062D1396819B12846884704005CD1786985
:101E700040B9284609F04BF8C6E91E9005F0A6F9CE
:101E8000C6F88000B86900287AD1284603F0CAF85D
:101E9000040077D16C6BCDF80080CDF814804FF43E
:101EA0008070CDF80880ADF80000CDF80480CDF842
:101EB0000C80CDF810808DF8088069462846FFF721
:101EC000BCF9070055D10498694640F00100049020
:101ED00040F204600590BDF8020020F0030040F0DD
:101EE0000500ADF8020040F20110ADF800002846F0
:101EF000FFF7A3F907003CD14FF48170ADF8000063
:101F000069462846FFF799F9070032D140F20310DD
:101F1000ADF8000069462846FFF78FF9070028D181
:101F20004FF4827001E02AE02CE0ADF80000694631
:101F30002846FFF782F907001BD194F85C0018B916
:101F4000A121134805F0A4F994F85D0018B9A22165
:101F50000F4805F09DF994F85E0018B9A3210C48CC
:101F600005F096F994F85F0018B9A421084805F027
:101F70008FF93C0006D1284603F01EF804460CB940
:101F8000C6E9029807B02046BDE8F0834C960120D0
:101F900038C600082DE9FF5F446B06460520208007
:101FA000706C00259B46406A9046876A94F8A401AD
:101FB000012806D10320208084F8A451304603F084
:101FC000F3FB06202080B4F8780110F4807F23D042
:101FD000D6F834A0D4F89491BAF87E1121B13046E5
:101FE00003F0B6FCAAF87E51B9F1000F1CBFD9F876
:101FF0004420002A0BD0494630469047C4F89451FB
:10200000B4F8780120F48070A4F8780104E040F27C
:102010002111714805F03CF994F8A50168B103203D
:102020002080304603F0E4F81021304603F090FCA5
:10203000304602F04DFF84F8A5510720208001981A
:1020400010F0010F3AD0304600F090F9012835D158
:102050002080A16A3046A56200F030F918B16621EF
:102060005D4805F015F9C4F86451B4F8780110F42E
:10207000807F23D0D6F834A0D4F89491BAF87E119A
:1020800021B1304603F064FCAAF87E51B9F1000F8B
:102090001CBFD9F84420002A0BD04946304690474F
:1020A000C4F89451B4F8780120F48070A4F8780151
:1020B00004E040F22111484805F0EAF808202080A9
:1020C000019810F0020F1BD0304600F08BFA012867
:1020D00016D102202080A08C90B10021306807F03A
:1020E000E9F804F11C0004F052FF8146306807F063
:1020F00039FBB9F1000F03D04946304600F0ACF986
:102100000920208094F8780110F0080F08D1D4F845
:102110009C1029B104202080304688470A20208066
:102120000B202080B8F1000F16D094F8A2010028EF
:1021300019BF2069002894F8A40100280AD1A08CB6
:1021400018B1304600F04EFA20B9B4F8780110F416
:10215000807F1FD0C8F80050AFB3D4F888000028A3
:1021600018BFB847D4F88C0048B1B847D4F88C10E1
:10217000401A42F21071884288BFC4F88C50606FD8
:10218000012801BFD4F88C000028D4F8880000286A
:1021900019D111E00120C8F800006069012801D0C0
:1021A0002580D9E7BBF1000F1CBF3220ABF800003F
:1021B000A069401CA061F3E7E06F08F0DFFE30B1DA
:1021C000B847C4F88C0004B00020BDE8F09FB847C1
:1021D000C4F88800F7E7000020C700082DE9FF4F8A
:1021E000AFB000203299804600299CBF33B0BDE8D3
:1021F000F08F0DF16C0A4FF0300B04262F980290EF
:10220000319808AF00EB08010423002238460096FD
:1022100004F0A3FE02980690309840F27C491CAC72
:1022200001251B901AF805008DF810008DF811009B
:102230008DF812008DF813000423002204A9204613
:10224000009604F08AFE09EB0500A4F83CB0C0F348
:102250000E00608726872146069802F0F3FF90B9AA
:102260006D1C032DDEDD042300221BA920460096F1
:1022700004F073FE1020A087A4F83A902687214628
:10228000069802F0DFFF48B99020B88740F274400A
:1022900078873E873946029802F0D4FF00281CBF99
:1022A00033B0BDE8F08F309908F10408091D309172
:1022B00032998845A2D333B0BDE8F08F70B50C4693
:1022C000054603F0D1FB204604F04BFF02460021F7
:1022D000284603F093F8C0F30E0060878420A0879F
:1022E0002146284603F00CFA84F84000616C00296E
:1022F00008BF70BD696B1828C1F8944108BF70BD54
:10230000B1F8782142F48072A1F8782170BD426B57
:1023100013691161002B0CBF0129704792F8A211BB
:10232000002908BF7047FFF720BB000030B583B01D
:102330000546002000900C466B4601AA284603F093
:10234000AFFB18B11F21084804F0A2FF94F83F002A
:1023500021460028284603D0FEF766FB03B030BDB7
:1023600003F0F8FC03B030BD68C70008F8B5446B53
:1023700007460025B4F8780110F0800F08BF10F46C
:10238000847F43D194F8A20100283FD0206900281F
:1023900004BFA06A002839D001236A464FF4406187
:1023A000384602F0D7FF002830D1009810F0010F16
:1023B00009D00120009000236A464FF4406138465E
:1023C00002F0C8FF10BB94F8620110F0010F1DD09D
:1023D000D4F86401002658B9384602F0C3FF20B192
:1023E0004FF4E4711A4804F053FFD4F8640178B153
:1023F000D4F8840104F5B271062826BF49888842C2
:10240000C4F8646102D3A06A68B101252846F8BD0A
:1024100094F8A2010028F9D084F8A261012138467D
:1024200003F096FAF2E7D4F870010144891D21EA1D
:10243000000021690029E9D081B23846FFF7A2FAED
:10244000A06200281CBF03494164DFD0DDE7000023
:1024500020C700082D23000870B50C460546466BC2
:1024600003F0A8FC98B184F84000616C002908BF13
:1024700070BD696B1828C1F8944108BF70BD00BFDA
:10248000B1F8782142F48072A1F8782170BD20461D
:1024900004F067FE0146B6F87001014421EA00002D
:1024A00086B232460021284602F0A8FFC0F30E0093
:1024B000608726870420A0872146284603F020F95C
:1024C00084F84000616C002908BF70BD696B182852
:1024D000C1F89441D4D170BD2DE9F0410546446B5B
:1024E00019480E4648644FF0FF370621304604F085
:1024F000E5FD28BB304604F034FE0146D4F87001F7
:10250000B4F86820014481438A4228BF012005D2E3
:10251000B1FBF2F042438A4238BF401C86F83E00CD
:102520000021286806F0C6FE314604F11C0004F0C4
:1025300041FD0027286807F015F92846FFF715FA2E
:102540003846BDE8F0810000B92500082DE9F041CA
:102550000546446B17480E4648644FF0FF37062186
:10256000304604F0ABFD10BB304604F0FAFD0146E6
:10257000D4F87001B4F86820014481438A4228BF2E
:10258000012005D2B1FBF2F042438A4238BF401C21
:1025900086F83E000021286806F08CFE314604F1E2
:1025A0001C0004F007FD0027286807F0DBF8384618
:1025B000BDE8F081B925000870B50C46054603F06A
:1025C0007FFB94F83F1029B121462846BDE87040B2
:1025D000FEF79EBBBDE870403821014804F058BEAC
:1025E00068C700082DE9F047446B00278046676103
:1025F000B4F87801B94610F0800F08BF10F4867F58
:1026000058D1E569002D55D095F83F10404604F0AB
:10261000A1F806004ED0284604F0A3FD0146D4F8E8
:102620007001014421EA0000B4F86810884204D91E
:102630004FF4A671214804F02BFEF07A30B995F8DA
:102640003F10404603F09AF9F07A60B32846C4F888
:10265000189004F086FD0146D4F87001014421EA87
:102660000000D4F88811401D884222D9404603F06A
:1026700037F8284604F075FD0146D4F8700101448E
:1026800021EA0000D4F88811401D884211D928465B
:1026900004F067FD0146D4F87001014481434046CF
:1026A00002F09EFF06E02069002804BF012060615F
:1026B00000E001273846BDE8F087000020C7000889
:1026C0002DE9FF4FADB0894600203099074600291B
:1026D0009CBF31B0BDE8F08F0DF1640A4FF0300BB4
:1026E00004242F9806AEC1192D9D042300223046E4
:1026F000009404F032FC1020ADF8540040F2744015
:10270000ADF85200ADF850403146284602F09AFD2F
:10271000002838D102954FF48F68CDF864901AAD37
:102720005FF0010604231AF806008DF80C008DF8FE
:102730000D008DF80E008DF80F00002203A9284629
:10274000009404F00AFC08EB0600A5F83CB0C0F3C6
:102750000E0068872C872946029802F073FD90B915
:10276000761C032EDEDD0423002219A928460094DE
:1027700004F0F3FB1020A887A5F83A802C8729469F
:10278000029802F05FFD00281CBF31B0BDE8F08F59
:102790003F1D309909F104098F42A2D331B0BDE841
:1027A000F08F102000F00CBB034900200A68B2F142
:1027B000FF3F18BF486870478800002002494968F9
:1027C000814218BF0020704788000020F8B500261D
:1027D0000546009608680C46122804D94FF4866115
:1027E0005FA004F02FFD6068401E0F2804D940F25E
:1027F00031415BA004F026FDA06890B1012810D003
:1028000002280ED003280CD004280AD0052808D0AE
:10281000062806D0072804D040F2324150A004F028
:1028200011FD95F83C00012819D0012085F83C00E5
:10283000216807202A68092913D9D3680A3901EBCE
:10284000410188408343D3602078A1680A3800EBB7
:10285000400081402868C2681143C16010E0022036
:10286000F8BD136901EB410188408343136120786F
:10287000A16800EB400081402868026911430161B2
:1028800060681F21072813D22A68536B401E00EB93
:10289000800081408B435363208881B22079401EA1
:1028A00000EB800081402868426B1143416327E0C0
:1028B0002A680D2812D2136BC01F00EB80008140E4
:1028C0008B43136321792088C91F80B201EB8101FA
:1028D000884029680A6B1043086311E0D36A0D38F9
:1028E00000EB800081408B43D362217920880D3931
:1028F00080B201EB810188402968CA6A1043C8622E
:1029000025482968814208D12168122905D1D0F8CB
:10291000041341F48001C0F80413296881421AD1DC
:102920002168102901D0112915D1D0F8041341F4E0
:102930000001C0F80413206810280CD1174818496A
:102940000068B0FBF1F000EB8000400000E0401EAA
:1029500000900028FBD185F83C600020F8BD000005
:102960002E2E2F447269766572732F53544D333275
:10297000463478785F48414C5F4472697665722FBF
:102980005372632F73746D3332663478785F686185
:102990006C5F6164632E630000200140180000201A
:1029A00040420F002DE9F04104007CD06A492068C4
:1029B00088420AD06949884207D06949884204D0D0
:1029C00040F20B1167A004F03DFC606868B1B0F5FF
:1029D000803F0AD0B0F5003F07D0B0F5403F04D0AB
:1029E0004FF486715FA004F02DFC4FF08076A06854
:1029F00077004FF0407850B1B04208D0B84206D0CE
:102A0000404504D040F20D1156A004F01BFC206993
:102A100030B1012804D04FF4877152A004F012FCA9
:102A2000A06930B1012804D040F20F114DA004F08C
:102A300009FC5A4DE06A80B3B0422ED0B8422CD087
:102A400040452AD0B0F1806F27D0B0F1A06F24D0DC
:102A5000B0F1C06F21D0B0F1E06F1ED0B0F1006FC7
:102A60001BD0B0F1106F18D0B0F1206F15D0B0F1BD
:102A7000306F12D0B0F1406F0FD0B0F1506F0CD06A
:102A8000B0F1606F09D0B0F1706F06D0A84204D0E9
:102A90004FF4887133A004F0D5FBE06848B1B0F57D
:102AA000006F06D000E042E040F211112DA004F0CA
:102AB000C9FB206A401E0F2804D94FF4897129A050
:102AC00004F0C0FBE06930B1012804D040F21311DA
:102AD00024A004F0B7FB6069012807D030B10228B8
:102AE00004D04FF48A711FA004F0ACFB606A30B1CF
:102AF000012804D040F215111AA004F0A3FBE06AEB
:102B0000A8420FD0206B68B1B0F1805F0AD0B0F15D
:102B1000005F07D0B0F1405F04D040F2191111A05E
:102B200004F090FB94F83D00002518B107E0012067
:102B3000BDE8F08184F83C50204600F031F80220D6
:102B400084F83D002046FDF765FC3C3465600120BB
:102B5000607025700020EBE700200140002101405B
:102B6000002201402E2E2F447269766572732F5316
:102B7000544D3332463478785F48414C5F44726933
:102B80007665722F5372632F73746D3332663478A7
:102B9000785F68616C5F6164632E63000100000F01
:102BA00000B500680C4987B0884212D10B4800215B
:102BB000026842F480620260006800F48060059060
:102BC000012000900320CDE901016946044800F08E
:102BD00003F907B000BD0000002201404438024064
:102BE000000002402DE9F05FDFF860A10D460446C9
:102BF00050451CD05648844219D05648844216D0BD
:102C00005548844213D05548844210D054488442D9
:102C10000DD0544884420AD05348844207D05348C8
:102C2000844204D04FF4A17151A004F00BFBDFF8F3
:102C30007CE100204FF001094FF00F0B09FA00F181
:102C400005EA01028A427BD1266847000323BB4084
:102C50009E432660C60804EB8606D6F820C04707C8
:102C60004FEAD7680BFA08F72CEA070CC6F820C021
:102C7000A6689E43A66066688E436660E1689943D5
:102C8000E16020F0030373441E6881070F0F0BFA05
:102C900007F10E40544502D14FF0000C39E0DFF847
:102CA000B0C0644502D14FF0010C32E0DFF8A4C09F
:102CB000644502D14FF0020C2BE0DFF89CC0644564
:102CC00002D14FF0030C24E0DFF890C0644502D13C
:102CD0004FF0040C1DE0DFF888C0644502D14FF0CE
:102CE000050C16E0DFF87CC0644502D14FF0060CFD
:102CF0000FE0DFF874C0644502D14FF0070C08E024
:102D0000DFF868C0644502D14FF0080C01E04FF0D5
:102D1000090C0CFA07FCB44512D11E688E431E60E4
:102D200023490B6893430B60091D0B6893430B60A9
:102D3000091D0B6893430B60091D0B6893430B60DF
:102D4000401C1028FFF47AAFBDE8F09F000002405D
:102D50000004024000080240000C02400010024043
:102D60000014024000180240001C024000200240F3
:102D70002E2E2F447269766572732F53544D333261
:102D8000463478785F48414C5F4472697665722FAB
:102D90005372632F73746D3332663478785F686171
:102DA0006C5F6770696F2E63000000000838014097
:102DB000003C0140102801D1FEF70EBE7047000014
:102DC000044910B50A68024202D00860FFF7F2FF1A
:102DD00010BD0000143C01402DE9F84F0446A14805
:102DE0000D4684421BD0A048844218D09F4884429C
:102DF00015D09F48844212D09E4884420FD09E48EE
:102E000084420CD09D48844209D09D48844206D01B
:102E10009C48844203D0C5219BA004F013FA288863
:102E20000004000C03D1C62197A004F00BFA6868D7
:102E3000F8B101281DD011281BD0022819D0122862
:102E400017D0A049884214D09F49884211D09F4989
:102E500088420ED09E4988420BD09E49884208D0B5
:102E60009D49884205D0032803D0C72186A004F0DD
:102E7000E9F9A86838B1012805D0022803D0C82193
:102E800081A004F0DFF900264FF0010B0BFA06F0E9
:102E90002F688246074057457DD16868022801D0D7
:102EA00012282ED12869F8B109281DD001281BD07D
:102EB000022819D0032817D0042815D0052813D0CC
:102EC000062811D007280FD008280DD00A280BD0CB
:102ED0000B2809D00C2807D00D2805D00F2803D0C7
:102EE000D92169A004F0AEF9F00804EB8002106A61
:102EF0007107CB0E0F2199408843296999400143FE
:102F0000116220687200032101FA02F929799046C2
:102F100001F0030120EA090001FA08F101432160F0
:102F20006868012805D0022803D0112801D0122892
:102F30001DD1E86848B1012807D0022805D0032830
:102F400003D0EC2150A004F07DF9A068E96820EAE4
:102F5000090001FA08F10143A1606068297920EABB
:102F60000A00C1F3001101FA06F101436160E16852
:102F7000A86821EA090100FA08F00843E0606868DF
:102F8000C00069D55548016841F48041016000687E
:102F900000F4804000E05FE00090514826F003011B
:102FA0000A181068B1070B0F0F21994088432D496B
:102FB0008C4201D1002128E02B498C4201D1012112
:102FC00023E02A498C4201D102211EE028498C428B
:102FD00001D1032119E027498C4201D1042114E0D9
:102FE00025498C4201D105210FE024498C4201D1B1
:102FF00006210AE022498C4201D1072105E021493E
:103000008C4201D1082100E0092101FA03F10143BA
:103010001160344908686A68B843D20300D5384360
:1030200008603049091D08686A68B843920300D5F2
:10303000384308602B49083108686A68B843D202EF
:1030400000D53843086027490C3108686A68B843DE
:10305000920200D538430860761C102EFFF416AF9C
:10306000BDE8F88F00000240000402400008024062
:10307000000C024000100240001402400018024000
:10308000001C0240002002402E2E2F4472697665FB
:1030900072732F53544D3332463478785F48414C25
:1030A0005F4472697665722F5372632F73746D3348
:1030B00032663478785F68616C5F6770696F2E6321
:1030C000000000000000111000002110000031106D
:1030D000000012100000221000003210443802409C
:1030E00008380140003C014070B515460C0006460A
:1030F00004D140F2B11108A004F0A4F845B1012DAB
:1031000004D04FF4D97104A004F09CF8B46170BDF0
:103110002004B06170BD00002E2E2F4472697665C8
:1031200072732F53544D3332463478785F48414C94
:103130005F4472697665722F5372632F73746D33B7
:1031400032663478785F68616C5F6770696F2E6390
:103150000000000001480068704700001C000020CB
:103160000B4810B5016841F400710160016841F439
:1031700080610160016841F480710160032000F00A
:10318000A7F80F2000F006F800F015F8002010BD99
:10319000003C024010B5044600F08AFA4FF47A7100
:1031A000B0FBF1F000F0FCFF00222146501E00F0C1
:1031B0003FF8002010BD10B5032000F089F8002270
:1031C0000F21BDE81040501E00F032B810B5041EAB
:1031D00003DAD02107A004F035F804F01F01012024
:1031E000884061094FF0E02202EB8101C1F8000143
:1031F00010BD00002E2E2F447269766572732F5316
:10320000544D3332463478785F48414C5F4472699C
:103210007665722F5372632F73746D333266347810
:10322000785F68616C5F636F727465782E6300000D
:1032300070B515460C460646102A03D3BC2114A0CF
:1032400004F000F8102C03D3BD2111A003F0FAFF05
:103250001E480068C0F30223C3F107022046042A77
:1032600000D90422191D072901D2002300E0DB1E2A
:10327000012404FA02F1491E014099409C40641E59
:103280002C4021433046BDE8704002F015BF0000DD
:103290002E2E2F447269766572732F53544D33323C
:1032A000463478785F48414C5F4472697665722F86
:1032B0005372632F73746D3332663478785F68614C
:1032C0006C5F636F727465782E6300000CED00E034
:1032D00010B5044607280BD0062C09D0052C07D0C2
:1032E000042C05D0032C03D0A42108A003F0AAFFCE
:1032F000154904F0070208684FF6FF03184040EA3A
:103300000220124A1043086010BD00002E2E2F44E8
:103310007269766572732F53544D33324634787820
:103320005F48414C5F4472697665722F5372632F18
:1033300073746D3332663478785F68616C5F636F85
:10334000727465782E6300000CED00E00000FA0551
:103350002DE9F05F044600680E46401E0E2804D991
:1033600040F24F21C2A003F06DFF96B1012E10D0A4
:10337000022E0ED0032E0CD0042E0AD0052E08D01B
:10338000062E06D0072E04D04FF41471B8A003F017
:1033900059FFDFF814A3DAF80000DFF8108300F01B
:1033A0000F01F0B2C14F814641F2883508F108089B
:1033B000B14276D201468AF80010DAF8000000F037
:1033C0000F00B0426ED1207880071ED5A068A0B152
:1033D000802812D0902810D0A0280ED0B0280CD071
:1033E000C0280AD0D02808D0E02806D0F02804D081
:1033F00040F266219EA003F025FFD8F80010A268D5
:1034000021F0F0011143C8F800102078C0073BD02C
:10341000606888B1012827D0022828D0032826D048
:1034200040F26D2192A003F00DFF606801281BD0CF
:1034300002281CD003281AD038688007002831DA07
:10344000D8F800004646616820F003000843C8F839
:103450000000FFF77FFE0746606801280FD00228B2
:1034600019D003281FD02AE038688003E6E73868BF
:103470008001E3E7FFF76EFEC01BA8427ED83068EC
:10348000C0F381000128F5D1AFE000BFFFF762FE75
:10349000C01BA84272D83068C0F381000228F5D161
:1034A000A3E011E097E03068FFF754FEC01BA8428C
:1034B000F9D963E0FFF74EFEC01BA8425ED8306822
:1034C00010F00C0FF6D190E0207880071ED5A06890
:1034D000A0B1802812D0902810D0A0280ED0B028FB
:1034E0000CD0C0280AD0D02808D0E02806D0F02878
:1034F00004D04FF430715EA003F0A4FED8F80010A1
:10350000A26821F0F0011143C8F800102078C0072C
:1035100059D0606888B1012833D0022834D00328FC
:1035200032D040F2C72152A003F08CFE606801281F
:1035300027D0022828D0032826D038688007002802
:1035400049DAD8F80010626821F003011143C8F885
:103550000010FFF7FFFD0746606801281ED0022813
:103560002AD0032839D0AB464546286810F00C0F06
:1035700029D0FFF7EFFDC11B5945F6D90320BDE85F
:10358000F09F38688003DAE738688001D7E700BF2A
:10359000FFF7E0FDC11B594502D9EFE7AB464546B1
:1035A0002868C0F381000128F2D10CE0FFF7D2FDBA
:1035B000C11B594502D9E1E7AB4645462868C0F32F
:1035C00081000228F2D18AF80090DAF8000000F0B9
:1035D0000F00B04209D00120D1E744462068FFF730
:1035E000B9FDC01BA842F9D9C8E720784FF480552F
:1035F00040074FF4A0564FF4C0574FF4E05916D58A
:10360000E06860B1A8420AD0B04208D0B84206D003
:10361000484504D040F2213115A003F013FED8F83C
:103620000010E26821F4E0511143C8F8001020783E
:10363000000717D5206960B1A8420AD0B04208D06F
:10364000B84206D0484504D04FF44A7108A003F0B0
:10365000F9FDD8F80010226921F4604141EAC20165
:10366000C8F800100F20FFF795FD002087E7000045
:103670002E2E2F447269766572732F53544D333258
:10368000463478785F48414C5F4472697665722FA2
:103690005372632F73746D3332663478785F686168
:1036A0006C5F7263632E6300003C0240003802408E
:1036B00010B500F043F808490968F02292FAA2F226
:1036C00001F0F001B2FA82F2D140044A515CC840E4
:1036D0000349086010BD00000838024030C40008EB
:1036E0001800002010B5FFF7E3FF074909684FF401
:1036F000E05292FAA2F201F4E051B2FA82F2D14021
:10370000024A515CC84010BD0838024030C400086D
:1037100010B5FFF7CDFF074909684FF4604292FAF0
:10372000A2F201F46041B2FA82F2D140024A515C45
:10373000C84010BD0838024030C4000830B51948F0
:10374000006810F00C01184812D0441004290ED063
:1037500008290DD11349091F0A6802F03F030A68BE
:10376000550247F6C07204D5B4FBF3F003E02046DF
:1037700030BDB0FBF3F00B680968134092FAA2F277
:10378000B2FA82F2D34058434FF4403292FAA2F296
:1037900001F44031B2FA82F2D140491C4900B0FB39
:1037A000F1F030BD083802400024F4002DE9F84F54
:1037B000044600680F2803D9EF21F4A003F042FD6E
:1037C0002078DFF80084C0074FF00006FE4D53D08C
:1037D000606838B1012805D0052803D0F421EBA09A
:1037E00003F030FDD8F800104046C1F381010129F3
:1037F00009D00068C0F3810002280BD1F148001FF6
:103800000068400206D52868800335D56068002826
:103810007ED031E0DFF8B09309F1020989F8006049
:10382000FFF798FC074604E0FFF794FCC01B6428F0
:103830006FD828688003F7D4207989F80000606881
:1038400068B1FFF787FC074605E000BFFFF782FC81
:10385000C01B6428ECD828688003F7D50CE0FFF77C
:1038600079FC074605E000BFFFF774FCC01B642825
:10387000DED828688003F7D42078D44F80074FF033
:10388000010B58D5E06830B1012804D040F2351161
:10389000BEA003F0D7FC20691F2804D94FF49B7108
:1038A000BAA003F0CFFCD8F80010404611F00C0F7E
:1038B0004FF0F80A09D00068C0F3810002280BD14C
:1038C000C048001F0068400206D42868800714D54D
:1038D000E06801281CD110E0E068E8B1C7F800B04A
:1038E000FFF738FC814605E0FFF734FCA0EB090048
:1038F00064289DD828688007F6D528689AFAAAF225
:103900002169B2FA82F220F0F8009140084301E008
:1039100033E170E128600EE03E60FFF71BFC81465A
:1039200006E000BFFFF716FCA0EB0900642891D861
:1039300028688007F6D42078000733D5DFF884A202
:10394000DFF88C9260690AF16C0AD0B1012806D0C8
:103950004FF4BB718DA003F075FC606988B1C9F8A4
:1039600000B0FFF7F7FB814606E000BFFFF7F2FB70
:10397000A0EB09006428BCD8DAF800008007F5D570
:1039800010E0C9F80060FFF7E5FB814606E000BFE4
:10399000FFF7E0FBA0EB09006428AAD8DAF80000E2
:1039A0008007F5D42078400764D5A06840B101288D
:1039B00006D0052804D04FF4D07174A003F042FC67
:1039C00080483830016841F0805101600068DFF8BC
:1039D00004A200F080500090DAF8001041F48071E9
:1039E000CAF80010FFF7B6FB814605E0FFF7B2FB0F
:1039F000A0EB090064289AD8DAF80000C005F5D5D4
:103A0000DFF8C09109F1680989F80060FFF7A2FBAF
:103A100041F2883A009005E0FFF79CFB0099411ABB
:103A2000514584D8D9F800008007F5D4207A89F868
:103A30000000A06878B1FFF78DFB009006E000BFA2
:103A4000FFF788FB0099411A514594D8D9F8000036
:103A50008007F5D50EE0FFF77DFB009006E000BF84
:103A6000FFF778FB0099411A514584D8D9F8000036
:103A70008007F5D4A06900287ED0012809D002284B
:103A800007D04FF4F27141A003F0DCFBA0690028DD
:103A9000F2D0D8F80000C0F3810002286DD0A069F0
:103AA000022804D03E66FFF755FB0446A6E0E06915
:103AB00038B1B0F5800F04D040F2ED1133A003F01F
:103AC000C1FB206A3F2804D94FF4F7712FA003F0FF
:103AD000B9FB606A3238B0F5BF7F04D940F2EF110C
:103AE0002AA003F0AFFBA06A02280AD0042808D05D
:103AF000062806D0082804D04FF4F87123A003F05C
:103B0000A1FBE06A001F0B2804D940F2F1111FA0AD
:103B100003F098FB3E66FFF71DFB064605E000BF7D
:103B2000FFF718FB801B642865D828688001F7D44C
:103B3000D4E90701084347F6C07292FAA2F2616A1B
:103B4000B2FA82F29140A26A4FF0FF3303EB5202C5
:103B50004FF4403393FAA3F3B3FA83F39A4011433B
:103B600008434FF0706292FAA2F2E16AB2FA82F26E
:103B700091400843134901E043E044E0091F086015
:103B8000C7F860B0FFF7E6FA04462AE02E2E2F446D
:103B90007269766572732F53544D33324634787898
:103BA0005F48414C5F4472697665722F5372632F90
:103BB00073746D3332663478785F68616C5F7263FA
:103BC000632E63000838024000380240000047427C
:103BD000800E474200700040FFF7BCFA001B6428CB
:103BE00009D828688001F7D50BE000BFFFF7B2FACB
:103BF000001B642802D90320BDE8F88F28688001E3
:103C0000F4D40020F8E70120F6E710B504000DD049
:103C10002068016821F040010160204600F0D8F8DA
:103C20000020503460606070207010BD012010BD15
:103C300070B5040076D0606830B1B0F5827F03D0F3
:103C4000B82155A003F0FEFAA06848B1B0F5806F26
:103C500006D0B0F5004F03D0B9214FA003F0F2FA1F
:103C6000E068B0F5006F04D018B1BA214AA003F0A3
:103C7000E9FA206928B1022803D0BB2146A003F04D
:103C8000E1FA606928B1012803D0BC2142A003F009
:103C9000D9FAA069B0F5007F07D030B1B0F5802F18
:103CA00003D0BD213CA003F0CDFAE06988B108281B
:103CB0000FD010280DD018280BD0202809D0282884
:103CC00007D0302805D0382803D0BE2132A003F019
:103CD000B9FA206A28B1802803D0BF212EA003F0B2
:103CE000B1FA606A28B1102803D0C0212AA003F0DD
:103CF000A9FAA06A30B1B0F5005F03D0C12126A0B7
:103D000003F0A0FAE06A4FF6FE71401E884203D924
:103D1000C22121A003F096FA94F85100002518B1B1
:103D200007E0FFE7012070BD84F85050204600F006
:103D300063F8022084F851002068016821F04001F6
:103D40000160D4E901010843D4E903121143084397
:103D500061690843218B01F400710843E16908435C
:103D6000216A0843A16A084321680860A069042108
:103D700001EA1040616A0843216848602168E06AEE
:103D800008612068C16921F40061C1616565012095
:103D900084F85100002070BD2E2E2F447269766584
:103DA00072732F53544D3332463478785F48414C08
:103DB0005F4472697665722F5372632F73746D332B
:103DC00032663478785F68616C5F7370692E630067
:103DD00000680649884208D10548016821F48051ED
:103DE0000160E0210348FEF7FDBE7047003001404E
:103DF000443802400000024000B500680D4987B019
:103E0000884215D10C48016841F480510160006876
:103E1000012100F480500590E02000900220CDE9BF
:103E2000010103900520049069460448FEF7D4FF81
:103E300007B000BD0030014044380240000002409D
:103E40002DE9F84F044690F85100DDF828A01D46F2
:103E500017468846012801D0222872D1B8F1000FF8
:103E600015D0A7B19DB1A06820B14FF42771A5A0CE
:103E700003F0E8F994F85000012862D04FF00109EE
:103E800084F8509094F85100012803D005E00120F7
:103E9000BDE8F88F322084F8510000266665A763DC
:103EA000A587E587C4F83080A586E586A664E66424
:103EB000A06A4FF40055A84209D12068016821F496
:103EC000005101602068016841F4005101602068E0
:103ED0000168490603D4016841F040010160E068CF
:103EE0004FF48271B0F5006F606807D0002866D08B
:103EF00088426DD1E08E012861D069E020B188420E
:103F00000CD1E08E012809D1206B21680088C8609F
:103F1000206B801C2063E08E401EE086E08E88B916
:103F2000A06AA84243D12068016841F48051016031
:103F30003DE02068C068A16B0880A06B801CA06376
:103F40009DE0DDE0534600220221204602F0C4F845
:103F5000002871D1206B21680088C860206B801C0C
:103F60002063E08E401E0004000CE08607D1A06AAA
:103F7000A84204D12068016841F480510160534691
:103F800000220121204602F0A7F800286FD1206806
:103F9000C068A16B0880A06B801CA063E08F401EEE
:103FA000E087E08E0028CDD1606800286AD15346B2
:103FB00000220121204602F08FF8E8BBB9E7206B10
:103FC000411C216321680078C860E08E401EE086B5
:103FD000E08E98B9A06AA84204D12068016841F433
:103FE00080510160534600220121204602F074F8FE
:103FF00010BB2068C068A16B087040E053460022E7
:104000000221204602F068F8B0B9206B411C216300
:1040100021680078C860E08E401E0004000CE08635
:1040200007D1A06AA84204D12068016841F48051F8
:1040300001605346002200E019E00121204602F011
:104040004BF8A0B92068C168A06B421CA263017044
:10405000E08F401EE087E08E0028CFD1606888B9ED
:10406000534600220121204602F036F808B1032011
:104070000EE72068C168A06B421CA2630170E08F4C
:10408000401EE087A06AA84210D1534600220121B9
:10409000204602F021F818B1606D40F002000FE0F8
:1040A0002068C068ADF80000BDF80000534601224A
:1040B0008021204602F010F820B1606D40F0200011
:1040C0006065D4E784F8519020688168A26AC1F3E2
:1040D0000011AA4210D179B1616D41F00201616510
:1040E000016821F4005101602068016841F4005129
:1040F000016084F85060CAE684F850600020C7E68A
:104100000220C5E62E2E2F447269766572732F53F6
:10411000544D3332463478785F48414C5F4472697D
:104120007665722F5372632F73746D3332663478F1
:10413000785F68616C5F7370692E630010B54FF033
:10414000E024042809D020B140F2B31105A003F007
:1041500079F8206920F0040002E0206940F00400B2
:10416000206110BD2E2E2F447269766572732F5315
:10417000544D3332463478785F48414C5F4472691D
:104180007665722F5372632F73746D333266347891
:10419000785F68616C5F636F727465782E6300008E
:1041A00010B5401EB0F1807F01D3012010BD4FF04B
:1041B000E02460610F21601701F07EFF0020A06104
:1041C00007202061002010BD7047704770B50D4674
:1041D00004460068334988421FD0B0F1804F1CD09C
:1041E0003149884219D03149884216D03049884235
:1041F00013D03049884210D02F4988420DD02F4922
:1042000088420AD02E49884207D02E49884204D0DD
:104210004FF4CB612CA003F015F8286890B110285A
:1042200010D020280ED030280CD040280AD050289A
:1042300008D0602806D0702804D040F2596122A02E
:1042400003F000F86868802805D020B140F25A6178
:104250001DA002F0F7FF94F8380001281FD00120BC
:1042600084F83800022184F8391021684A6822F065
:1042700070024A6021684A682B681A434A602168C4
:104280008A6822F080028A6021688A686B681A4313
:104290008A6084F83900002084F8380070BD02205C
:1042A00070BD000000000140000400400008004014
:1042B000000C0040001000400014004000040140C9
:1042C00000400140001800402E2E2F447269766590
:1042D00072732F53544D3332463478785F48414CD3
:1042E0005F4472697665722F5372632F73746D33F6
:1042F00032663478785F68616C5F74696D5F657889
:104300002E63000010B504004CD030482268824271
:104310002AD0B2F1804F27D02D48824224D02D4898
:10432000824221D02C4882421ED02C4882421BD08F
:104330002B48824218D02B48824215D02A4882420C
:1043400012D02A4882420FD0294882420CD02948F4
:10435000824209D02848824206D02848824203D0AF
:10436000D92127A002F06EFFA06858B1102809D00B
:10437000202807D0402805D0602803D0DA2120A0CB
:1043800002F060FF206948B1B0F5807F06D0B0F53B
:10439000007F03D0DB211AA002F054FF94F839000B
:1043A00010B107E0012010BD002084F8380020463D
:1043B00000F042F8022084F83900211D206801F045
:1043C000B9FF012084F83900002010BD0000014031
:1043D0000004004000080040000C004000100040B5
:1043E000001400400004014000400140004401402E
:1043F0000048014000180040001C00400020004020
:104400002E2E2F447269766572732F53544D3332BA
:10441000463478785F48414C5F4472697665722F04
:104420005372632F73746D3332663478785F6861CA
:104430006C5F74696D2E630008B500680B49884293
:1044400012D10B48016841F00201016000680022AE
:1044500000F00200009005211D20FEF7E9FEBDE8F6
:1044600008401D20FEF7B2BE08BD00000004004059
:104470004038024010B5044601681D4881422BD0E7
:10448000B1F1804F28D01B48814225D01A48814283
:1044900022D01A4881421FD0194881421CD01948A5
:1044A000814219D01848814216D01848814213D051
:1044B0001748814210D0174881420DD016488142DA
:1044C0000AD01648814207D01548814204D04FF4E3
:1044D000B27114A002F0B6FE2068C16841F001017B
:1044E000C1602068016841F001010160002010BD39
:1044F000000001400004004000080040000C0040A3
:104500000010004000140040000401400040014041
:10451000004401400048014000180040001C0040D9
:10452000002000402E2E2F447269766572732F533F
:10453000544D3332463478785F48414C5F44726959
:104540007665722F5372632F73746D3332663478CD
:10455000785F68616C5F74696D2E63002DE9F05FB0
:10456000044690F838000D46012844D0012084F814
:104570003800022084F839002868B0F5805F16D032
:10458000B0F5005F13D090B1102810D020280ED0C5
:1045900030280CD040280AD0502808D0602806D0F7
:1045A000702804D040F66D71F4A002F04BFE206834
:1045B000816821F0770121F47F4181602868FD49FD
:1045C000FD4AFE4BFE4EFF4FDFF8FC83DFF8FCB3E5
:1045D000DFF8FCE3DFF8FC934FF0804C4FF4004A27
:1045E00050287DD00FDC20287BD007DC002879D034
:1045F000102878D196E10220BDE8F09F302873D0D2
:104600004028F6D138E160286FD070287AD0B0F514
:10461000805F44D04FF400584045EAD1206888427A
:104620000ED060450CD090420AD0984208D0B042DB
:1046300006D0B84204D040F69A71D0A002F002FE33
:104640006868504509D040B1022806D00A2804D035
:1046500040F69C71C9A002F0F5FDA86860B1B0F504
:10466000805F09D0404507D0B0F5405F04D040F6E8
:104670009D71C2A002F0E6FDE8680F2804D940F65B
:104680009E71BEA002F0DEFDD5E90121EB68206835
:1046900001F0B0FE2068816841F4804173E0206839
:1046A00088422AD0604528D0904226D0984224D013
:1046B000B04222D0C84988421FD0C84988421CD085
:1046C000B8421AD0404518D0584516D0704514D07D
:1046D000484512D0C24988420FD0C249884206E0FC
:1046E00053E038E105E1C1E087E18BE00AE004D066
:1046F00040F67971A1A002F0A5FD2068816821F043
:10470000070140E0206888420ED060450CD09042FE
:104710000AD0984208D0B04206D0B84204D040F641
:10472000827196A002F08EFD6868504509D040B1B4
:10473000022806D00A2804D040F684718FA002F027
:1047400081FDA86868B1B0F5805F0AD0B0F5005F60
:1047500007D0B0F5405F04D040F6857187A002F025
:1047600071FDE8680F2804D940F6867183A002F035
:1047700069FDD5E90121EB68206801F03BFE206866
:10478000816841F07701816070E0206888421CD028
:1047900060451AD0904218D0984216D0B04214D03A
:1047A000B84212D0404510D058450ED070450CD0BC
:1047B00048450AD08A49884207D08A49884204D0AD
:1047C00040F6AC716DA002F03DFD6868504509D01F
:1047D00040B1022806D00A2804D040F6AF7167A085
:1047E00002F030FDE8680F2804D94FF47B6163A024
:1047F00002F028FDEA686968206801F00DFE50218A
:10480000206831E02068884212D0604510D0904284
:104810000ED098420CD0B0420AD0B84208D04045E1
:1048200006D0484504D040F6BA7154A002F00AFD03
:104830006868504509D040B1022806D00A2804D043
:1048400040F6BD714DA002F0FDFCE8680F2804D9C8
:1048500040F6BE7149A002F0F5FCEA68696820687C
:1048600001F0EBFD6021206801F0CEFD012038341D
:10487000607000202070BFE6206888421CD0604530
:104880001AD0904218D0984216D0B04214D0B842F4
:1048900012D0404510D058450ED070450CD0484538
:1048A0000AD04F49884207D04E49884204D040F68A
:1048B000C87132A002F0C6FC6868504509D040B10A
:1048C000022806D00A2804D040F6CB712BA002F0B3
:1048D000B9FCE8680F2804D940F6CC7127A002F093
:1048E000B1FCEA686968206801F096FD4021206803
:1048F000BAE72068884212D0604510D090420ED0AE
:1049000098420CD0B0420AD0B84208D0404506D0F8
:10491000484504D040F6D67118A002F093FC00215F
:104920002068A1E72068884212D0604510D09042EC
:104930000ED098420CD0B0420AD0B84208D04045C0
:1049400006D0484504D040F6DC710CA002F07AFC99
:104950001021206888E7206888424BD0604549D004
:10496000904247D0984245D0B04243D0B84241D05F
:1049700040453FD048453DD036E000002E2E2F4424
:104980007269766572732F53544D3332463478789A
:104990005F48414C5F4472697665722F5372632F92
:1049A00073746D3332663478785F68616C5F7469F4
:1049B0006D2E63000000014000040040000800402C
:1049C000000C004000040140004001400044014050
:1049D0000048014000180040001000400014004052
:1049E000001C00400020004040F6E271AFF274006D
:1049F00002F028FC2021206836E72068884213D086
:104A0000604511D090420FD098420DD0B0420BD0EB
:104A1000B84209D0404507D0484505D040F6E87176
:104A2000AFF2A80002F00EFC302120681CE77047AE
:104A300070B50446006801694FF00005C943890755
:104A400015D4C168C943890711D4E91E0161012049
:104A50002076206880698007204602D0FFF7E7FFB4
:104A600004E000F098F8204600F096F825762068DB
:104A70000169C943490717D4C168C943490713D419
:104A80006FF004010161022020762068806910F433
:104A9000407F204602D0FFF7CAFF04E000F07BF819
:104AA000204600F079F8257620680169C943090796
:104AB00016D4C168C943090712D46FF00801016117
:104AC000042020762068C0698007204602D0FFF7C6
:104AD000AEFF04E000F05FF8204600F05DF82576B8
:104AE00020680169C943C90617D4C168C943C9060A
:104AF00013D46FF010010161082020762068C0698E
:104B000010F4407F204602D0FFF791FF04E000F050
:104B100042F8204600F040F8257620680169C94334
:104B2000C90708D1C168C943C90704D1891E0161F9
:104B3000204600F033F820680169C943090609D40A
:104B4000C168C943090605D46FF0800101612046A0
:104B5000FFF73AFB20680169C943490609D4C168D7
:104B6000C943490605D46FF040010161204600F0B9
:104B70001DF820680169C94389060BD4C168C9437F
:104B8000890607D46FF0200101612046BDE870401E
:104B9000FFF71BBB70BD70477047000002480168FB
:104BA000491C01607047000014000020704700009D
:104BB00070B5040021D0A06939490028394A3A4B20
:104BC0003A4D20681BD088420BD0904209D09842C1
:104BD00007D0A84205D0FC2135A002F033FBA06924
:104BE00000B3A069B0F5807F1CD0B0F5007F19D06C
:104BF000B0F5407F16D0FD2111E0012070BD884244
:104C000010D090420ED098420CD03849884209D03A
:104C10003749884206D0A84204D040F2011124A0AE
:104C200002F010FBA06838B1B0F5805F04D040F20C
:104C300003111FA002F006FBE06938B1B0F5004F88
:104C400004D04FF482711AA002F0FCFA94F83900F3
:104C5000002520B984F83850204600F04BF8022097
:104C600084F839002068C16821F40051C1602046F1
:104C700001F0F6FB2068016921F490410161206890
:104C8000416921F02A0141612068C16841F4005165
:104C9000C160E563012084F83900002070BD000088
:104CA0000010014000440040004800400014014052
:104CB0002E2E2F447269766572732F53544D333202
:104CC000463478785F48414C5F4472697665722F4C
:104CD0005372632F73746D3332663478785F686112
:104CE0006C5F756172742E6300000000004C004020
:104CF0000050004000B500680E4987B0884217D1C7
:104D00000D48016841F0100101600068694600F03B
:104D1000100005904FF4C060009002200190012027
:104D2000029003200390072004900448FEF754F8F3
:104D300007B000BD001001404438024000000240AE
:104D40002DE9F047044690F8390099460D460128B0
:104D500001D0222858D12DB322B394F8380001286D
:104D600052D0012684F838600027E76394F83900B0
:104D700022281AD05FF0120084F83900A284E2845D
:104D80004FF48058E08C4B46401EE084A0684FF002
:104D9000000240454FF08001204613D101F066FC2F
:104DA00008BB04E00120BDE8F0873220E4E7288852
:104DB0002168C0F308004860206908B16D1C08E054
:104DC000AD1C06E001F052FC68B9216815F8010B32
:104DD0004860E08C0028D5D14B4600224021204677
:104DE00001F044FC08B10320DDE794F839003228D3
:104DF00006D084F8396000BF84F838700020D2E70C
:104E0000222084F83900F7E70220CCE770B584B09F
:104E1000064606208DF8040000200D460290098801
:104E20001446012904BF8DF804004FF480702DD082
:104E30002549D1F800C0BCF1000F08D002A80090AD
:104E400001AB29463046E04708B304B070BD20737B
:104E50002888A0F5807141F23000052917D2DFE8DB
:104E600001F003090E13190001208DF8040040F22F
:104E700006600BE002218DF80410029007E0032188
:104E80008DF80410029002E0042104E002900298E0
:104E900048B903E005218DF80410F7E74FF41571C8
:104EA0000A4802F0F5F99DF9040081B2304601F09C
:104EB00051FC298841809DF80410A1710299A160DC
:104EC000018004B0002070BD68960120145D0008C8
:104ED0002DE9F04194B04FF00408446B054602AE52
:104EE0004346002201A93046CDF8008002F035F893
:104EF00094F8B40100281CBF14B0BDE8F08101276C
:104F000084F8B4719020ADF8440040F22440ADF82C
:104F10004200ADF840803146284600F093F918B1C0
:104F2000CD2115A002F0B4F99DF80700A4F86600A1
:104F3000686B002190F8662080F8377080F8387030
:104F400080F8351080F83410016380F8477080F8DD
:104F5000487080F8451080F84410921E016480F873
:104F6000572080F8582080F8551080F854100165BB
:104F700014B0BDE8F08100002E2E5C2E2E5C627312
:104F8000705F61746865726F735F776966695C737F
:104F900072635C61746865726F735F776966695C80
:104FA000636F6D6D6F6E5F7372635C6874635C6872
:104FB00074632E630000000070B5416B0646012546
:104FC00091F86600002481F8375081F8385081F854
:104FD000354081F834400C6381F8475081F84850DF
:104FE00081F8454081F84440801E0C6481F85700E8
:104FF00081F8580081F85540094881F854400C6503
:10500000416819B130468847040006D10121304675
:1050100000F09EFC706BC0F8B051204670BD0000DF
:105020006896012010B513490446406B89688AB020
:1050300021B12046884740B10AB010BD0621A0F832
:1050400066104FF4D061A0F8681000200090019025
:1050500002900390049005900690079008900990A4
:105060000120ADF8000006AA69462046FFF7CEFEF3
:105070000AB010BD6896012010B5044607A001F0E3
:1050800089FB606C406A446905A0214601F082FBFF
:10509000A047BDE8104004A001F07CBB330D0A001E
:1050A000307825700D0A0000340D0A002DE9F0411A
:1050B0000546446B406C17008846406AC66A03D1B7
:1050C0000021286804F0F6F894F8A301B8F1000F65
:1050D0000FD028B9012084F8A30108F0FF00B047E1
:1050E000002F18BFBDE8F0812868BDE8F04104F04A
:1050F00039BB012804BF002084F8A301F0D1EEE7FA
:1051000010B5446B406C406A00698047C4F89C014C
:105110000120C4F89801C12084F8A00194F8A101ED
:1051200040F0020084F8A10110BD002808BF7047BC
:1051300010B504460120616B81F8A401616C606BBD
:10514000496A90F8A321C96A012A04D1002280F893
:10515000A321104688472046BDE81040FCF705BC57
:10516000406C406A426A08461047000070B5044629
:10517000406C0E4682B0406A856913A0294601F052
:1051800009FB4EB13046A847616C0120496A496A63
:1051900002B0BDE8704008470EA001F0FBFAFF2006
:1051A0000090606C01A90222406A036B6846984730
:1051B00029460AA001F0EEFA3046A84702B00AA03C
:1051C000BDE8704001F0E6BA313120307825700D2D
:1051D0000A00000031320D0A000000003133203097
:1051E0007825700D0A00000031340D0A000000001F
:1051F00070B594B00125064602AC2B46002201A9E9
:105200002046009501F0A9FEFF208DF80400102033
:10521000ADF8440040F20140ADF84200ADF8405016
:105220002146304600F00EF814B070BD416B91F885
:10523000A11111F0020F08BF70474FF40042511145
:10524000FCF750BCF8B5064691F83C000C4610F04F
:10525000200018BF40200090084601F082FF00990E
:1052600040EA01024FF4C06130460092FCF73AFC7C
:1052700005006AD194F83C0010F0800F16D100238D
:1052800001224A213046FBF7C7FF05005DD13046B9
:105290002146FBF775FF0546182801D035B154E0CB
:1052A0004FF499712A4801F0F3FF4EE04FF40040AB
:1052B000009094F83C0010F0800F14BF00204FF4D1
:1052C000804040F40040618F41EA00024FF4E06109
:1052D00030460092FCF706FC050008BFC82534D113
:1052E0006A464FF4A0613046FCF7DFFB002804BF9C
:1052F000009810F0010F0DD09DB194F83C0010F013
:10530000800F1BD000230122C8213046FBF784FF09
:1053100050B113E06D1E04D001213046FFF720FF8D
:10532000DEE74FF0FF3510E030462146FBF728FF5F
:10533000182803D1D621064801F0AAFF4FF4407285
:1053400091003046FCF7CEFB05462846F8BD00002C
:10535000B0C70008012B02D01268FCF7C3BBFCF7F2
:10536000A4BB0000F0B585B0054603AA4FF4407118
:10537000446BFCF79AFB07003AD10398C4F8840108
:10538000042835D36A464FF4A0512846FCF78DFB1C
:1053900007002DD100986A4686B2ADF804604FF43C
:1053A000A8512846FCF781FB070021D1009871BA6B
:1053B00080B240BAADF80410ADF808009DF80400C2
:1053C0008DF800009DF805008DF801009DF808009B
:1053D0008DF802009DF809008DF80300009820B9AF
:1053E00040F23341044801F053FF0098C4F86401CF
:1053F00005B03846F0BD0000B0C7000810B529B1AF
:10540000FC21064801F044FF204610BD406BD0F857
:105410006801801A00F50064F6E70000B0C70008D4
:1054200070B5446B054694F8A00110F0030F04D149
:1054300040F29331684801F02BFFB4F8780120F076
:10544000200040F04001A4F8781194F8A0214FF01A
:10545000000012F0080F23D0032184F8801184F893
:10546000811100BFA4F87C015C48D4F89C118142F2
:1054700084BF4FF40070A4F87C01B4F87C0140F0C4
:105480008000A4F87C0194F88111032908BF40F042
:10549000040017D0012908BF40F0060012D013E025
:1054A00012F0010F1FBF84F8800184F8810121F000
:1054B0004001A4F8781102BF012184F8801184F81A
:1054C0008111CFE7A4F87C0101212846FFF748FEAF
:1054D000B4F87C214FF480612846FCF703FB0600FA
:1054E00077D104F5C4724FF400712846FCF7DDFA59
:1054F00006006ED1D4F88801C4F88C01A0F5406193
:105500005B3918BF4FF0FF3663D100224FF498513A
:105510002846FCF7E7FA060007D14FF480624FF403
:1055200040612846FCF7DEFA0646002E51D16C6B2E
:105530000E21B4F87A0140F00E00A4F87A0110F0C0
:105540000E0F04BF284600F093FDB4F87A214FF403
:1055500050612846FCF7C6FA6C6B1021B4F87A014A
:1055600040F01000A4F87A0110F0100F04BF284694
:1055700000F07EFDB4F87A214FF450612846FCF724
:10558000B1FA6C6B01214FF0000294F8A00110F009
:10559000800F1BD04FF450612846FCF7A3FA18B1D6
:1055A00076210D4801F074FE002201212846FFF704
:1055B0007DFDB4F87A214FF450612846FCF792FA49
:1055C00018B17E21044801F063FE02E02846FFF78F
:1055D0006DFD304670BD0000B0C7000800366E019A
:1055E00070B5456B044684B0D5F88C01461AB042BC
:1055F00003D9002E08BF012604E040F212213748EB
:1056000001F046FE32464FF498512046FCF76AFA04
:1056100000281CBF04B070BD02AA4FF4A061204650
:10562000FCF743FA00281CBF04B070BD029800F0DC
:105630000600042812D101212046FFF791FD02AA9D
:105640004FF4A0612046FCF730FA00281CBF04B0DC
:1056500070BD029800F0060004281ED0B5F878014D
:105660004FF4806140F00400A5F87801656BB5F84F
:105670007A0140F48060A5F87A0110F4806F04BFCD
:10568000204600F0F5FCB5F87A214FF45061204631
:10569000FCF728FA04B0182070BD6A464FF4007178
:1056A0002046FCF702FA00281CBF04B070BD009829
:1056B000C5F8880100224FF498512046FCF712FAF1
:1056C00000281CBF04B070BD4FF480624FF44061ED
:1056D0002046FCF707FA04B070BD0000B0C7000810
:1056E00038B504466A464FF40071FCF7DEF900282D
:1056F00018BF38BD0098616BC1F8880138BD000043
:105700002DE9F041456B06460F46B5F8780110F0DB
:10571000800F1CBF1720BDE8F08110F0010F1CBFE7
:105720001020BDE8F08195F88101B5F87C4103288F
:1057300008BF44F004002AD0012808BF44F0060442
:1057400009D0002808BF24F0040020D04FF4D17104
:10575000144801F09DFD706BB0F87C11A1420BD094
:10576000A0F87C4122464FF480613046FCF7BAF93C
:10577000002818BFBDE8F08197F83C0010F0800FBA
:1057800008D039463046BDE8F041FCF730B920F08A
:105790000204E0E7388FD5F88811081A401FC5F8D1
:1057A0008801EEE7B0C700082DE9F041446B0546DB
:1057B000002794F8780182B010F0080F7DD16A4676
:1057C0004FF440612846FCF770F9060076D1B4F832
:1057D0007A010099084040F20E71009010EA01022F
:1057E00006D04FF440612846FCF77CF9060070D1E2
:1057F000009810F00E0F17D000F00E024FF4406129
:105800002846FCF76FF90098002220F00E00009067
:10581000B4F878014FF4506140F08000A4F87801AA
:105820002846FCF75FF954E010F4407F07D020F4DD
:10583000407000904FF44071284600F019FC009829
:1058400010F4806F2ED020F4806000904FF48061BF
:10585000284600F00DFC94F8780110F0040F21D0D8
:1058600001AA4FF400712846FCF71FF9060030D159
:105870000198C4F88801B4F87801002220F00400EF
:10588000A4F878014FF498512846FCF72BF906004C
:1058900007D14FF480624FF440612846FCF722F9AB
:1058A00006465EB9009810F0010F04D00121284689
:1058B00000F0DEFB0127009801E043E009E010F072
:1058C000100F06D09021284600F0D2FB012084F86A
:1058D000A50194F8780110F0080F28D1D5F834808C
:1058E00001214FF0000298F8A00110F0800F1BD0AA
:1058F0004FF450612846FCF7F5F818B176211348AB
:1059000001F0C6FC002201212846FFF7CFFBB8F8C2
:105910007A214FF450612846FCF7E4F838B17E2133
:105920000A4801F0B5FC02E02846FFF7BFFB002F54
:105930001CBF022084F8A20126B140F24531034881
:1059400001F0A6FC02B00120BDE8F081B0C700085C
:1059500070B5446B0546B4F87A010843A4F87A019F
:10596000084204BF284600F083FBB4F87A21284699
:10597000BDE870404FF45061FCF7B4B82DE9F04336
:1059800095B00546466B00F0E5FE044696F8B40176
:10599000002801BF0020207215B0BDE8F083A07A76
:1059A0004FF00409860800F003070DF108084B4684
:1059B000002201A94046CDF8009001F0CEFA9020D7
:1059C000ADF844004FF4846000EB8600ADF842006F
:1059D000ADF8409041462846FFF734FC18B14C2101
:1059E000104801F055FC0198F900C8402072617A16
:1059F000401AC5B26068C82824BF15B0BDE8F0835E
:105A0000854203D2742108A001F042FC6168681A43
:105A1000C0B201446160E17A0844E07215B0BDE8AB
:105A2000F0830000145D00082E2E5C2E2E5C627345
:105A3000705F61746865726F735F776966695C73C4
:105A400072635C61746865726F735F776966695CC5
:105A5000636F6D6D6F6E5F7372635C6874635C68B7
:105A600074632E630000000070B5466B002081F85F
:105A70003E0096F8640181F83F000D46B6F86601D5
:105A8000B6F87011801D0844884384B22146284628
:105A900001F028FB2C87D6F86401686370BD000014
:105AA0002DE9FF4F85B08146002608981746B2467B
:105AB000002818BFC0F800A0069801F052FB85B27C
:105AC000069801F04CFB040001D0062D04D24FF4DF
:105AD000D5716AA001F0DCFB2078658860F30708C7
