:020000040800F2
:10000000C89A012059020008610200086302000832
:10001000650200086702000869020008000000008D
:100020000000000000000000000000009D0100082A
:100030006D02000800000000F1010008356D0008A5
:1000400073020008730200087302000873020008BC
:1000500073020008730200087302000873020008AC
:1000600073020008730200080F2D000873020008D5
:10007000730200087302000873020008730200088C
:10008000730200087302000873020008730200087C
:10009000730200087302000873020008730200086C
:1000A00073020008296E000873020008730200083A
:1000B00073020008356E000873020008730200081E
:1000C000730200087302000873020008730200083C
:1000D000730200087302000873020008730200082C
:1000E000730200087302000873020008730200081C
:1000F000730200087302000873020008730200080C
:1001000073020008730200087302000873020008FB
:1001100073020008730200087302000873020008EB
:1001200073020008730200087302000873020008DB
:1001300073020008730200087302000873020008CB
:1001400073020008730200087302000873020008BB
:1001500073020008730200087302000873020008AB
:10016000730200087302000873020008730200089B
:100170007302000873020008730200080000000008
:100180007302000873020008DFF80CD000F044F995
:1001900000480047ED940008C89A01202B4B1968CD
:1001A0000868B0E8F04F80F30988BFF36F8F4FF015
:1001B000000080F3118870470000000006480068C6
:1001C000006880F3088862B661B6BFF34F8FBFF353
:1001D0006F8F00DF00BF00BF08ED00E0DFF80C000C
:1001E000016841F470010160704700BF88ED00E0D4
:1001F000EFF30980BFF36F8F144B1A681EF0100FD6
:1002000008BF20ED108A20E9F04F106008B44FF0CD
:10021000500080F31188BFF34F8FBFF36F8F0BF047
:10022000EFF94FF0000080F3118808BC19680868E6
:10023000B0E8F04F1EF0100F08BFB0EC108A80F34A
:100240000988BFF36F8F704700BF00BF40000020D8
:10025000EFF30580704700000648804706480047D6
:10026000FEE7FEE7FEE7FEE7FEE7FEE7FEE7FEE766
:10027000FEE7FEE7D56D0008890100082DE9F05F73
:100280000546002092469B46884606468146402405
:100290001BE0284641464746224600F0ACF853464C
:1002A0005A46C01A914110D311461846224600F012
:1002B00093F82D1A67EB01084F46224601200021D2
:1002C00000F08AF817EB00094E41201EA4F101044A
:1002D000DFDC484631462A464346BDE8F09F000031
:1002E0000649074A0868504343F23902104408603F
:1002F00040087047014908607047000094000020E2
:100300006D4EC64140EA01039B0703D009E008C9CE
:10031000121F08C0042AFAD203E011F8013B00F8CA
:10032000013B521EF9D27047D2B201E000F8012B16
:10033000491EFBD270470022F6E710B513460A4665
:1003400004461946FFF7F0FF204610BD10B50446DD
:1003500004E00B7800F8013B03B1491C521EF8D2AF
:10036000204610BD421C10F8011B0029FBD1801A49
:10037000704710B5002200E0521C835C8C5CA342E5
:1003800001D1002BF8D1D8B2E1B2401A10BD30B57E
:1003900004460020034600E05B1C934203D2E05C6D
:1003A000CD5C401BF8D030BD034611F8012B00F89E
:1003B000012B002AF9D11846704730B505460020B8
:1003C000034600E05B1C934205D2EC5CC85C201A3B
:1003D00001D1002CF6D130BD202A04DB203A00FAEE
:1003E00002F1002070479140C2F1200320FA03F38C
:1003F000194390407047202A04DB203A21FA02F08A
:100400000021704721FA02F3D040C2F1200291404E
:100410000843194670470000064C074D06E0E068A7
:1004200040F0010394E8070098471034AC42F6D33B
:10043000FFF7AEFE28DA000848DA000810B50446D7
:100440004F48D0F8041321F44031C0F80413D0F819
:10045000041362681143C0F804132068416821F452
:100460008071416020684168226941EA022141604F
:100470002068416821F04071416020684168A268AD
:10048000114341602068816821F400618160206827
:100490008168E26811438160A06A6FF07061C842B0
:1004A0002068816821F070618160206881680CD0CB
:1004B000A26A114381602068816821F04051816007
:1004C00020688168E26A114301E021F040518160B7
:1004D0002068816821F00201816020688168A2693A
:1004E00041EA42018160206A00B3606A401E072829
:1004F00004D940F20A6123A007F03CFD206841685E
:1005000041F4006141602068416821F4604141602C
:10051000206842684FF46043616A93FAA3F3B3FA28
:1005200083F3491E99400A43426004E02068416811
:1005300021F4006141602068C16A21F47001C16248
:100540002068C16AA28B1D4B03EB02521143C162AA
:100550002068816821F40071816020688168226BC5
:1005600041EA422181602068816821F480618160D4
:1005700020688168626941EA8221816010BD0000C3
:10058000002001402E2E2F447269766572732F531E
:10059000544D3332463478785F48414C5F44726939
:1005A0007665722F5372632F73746D3332663478AD
:1005B000785F68616C5F6164632E63000000F0FF28
:1005C0000B794A88002B18BF70474B78406B09782D
:1005D000D0F8800007F098BC406B0978D0F8800014
:1005E00007F0ACBC01F076B970B5446B13680546F2
:1005F000C4F848319288A4F84C21A4F8541100683A
:10060000002109F003FD01200026C4E956062868F0
:1006100009F01AFF84F89060D4F8800007F09EFC7F
:100620002846BDE8704001F0B2B910B5446B8EB0F9
:10063000606F01287DD1D4F8B0100020002994F813
:10064000D41041DD102941D02F21CDE9041003221F
:10065000CDE902023C210690CDE900014FF6FF737F
:1006600004220021E06F0BF08DFE00281CBF0EB0AD
:1006700010BDB4F884200DF1140C04F5A77104F139
:10068000B400D4F8D8308CE80F0094F8DF000DF1F6
:10069000040C94F8E12094F8E010D4F8B0308CE821
:1006A0000F0094F8DE00009094F8DD3094F8DC2020
:1006B00094F8D410E06F0BF0B1F9002804BF0121C9
:1006C000C4F85C110EB010BD10294DD100900190FE
:1006D000029003900490059006900790B43408901F
:1006E00009900A900B900C900FCC0DF1080C8CE83F
:1006F0000F000FCC0DF1180C8CE80F0014F8240C2F
:100700008DF80700E07A8DF80400607B8DF8060014
:1007100014F8D4098DF8000094F8DC008DF801007D
:1007200094F8DD008DF8020094F8DE008DF80300E7
:1007300000E019E094F8E0008DF80500D4F8D80046
:100740000C90B4F88400ADF8280094F8DE0001287D
:1007500006D0082804BF94F8E000082808D003E079
:1007600094F8E000012803D00EB04FF0FF3010BD28
:100770006946E06F0BF002F80EB0002010BDF0B536
:10078000446B074685B0D4F858010E464FF0FF354C
:1007900078B9D4F85C0100283DD041F288330122B9
:1007A00004F5AC71384601F08BFBD4F858010028F1
:1007B00031D001221146384600F0B3F800282AD182
:1007C000606F00281CBFA06F002824D0002303A85E
:1007D00005210093CDE901101A463146E06F0BF078
:1007E00035FBC0B900223146D4F89430E06F0BF0ED
:1007F000F7FB0146384606F08DFD002818BFB0F122
:10080000FF3F08D086F83F003146384602F01AF91B
:10081000002808BF0025284605B0F0BD70B5054684
:10082000406B4FF0FF3400F1080141F288330022A1
:10083000284601F045FB30B9284601F025FD284641
:100840000AF0D4F90024204670BD002070472DE93D
:10085000F04F83B0446BDDE90C9806469A46934608
:100860000F46D4F8800007F079FB0025032F0EBF58
:10087000C4F85C510120C4F85C010021306809F023
:10088000C5FBC4F85851306809F0DEFD84F890507B
:10089000C4F84851A4F84C51A4F85451CDE900983B
:1008A00053465A463946304601F0D7F894F8AD0021
:1008B000002804BF03B0BDE8F08F4EF6602130463B
:1008C00004F0AAFE84F8AD5003B03046BDE8F04F06
:1008D000FFF7ABBE70B5446BD4F8580101281CBFBC
:1008E000D4F85C0101281AD1E06F0BF041FB002520
:1008F0000120C4F85C5184F8DC0084F8DD0084F841
:10090000E00084F8DE0084F8E15084F8DF5004F55C
:10091000A77006F073FDA4F88450C4F8D8500020E6
:1009200070BD2DE9F041446B0D4607460026E06896
:1009300001280ED15DB141F28833002204F10C018F
:10094000384601F0BDFAE268012AF4D0EFE74FF033
:10095000FF363046BDE8F08170B5446B0546202275
:1009600004F22310FFF7CEFC0120C4F8440128460E
:10097000BDE8704001F0BFBA70B50B490024456B6B
:10098000496900291CBF002070BD41F28833012253
:1009900005F1740101F094FA002806BF686F012880
:1009A0004FF0FF34204670BD8C96012010B50446F0
:1009B00001F078FC002818BF10BD2046BDE81040AB
:1009C0000AF02CB92DE9F8430C461D461646342191
:1009D0001846FFF7B0FC208806F0A2FC85F82A0034
:1009E000E07885F82C00D4F80600686060892881DA
:1009F0001C2E3CBF4FF0FF30BDE8F88304F110001F
:100A0000618B6980218B2980A6F11C011C3446185A
:100A1000B4423CBFDFF8BC80002757D2207820B119
:100A2000302812D0DD2829D04BE06078202848D823
:100A3000002846D085F82B006278002A41D0A11CFE
:100A400005F10A00FFF75EFC3BE062886178A01CBC
:100A5000012A3BD18DF80170891E8DF80070C9B252
:100A600030236A46801C09F089FF9DF8000085F854
:100A70002E009DF8010085F82F0022E060780628FE
:100A80001FD96279D4F8021062F31F61414518D171
:100A9000001F81B2E288A01D012A12D18DF80170D9
:100AA000891E8DF80070C9B2DD236A46801C09F0EA
:100AB00065FF9DF8000085F830009DF8010085F87D
:100AC00031006078A11C4418B442A7D30020BDE8CF
:100AD000F88300000050F20101F006B838B5D0F8F4
:100AE00034C0049C0125CCE91C35009401F049F880
:100AF00038BD70472DE9F05F83460E4691F93F00FF
:100B00003649DBF834400A6922B131465846BDE81F
:100B1000F05F1047A16F012954D1012844D030461D
:100B200007F0B4F90546304607F0B2F982B26878AA
:100B300069880223B3EB901F0CBF4FF0010A4FF0FE
:100B4000000A94F8D430102B18BF062A3AD3B2F515
:100B5000D06F37D8C1F300394FEA51380121B1EBDA
:100B6000901F14BF0027012794F99000002808BFA8
:100B700095F9000005D095F90010C0EBC0000844BD
:100B8000C01084F890003146E06F0BF0C3F9B8F163
:100B9000000F03D0D221124807F012FA57B1D72123
:100BA0000F4807F00DFA0CE031465846BDE8F05FFB
:100BB0000AF08EBF59EA0A0009D0DD21084807F083
:100BC000FFF926B13046BDE8F05F07F024B83146A2
:100BD0005846BDE8F05F01F0B5B800008C960120E2
:100BE000D8D7000870B5446B054600221146E06F67
:100BF0000AF097FE0120C4F8A8012846BDE870401D
:100C000001F079B92DE9F0470C460F68416C0026D8
:100C10009846496A4FF00109102F8D7880F0C08006
:100C2000DFE807F0082B3D3D3D1BBE3D533D71867F
:100C3000BEBE86AA0122911E08F046FB0028A8BF6E
:100C4000854274DB584951F820100A7912F0010FDF
:100C50001CBF62680A6076D188E06168012208F0F2
:100C600033FB0028A8BF854261DB4F4951F82020A3
:100C7000137913F0200F4ED178E06168012208F05B
:100C800023FB0028A8BF854251DB474951F82010BB
:100C90000A7912F0020F54D107F002FE66E0616893
:100CA000012208F011FB0028A8BF854278DB3E49ED
:100CB0000123BB4051F820104A681A4241D1A26872
:100CC000632A08BF8A6051D13DE06168012208F0C3
:100CD000FBFA0028A8BF854262DB334951F8202087
:100CE000938813F4807F41D0A368936051F820303B
:100CF00004F10C025A6151F82010C1F8108000BFB5
:100D00004FF000091FE02849284651F82020938819
:100D100013F4806F2AD004F10C03536151F82020A2
:100D2000C2F8108051F82010A2688A60E8E737E026
:100D30001D492846012351F82010BB404A681A4239
:100D400014D0A2688A6018494FF0010C0CFA07FC15
:100D500051F82020536823EA0C03536051F8200017
:100D600000210AF077F9B9F1000F02D0404606F0F1
:100D700052FF3046BDE8F0870B49284651F8202045
:100D8000938813F4004FF1D004F10C03536151F830
:100D90002030A2689A6051F82010C1F81080AFE7A7
:100DA0004FF0FF36E2E7000068960120002918BFE7
:100DB000002A04D0426B91F8EA1082F89010426B3E
:100DC0000021C2F8BC1101F096B810B5446BE06F79
:100DD0000BF0CEF8012084F8AD0010BD10B504462C
:100DE0000020626BC2F898000748C2681AB120461A
:100DF000BDE810401047084606F00DFF2046BDE84C
:100E0000104001F078B800008C96012070B5446B5A
:100E10000646A08C38B92088022804D0D4F89C005B
:100E2000032510B116E0022514E0012060600A4895
:100E3000C4F89C00304601F058F841F28833002293
:100E4000211D304601F03CF86068002802BFA07800
:100E500000280125284670BD999D00082DE9F04322
:100E6000446B064687B0606F01281CBF07B0BDE821
:100E7000F08300252F274FF003084FF03C0900BFF7
:100E8000CDE904750695CDE90059CDE90258002356
:100E90001A461946E06F0BF075FA48B1022804BFF4
:100EA00007B0BDE8F0838B21184807F089F8E7E721
:100EB0000121E06F0BF049FC48B1022804BF07B0E4
:100EC000BDE8F0839C21114807F07AF8F0E7002292
:100ED0001146E06F0AF034FC48B1022804BF07B0A5
:100EE000BDE8F083B221094807F06AF8EFE7304621
:100EF00009F02CFE002812BF022807B0BDE8F083DD
:100F0000C221024807F05CF8F1E700008CD7000826
:100F100010B54FF0FF3481F83F201BB101F092FD76
:100F200018B103E001F0C8FD00B90024204610BD4F
:100F30002DE9F84F8146446B406C0E469B46406A53
:100F40000021D0E9077A056CE06F0090D9F8000025
:100F500009F05CF8D4F8A0004FF0000818B106F0D2
:100F60005AFEC4F8A080C4F8A0B0C4E9296867207C
:100F7000B84707000AD0D4E92810002943D001005F
:100F80003FD0007848B1012834D030E0002D4FD058
:100F90004FF0FF310020A8474AE096F82420311D89
:100FA000B81DFFF7AFF9D6F86B003860B6F86F00E0
:100FB000B88096F82400B91D00F8018096F86A20E0
:100FC000002A08BF87F826800BD006F12A0107F116
:100FD0002600FFF797F996F86A0007F1260100F856
:100FE0000180002D1CBF0021384600D0A847C4F85E
:100FF000A4800DE0002D1CBF4FF0FF310020F5D183
:10100000F5E70DB904E01DB14FF0FF310020A8470E
:10101000D4F8A00006F0FFFD3846C4F8A080D04701
:1010200000980AF0A5FF94F8AC1000980BF033F983
:10103000D9F80000BDE8F84F09F006BA2DE9F047ED
:10104000364C0D460746D0F8349054F825008AB047
:101050009A46D0F800801646B8F1000F02BF6FF034
:1010600001000AB0BDE8F08708F03CFA00281EBF76
:101070004FF0FF300AB0BDE8F087CDF80080ADF842
:1010800020A054F82500017E022926D07188ADF8F1
:10109000061036F8041BADF8041056F8041B029134
:1010A00096E80E100DF10C0888E80E104168242314
:1010B00041F0080141606A460321D9F87C000BF039
:1010C000B1FAA8B154F82500416821F00801416047
:1010D0000AB04FF0FF30BDE8F087318849BAADF86B
:1010E00004107188ADF80610716809BA0291DDE745
:1010F00054F82510002342F21072384607F066FBC0
:1011000028B954F82500007910F0080FF0D154F8F0
:10111000250080680AB0BDE8F087000068960120CD
:101120002DE9F047374D0C468146D0F8348055F80C
:1011300024008AB09A4607681646002F02BF6FF057
:1011400001000AB0BDE8F08708F0CCF900281EBF06
:101150004FF0FF300AB0BDE8F0870097ADF820A04F
:1011600055F82400017E022925D07188ADF80610BB
:1011700036F8041BADF8041056F8041B029196E8EB
:101180000E1003AF87E80E104168242341F00401DC
:1011900041606A460221D8F87C000BF043FAA8B1FE
:1011A00055F82400416821F0040141600AB04FF075
:1011B000FF30BDE8F087318849BAADF80410718876
:1011C000ADF80610716809BA0291DDE755F82410F0
:1011D000002343F69822484607F0F8FA002855F80D
:1011E000240004D0416821F00401416003E000794B
:1011F00010F0040FEAD155F8240080680AB0BDE869
:10120000F08700006896012000F038BD2DE9F04F0E
:101210008246406C3C4DA3B0406A1F46904684789D
:101220000E46DDF8B09055F82400DAF834B008F036
:1012300059F9002818BF4FF0FF3460D155F8240049
:10124000012E467608D10096D8F800000190386843
:101250000290D9F800000390212106A80096FFF71C
:101260006AF82F9818B1014606A8FFF79DF855F8BF
:1012700024008C236A46416841F4806141600A2160
:10128000DBF87C000BF0CEF940B155F824004FF0AC
:10129000FF34416821F48061416030E055F824104A
:1012A000002347F23052504607F090FA20B123B0A5
:1012B0004FF0FF30BDE8F08F55F82400808810F41F
:1012C000806FEBD155F824008168B1F1FF3F1CBF5E
:1012D0004069012E0DD04168C8F80010816839605E
:1012E000C168C9F800102D9902690A6041692E98F9
:1012F000016055F824008468006906F08CFC23B076
:101300002046BDE8F08F000068960120F0B50E463B
:10131000416C476B0E48496A83B01C468978154674
:1013200050F8210008F0DEF870B9306800902868A5
:10133000CDE901040C236A461021F86F0BF072F915
:10134000002804BF03B0F0BD4FF0FF3003B0F0BD84
:101350006896012038B50C4600210091416C456B20
:101360000A48496A897850F8210008F0BBF848B962
:10137000009404236A461221E86F0BF053F9002809
:1013800008BF38BD4FF0FF3038BD0000689601201F
:101390002DE9F0472C4F0D46DDE9094A57F82500A5
:1013A0001E4690460168002904BF6FF00100BDE8A9
:1013B000F087C068001D06F00EFC5FEA000908BF58
:1013C000BDE8F08706F062FD57F825100A7E022A74
:1013D00009D0032A1CBF0020BDE8F0872825497EDC
:1013E000022916D10DE0497E1425022911D1416848
:1013F00021602188806849BA218000BA6060082095
:1014000005E0011D1C222046FEF77CFF1C20CAF8C7
:1014100000002946484606F065FC484606F038FDBF
:101420000446B0420DD8484606F030FD014622463B
:101430004046FEF767FF484606F0EDFB2046BDE854
:10144000F0873446EFE70000689601202DE9FF4F52
:101450000746406C81B00D46406ADDE90EB4D0E924
:10146000076000903648D7F834A050F82510D1F81E
:101470000090B9F1000F02BF6FF0010005B0BDE8A8
:10148000F08F084608F02EF828B100BF05B04FF0E5
:10149000FF30BDE8F08F4FF01408BBF1000F1CBF08
:1014A000002C04F113084046B047060002BF02209A
:1014B00005B0BDE8F08FBBF1000F18BF002C05D0C0
:1014C0002246594606F11000FEF71CFFC6F80090B0
:1014D000039870600498C6E90204194C43463246EA
:1014E00054F82500416841F0800141600721DAF895
:1014F0007C000BF097F850B154F82500416821F0BA
:101500008001416005B04FF0FF30BDE8F08F54F826
:101510002510002342F21072384607F057F90028D0
:10152000B4D154F82500007910F0800FEFD1009964
:101530003046884754F82500806805B0BDE8F08F34
:10154000689601202DE9F843254C0D460646D0F853
:10155000348054F825000768002F08BF6FF001049D
:101560003AD007F0BFFF002818BF4FF0FF3433D147
:10157000284606F0CBFB009754F8250004236A4662
:10158000416841F0020141600121D8F87C000BF074
:1015900049F840B154F825004FF0FF34416821F07C
:1015A0000201416018E054F82510002342F2107245
:1015B000304607F00BF918B16FF00300BDE8F8836F
:1015C00054F82500007910F0020FECD154F82500F2
:1015D0008468284607F064F92046BDE8F8830000D7
:1015E000689601202DE9F04717468846002284B00E
:1015F0009A4606461146D0F8349007F065FE054637
:10160000B0F1FF3F4FF0FF3004BF04B0BDE8F087FA
:101610003B4C0C236A4654F82510086054F825000A
:1016200080F8188054F825004776CDE90087CDF87A
:1016300008A054F82500416841F0010141600021F3
:10164000D9F87C000AF0EEFF30B154F8250041686B
:1016500021F0010141604BE054F82510002342F2D3
:101660001072304607F0B2F8002854F8250031D047
:10167000416821F00101416054F82500C66806F177
:10168000140006F0A8FA50B1014606F1200006F059
:10169000B5FA06F1140006F09EFA0028F4D154F8C9
:1016A00025000026066054F82500067654F825002B
:1016B000467654F82500466054F82500406920B16C
:1016C00006F0E7F954F82500466104B06FF0030016
:1016D000BDE8F087007910F0010FBDD154F8250066
:1016E0000068B0F1FF3F1EBF284604B0BDE8F08798
:1016F000284607F0D5F804B04FF0FF30BDE8F0877A
:101700006896012070B582B000254FF4FA6000950C
:10171000ADF80400174C01260DE000BF606BBDF86A
:101720000410C0F8AC61A06808F008FE002818BFDB
:1017300010F1020F0FD1606BC0F8AC51A06B012803
:1017400009D001AB6A460321204600F0D9FE00987B
:101750000028F0D0E2E7204600F0F0FDE068002825
:1017600018BF08F0FBFD4FF0FF31204603F054FF97
:1017700002B070BD609401202DE9F84F476B406CBA
:101780000E460025406A2C466A46D0F8309091F803
:101790003C002946C0F3C018304606F074FAB0B1D8
:1017A000009941B18AB218F100011CBF0146002026
:1017B000C8474FF0000A00986A46204484B2681C6B
:1017C00085B2E9B2304606F05EFA0028E8D1308FE3
:1017D000A04217D9D7F86C11001B884203D9902179
:1017E0000A4806F0EDFB308F001B82B2B8F1000F03
:1017F00019BF0020D7F874110021D7F87401C84729
:101800004FF0000A5046BDE8F88F000090D600085F
:101810001FB5406C190082B0406A4FF00004036BA2
:1018200008BF6946501CC2B203A8984706B02046BC
:1018300010BDF0B585B00027446B0E4600970197A8
:1018400002976A46039703F053FD05003ED13088A6
:10185000A0F58070052838D2DFE800F0030C1621CF
:101860002C00A06F012831D19DF90610E06F0AF01D
:1018700017FE2BE09DF8060084F85C009DF9060039
:1018800004F16001475421E09DF8060084F85D00F2
:101890009DF9060004F160020121815416E09DF8D3
:1018A000060084F85E009DF9061004F16002022033
:1018B00088540BE09DF8060084F85F009DF906103F
:1018C00004F160020320885400E00E2505B028468C
:1018D000F0BD00002DE9F74FC58DFF270024D0F89B
:1018E000288081460E46002D17D900BF04EB440026
:1018F00000EBC40008EB800B0BF103010622B01DC6
:10190000FEF745FD30B39BF80200B8423CBF0746E6
:10191000A246601CC4B2AC42E8D3A54284BF03B067
:10192000BDE8F08FB9F82C0085421FD3F0788742CC
:1019300024BF03B0BDE8F08F0AEB4A0000EBCA00F9
:10194000029B08EB800103B032464846BDE8F04FE9
:1019500007F005BC04EB440000EBC40008EB800179
:1019600032464846029B07F0FAFBD6E705EB4500F6
:1019700000EBC50008EB800132464846029B07F0A9
:10198000EEFB681CA9F82E0003B0BDE8F08F2DE92E
:10199000F047456C04460021686A676BD0E90798F8
:1019A000866B206808F032FB206808F04DFD14209B
:1019B000C8476979044601291CBF286810F0400F08
:1019C00027D040F001002860002E3DD0D4B1002087
:1019D00020606060A060E0602061B7F8540105F00D
:1019E0009FFC60706879A070A879E07007F1B4007E
:1019F000E0602F3060606530002220612146104693
:101A0000B04725E0B446BDE8F04700221146104635
:101A10006047286810F0200F16D010F0100F0BD080
:101A200020F0100040F00100286001290CD15EB1C7
:101A300000221146022006E040F0040028601EB19A
:101A4000002211460320B047002C08BFBDE8F087F4
:101A50002046C446BDE8F04760472DE9F041456C9B
:101A600006460F46686A0021846B306808F0CEFA9B
:101A7000306808F0E9FC286810F0010F12D010F06F
:101A8000400F07D020F0010028605CB100213A46E9
:101A9000012006E020F0040028601CB100213A4635
:101AA0000420A047286810F0100F08BFBDE8F0819F
:101AB00020F0100010F0400F28600AD0002C08BF62
:101AC000BDE8F0813A46A446BDE8F041002101207E
:101AD0006047002C08BFBDE8F0813A46A446BDE847
:101AE000F0410021042060472DE9F047456C044691
:101AF0000021686A666BD0E90798876B206808F058
:101B000085FA206808F0A0FC1420C847044628681D
:101B100010F0010F04BF6979012929D110F0400F9D
:101B200026D040F00100286017B3D4B10020206017
:101B30006060A060E0602061B6F8540105F0F0FB41
:101B400060706879A070A879E07006F1B400E06078
:101B50002F30606065300022206121461046B84772
:101B60000AE0BC46BDE8F047002211461046604737
:101B7000002C08BFBDE8F0872046C446BDE8F0470A
:101B800060470A68C0F83D208988A0F8411000F03D
:101B9000B2B900002DE9F047DFF8CC80064689464F
:101BA00098F8000018B16621304806F009FA0120C3
:101BB00088F8000005F085FF2E4D2D4C0020296887
:101BC000B1F1FF3F08BFC5E9000404D04FF48971AB
:101BD000264806F0F5F96868C9F800004821204653
:101BE000FEF7A9FB244800276664C4E90C70204670
:101BF000FEF7DCFE20B1022808BFBDE8F08711E047
:101C0000204600F0BBFB68B908F012F9E06008F06C
:101C10000FF9A060204600F045F918B92046FEF7FC
:101C2000ABFE98B188F800704FF0FF362046C9F837
:101C30000070FEF70AFE2046FEF7F0FD2868002837
:101C400004BF4FF0FF30C5E9000709E0022088F823
:101C500000002046FFF702F9060018BFBDE8F08734
:101C60003046BDE8F087000090000020DCD6000878
:101C70006094012084000020A89401202DE9F04701
:101C8000406C89461F46406A1646D0E90718056C25
:101C900067208847040002D10DB1411EA847672183
:101CA0002046FEF748FBB9F1000F0DD01DB14FF0F3
:101CB000FF312046A847002C08BFBDE8F08720462A
:101CC000C446BDE8F047604705221CA13846FEF730
:101CD00074FB002804BF002084F8260005D04022B1
:101CE000394604F12600FEF731FB3846FEF73AFB91
:101CF0003844471C3846FEF735FB00281CBF3878AF
:101D0000012804D020223946A01DFEF71FFB3068B1
:101D10002060B088A080B07950B1F01DFEF722FBA2
:101D200030B1B07984F86600F11DA01DFEF73CFBD0
:101D3000002DC0D000212046A847BCE76B6F6E671E
:101D40000000000070B50546406C0C00406A8678C3
:101D500008BF70BD084606F099F8016801222846C0
:101D600007F0B2FA050006D4B54204DC0A4E56F874
:101D70002500416821B12046BDE8704005F04BBF09
:101D8000C0682146001D05F039FF56F82500BDE862
:101D90007040002109F05EB9689601202DE9F041FC
:101DA0000446406C0025406A8078461C002EC8BF5F
:101DB000204F0EDD57F82500016839B1C068001DBD
:101DC00005F009FF002818BF05F025FF6D1CB5427E
:101DD000F0DB606B0069012818BFBDE8F0810021CD
:101DE000206808F013F904F1100005F0F4FE054630
:101DF000208B18B90021204600F03FFD206808F034
:101E000023FB6DB122460C49284605F05EFF2846AB
:101E100006F038F80A2803DAF221084806F0D0F86C
:101E2000284607F07FF9606B00690128D7D0BDE82C
:101E3000F081000068960120031F00086CD800089C
:101E40002DE9F0410446406C0027406A90F801807B
:101E500084F83C7004F1100005F0F4FF04F11C005C
:101E600005F0F0FF0025B8F1000F10D94FF4D06055
:101E700005F063FE060011D006F000F8314604F1CB
:101E8000100005F0BBFE681C85B2A845EED8616B5A
:101E9000012008610020A763BDE8F0810220BDE8B1
:101EA000F081000010B50446044807F0C7FF002881
:101EB0000EBF4FF0FF306060002010BD0517000816
:101EC0002DE9F041984614460D460746002628683D
:101ED000A04207D04146F86808F030FA0028F6D052
:101EE0004FF0FF363046BDE8F0818068002808BF1B
:101EF000704708F033BAC068002808BF704708F080
:101F00002DBA704770B50E4604460068002108F0EF
:101F10007DF804F1100005F05EFE0546208B18B92F
:101F20000021204600F0A9FC206808F08DFA6DB170
:101F300022460749284605F0C8FE284605F0A2FFBC
:101F4000B04203DAF221034806F03AF8284670BDA1
:101F5000031F00086CD8000810B5002000F0DCFE5C
:101F6000002808BF10BDBDE8104003F03ABB2DE9C2
:101F7000F041D0F8348005460F4698F87A0110F009
:101F8000010403D02146284604F0C6FA3A8F4FF4E4
:101F90008071284600F066F806001ED197F83C00D4
:101FA00010F0800F788F09D040F4004041BA002330
:101FB00001222846FFF72CFC064606E041BA002322
:101FC00001222846FFF724FC064636B92846394642
:101FD000FFF7D2FB0646182816D01CB3182E1FD0C8
:101FE0006F6B2146B7F87A010843A7F87A010842D7
:101FF00004BF284604F090FAB7F87A214FF45061F4
:10200000284600F02FF80DE0B8F87801002140F0E4
:102010000800A8F8780128460A4603F0A3FA0CB194
:10202000A8F87E413046BDE8F08170B50546002035
:10203000106041F44040144641BA00230122284672
:10204000FFF7E6FB002818BF70BD234601220021E0
:102050002846FFF7DDFB21680A0242EA112189B216
:10206000216070BD70B5054641F48040144641BA08
:10207000002301222846FFF7CBFB002818BF70BDC4
:10208000200240EA142081B22846BDE870400023B7
:102090000122FFF7BDBB00002DE9F04F0646406C62
:1020A000002483B0406A2546C768E7B1022268A1D0
:1020B0003846FEF782F9002808BF4FF4007512D0A9
:1020C000022264A13846FEF778F9002808BF4FF4D1
:1020D000807508D0022260A13846FEF76EF900280C
:1020E00008BF4FF440755D48416821B130468847CC
:1020F00003B0BDE8F08F45F00208DFF86491DFF827
:1021000064B1594D594F00BF4FF0000A042301AA92
:102110003946304600F018FB20B14FF40B7154489B
:1021200005F04EFF5046411C1FFA81FAB0F57A7F48
:1021300002D201984845E9D1BAF57A7F04D303B0B9
:102140004FF0FF30BDE8F08FCDF80480042301AAE2
:102150004849304600F06AFD20B140F25B21444816
:1021600005F02EFF200000F10101CCB208BFDA46D5
:102170001ED104236A465146304600F0E5FA20B1EC
:1021800040F2BB113A4805F01BFF0098A842F0D17D
:10219000DFF8E4A004236A465146304600F0D4FA42
:1021A00020B14FF4E271324805F00AFF009818B1EF
:1021B00003B00020BDE8F08F4FF0FF300090042303
:1021C0006A465146304600F031FD20B140F2CF1151
:1021D000274805F0F5FE0820009004236A462749A9
:1021E000304600F023FD20B14FF4EC71204805F09B
:1021F000E7FE2348009004236A462249304600F057
:1022000015FD20B140F2E111194805F0D9FE00207A
:10221000009004236A463946304600F007FD20B19D
:102220004FF4F571124805F0CBFE80200090C101FB
:1022300004236A46304600F0F9FC20B140F2F31165
:102240000B4805F0BDFE0121304603F0E5F95BE7E0
:10225000434E0000555300004A5000008C96012068
:1022600080BA8C010C07140004011E0078061400CB
:1022700024D800080C06140020071400B40614002B
:1022800078563412B806140010B5446BFFF786FD7B
:10229000D4F8740120B105F0FCFB0020C4F87401EF
:1022A000002010BD2DE9F041446B07464FF4E0716A
:1022B0002046FEF740F80025A56025616567A56703
:1022C0000126C4F89450E660C4F8A85084F8D4609D
:1022D00084F8DC6084F8DD6084F8DE6084F8E06017
:1022E000C4F84451C4F85851C4F85C514FF0020886
:1022F000C4F8A85184F8AC801120A4F86201F0025F
:10230000C4F8680120201F21C4E95B0105F0CDFB62
:10231000C4F8B051C4F8740184F8365084F84660AB
:1023200084F8568018B9DB21034805F049FE384689
:10233000BDE8F041FFF784BD24D8000870B505461C
:10234000446B03F0ABF90021284603F06AF92846F4
:1023500003F004F9E06F002610B10AF055F9E667C2
:10236000D4F8800018B105F0C7FDC4F88060286873
:1023700007F076FD0020A66070BD00002DE9F04357
:1023800087B00546466B07F04DFD4FF001094FF051
:102390000008286000287CD0284603F00DF90121B0
:1023A000284603F03EF9284603F072FA040071D182
:1023B0002846FFF771FE04006CD1686B4E4F032175
:1023C000C166B96819B128468847040062D13968E6
:1023D00019B12846884704005CD1786940B928467D
:1023E00009F054FEC6E91E9005F088FDC6F880008D
:1023F000B86900287AD1284603F086F8040077D11E
:102400006C6BCDF80080CDF814804FF48070CDF85F
:102410000880ADF80000CDF80480CDF80C80CDF830
:1024200010808DF8088069462846FFF702FA0700F9
:1024300055D10498694640F00100049040F20460D0
:102440000590BDF8020020F0030040F00500ADF853
:10245000020040F20110ADF800002846FFF7E9F94C
:1024600007003CD14FF48170ADF800006946284662
:10247000FFF7DFF9070032D140F20310ADF800009A
:1024800069462846FFF7D5F9070028D14FF4827036
:1024900001E02AE02CE0ADF8000069462846FFF78D
:1024A000C8F907001BD194F85C0018B9A1211348A2
:1024B00005F086FD94F85D0018B9A2210F4805F0DB
:1024C0007FFD94F85E0018B9A3210C4805F078FD53
:1024D00094F85F0018B9A421084805F071FD3C008C
:1024E00006D1284602F0DAFF04460CB9C6E9029884
:1024F00007B02046BDE8F0838C96012024D8000860
:102500002DE9FF5F446B064605202080706C002596
:102510009B46406A9046876A94F8A401012806D138
:102520000320208084F8A451304603F075FB062078
:102530002080B4F8780110F4807F23D0D6F834A03E
:10254000D4F89491BAF87E1121B1304603F038FCEA
:10255000AAF87E51B9F1000F1CBFD9F84420002A17
:102560000BD0494630469047C4F89451B4F87801EE
:1025700020F48070A4F8780104E040F22111714841
:1025800005F01EFD94F8A50168B1032020803046B7
:1025900003F066F81021304603F012FC304602F0DA
:1025A00009FF84F8A55107202080019810F0010F41
:1025B0003AD0304600F090F9012835D12080A16A48
:1025C0003046A56200F030F918B166215D4805F08B
:1025D000F7FCC4F86451B4F8780110F4807F23D07C
:1025E000D6F834A0D4F89491BAF87E1121B13046CF
:1025F00003F0E6FBAAF87E51B9F1000F1CBFD9F831
:102600004420002A0BD0494630469047C4F89451E4
:10261000B4F8780120F48070A4F8780104E040F266
:102620002111484805F0CCFC08202080019810F0CA
:10263000020F1BD0304600F08BFA012816D1022081
:102640002080A08C90B10021306807F0DFFC04F1FD
:102650001C0005F0C0FA8146306807F0F5FEB9F1BC
:10266000000F03D04946304600F0ACF90920208025
:1026700094F8780110F0080F08D1D4F89C1029B113
:1026800004202080304688470A2020800B202080AC
:10269000B8F1000F16D094F8A201002819BF2069E4
:1026A000002894F8A40100280AD1A08C18B1304663
:1026B00000F04EFA20B9B4F8780110F4807F1FD0F2
:1026C000C8F80050AFB3D4F88800002818BFB84746
:1026D000D4F88C0048B1B847D4F88C10401A42F2B4
:1026E0001071884288BFC4F88C50606F012801BF08
:1026F000D4F88C000028D4F88800002819D111E003
:102700000120C8F800006069012801D02580D9E7C0
:10271000BBF1000F1CBF3220ABF80000A069401CC9
:10272000A061F3E7E06F09F0E8FC30B1B847C4F806
:102730008C0004B00020BDE8F09FB847C4F88800C2
:10274000F7E700000CD900082DE9FF4FAFB00020DB
:102750003299804600299CBF33B0BDE8F08F0DF15F
:102760006C0A4FF0300B04262F980290319808AF76
:1027700000EB0801042300223846009605F011FA08
:1027800002980690309840F27C491CAC01251B90C1
:102790001AF805008DF810008DF811008DF8120060
:1027A0008DF813000423002204A92046009605F0AA
:1027B000F8F909EB0500A4F83CB0C0F30E006087FF
:1027C00026872146069802F075FF90B96D1C032DEF
:1027D000DEDD042300221BA92046009605F0E1F966
:1027E0001020A087A4F83A9026872146069802F088
:1027F00061FF48B99020B88740F2744078873E87DF
:102800003946029802F056FF00281CBF33B0BDE8DD
:10281000F08F309908F10408091D309132998845EC
:10282000A2D333B0BDE8F08F70B50C46054603F077
:1028300053FB204605F02CFB02460021284603F0FE
:1028400015F8C0F30E0060878420A0872146284633
:1028500003F08EF984F84000616C002908BF70BD58
:10286000696B1828C1F8944108BF70BDB1F8782190
:1028700042F48072A1F8782170BD426B1369116136
:10288000002B0CBF0129704792F8A211002908BF44
:102890007047FFF72ABB000030B583B00546002023
:1028A00000900C466B4601AA284603F031FB18B194
:1028B0001F21084805F084FB94F83F0021460028BA
:1028C000284603D0FEF716F903B030BD03F07AFCBA
:1028D00003B030BD54D90008F8B5446B0746002555
:1028E000B4F8780110F0800F08BF10F4847F43D152
:1028F00094F8A20100283FD02069002804BFA06AF4
:10290000002839D001236A464FF44061384602F06E
:1029100059FF002830D1009810F0010F09D0012094
:10292000009000236A464FF44061384602F04AFFA7
:1029300010BB94F8620110F0010F1DD0D4F86401AF
:10294000002658B9384602F045FF20B14FF4E47133
:102950001A4805F035FBD4F8640178B1D4F8840145
:1029600004F5B271062826BF49888842C4F864611C
:1029700002D3A06A68B101252846F8BD94F8A201E7
:102980000028F9D084F8A2610121384603F018FA32
:10299000F2E7D4F870010144891D21EA00002169A1
:1029A0000029E9D081B23846FFF7ACFAA0620028CE
:1029B0001CBF03494164DFD0DDE700000CD90008EB
:1029C0009928000870B50C460546466B03F02AFCB2
:1029D00098B184F84000616C002908BF70BD696B34
:1029E0001828C1F8944108BF70BD00BFB1F8782124
:1029F00042F48072A1F8782170BD204605F048FAB3
:102A00000146B6F87001014421EA000086B2324660
:102A10000021284602F02AFFC0F30E0060872687B7
:102A20000420A0872146284603F0A2F884F840003D
:102A3000616C002908BF70BD696B1828C1F894410A
:102A4000D4D170BD2DE9F0410546446B19480E46BE
:102A500048644FF0FF370621304605F0A3F928BB44
:102A6000304605F015FA0146D4F87001B4F8682034
:102A7000014481438A4228BF012005D2B1FBF2F014
:102A800042438A4238BF401C86F83E000021286835
:102A900007F0BCFA314604F11C0005F0AFF800273E
:102AA000286807F0D1FC2846FFF71FFA3846BDE832
:102AB000F0810000252B00082DE9F0410546446B0C
:102AC00017480E4648644FF0FF370621304605F0A0
:102AD00069F910BB304605F0DBF90146D4F8700106
:102AE000B4F86820014481438A4228BF012005D2FE
:102AF000B1FBF2F042438A4238BF401C86F83E00E8
:102B00000021286807F082FA314604F11C0005F024
:102B100075F80027286807F097FC3846BDE8F08173
:102B2000252B000870B50C46054603F001FB94F810
:102B30003F1029B121462846BDE87040FEF74EB946
:102B4000BDE870403821014805F03ABA54D9000870
:102B50002DE9F047446B002780466761B4F878019F
:102B6000B94610F0800F08BF10F4867F58D1E56990
:102B7000002D55D095F83F10404604F0FBFB0600B1
:102B80004ED0284605F084F90146D4F8700101447E
:102B900021EA0000B4F86810884204D94FF4A67105
:102BA000214805F00DFAF07A30B995F83F1040460B
:102BB00003F01CF9F07A60B32846C4F8189005F0C9
:102BC00067F90146D4F87001014421EA0000D4F805
:102BD0008811401D884222D9404602F0B9FF28469C
:102BE00005F056F90146D4F87001014421EA0000CD
:102BF000D4F88811401D884211D9284605F048F9BB
:102C00000146D4F8700101448143404602F020FFA0
:102C100006E02069002804BF0120606100E0012770
:102C20003846BDE8F08700000CD900082DE9FF4FB9
:102C3000ADB0894600203099074600299CBF31B0CD
:102C4000BDE8F08F0DF1640A4FF0300B04242F988B
:102C500006AEC1192D9D042300223046009404F0D5
:102C6000A0FF1020ADF8540040F27440ADF85200BF
:102C7000ADF850403146284602F01CFD002838D1FE
:102C800002954FF48F68CDF864901AAD5FF001069D
:102C900004231AF806008DF80C008DF80D008DF84D
:102CA0000E008DF80F00002203A92846009404F0BE
:102CB00078FF08EB0600A5F83CB0C0F30E0068876B
:102CC0002C872946029802F0F5FC90B9761C032E59
:102CD000DEDD0423002219A92846009404F061FFD8
:102CE0001020A887A5F83A802C872946029802F080
:102CF000E1FC00281CBF31B0BDE8F08F3F1D3099CA
:102D000009F104098F42A2D331B0BDE8F08F102041
:102D100000F024BBFEE70000034900200A68B2F17E
:102D2000FF3F18BF48687047840000200249496887
:102D3000814218BF0020704784000020F8B50026AB
:102D40000546009608680C46122804D940F2045142
:102D50005FA005F00FF96068401E0F2804D940F20B
:102D600005515BA005F006F9A06890B1012810D0CC
:102D700002280ED003280CD004280AD0052808D039
:102D8000062806D0072804D040F2065150A005F0CE
:102D9000F1F895F83C00012819D0012085F83C0095
:102DA000216807202A68092913D9D3680A3901EB59
:102DB000410188408343D3602078A1680A3800EB42
:102DC000400081402868C2681143C16010E00220C1
:102DD000F8BD136901EB41018840834313612078FA
:102DE000A16800EB4000814028680269114301613D
:102DF00060681F21072813D22A68536B401E00EB1E
:102E0000800081408B435363208881B22079401E2B
:102E100000EB800081402868426B1143416327E04A
:102E20002A680D2812D2136BC01F00EB800081406E
:102E30008B43136321792088C91F80B201EB810184
:102E4000884029680A6B1043086311E0D36A0D3883
:102E500000EB800081408B43D362217920880D39BB
:102E600080B201EB810188402968CA6A1043C862B8
:102E700025482968814208D12168122905D1D0F856
:102E8000041341F48001C0F80413296881421AD167
:102E90002168102901D0112915D1D0F8041341F46B
:102EA0000001C0F80413206810280CD117481849F5
:102EB0000068B0FBF1F000EB8000400000E0401E35
:102EC00000900028FBD185F83C600020F8BD000090
:102ED0002E2E2F447269766572732F53544D333200
:102EE000463478785F48414C5F4472697665722F4A
:102EF0005372632F73746D3332663478785F686110
:102F00006C5F6164632E63000020014014000020A8
:102F100040420F002DE9F04704004FF000057DD03E
:102F20007149206888420AD07049884207D07049A8
:102F3000884204D040F20D116EA005F01BF86068C5
:102F400068B1B0F5803F0AD0B0F5003F07D0B0F5CA
:102F5000403F04D04FF4877166A005F00BF8A068DD
:102F60004FF080774FF000784FF0407950B1B84281
:102F700008D0404506D0484504D040F20F115DA06E
:102F800004F0F8FF206930B1012804D04FF48871B3
:102F900058A004F0EFFFA06930B1012804D040F23E
:102FA000111154A004F0E6FF604EA06A80B3B8424D
:102FB0002ED040452CD048452AD0B0F1806F27D084
:102FC000B0F1A06F24D0B0F1C06F21D0B0F1E06FAC
:102FD0001ED0B0F1006F1BD0B0F1106F18D0B0F15F
:102FE000206F15D0B0F1306F12D0B0F1406F0FD01C
:102FF000B0F1506F0CD0B0F1606F09D0B0F1706FCC
:1030000006D0B04204D04FF489713AA004F0B2FF68
:10301000E06848B1B0F5006F06D000E041E040F252
:10302000131134A004F0A6FFE069401E0F2804D954
:103030004FF48A712FA004F09DFF206B30B101285E
:1030400004D040F215112BA004F094FF6069012810
:1030500007D030B1022804D04FF48B7125A004F0C2
:1030600089FF206A30B1012804D040F2171121A055
:1030700004F080FFA06AB0420FD0E06A68B1B0F1FE
:10308000805F0AD0B0F1005F07D0B0F1405F04D09C
:1030900040F21B1117A004F06DFF206C002618B140
:1030A00008E00120BDE8F087666484F83C602046B3
:1030B00000F03EF8206CC00610D4206C20F488503C
:1030C00040F0020020642046FDF7B8F96664206CE9
:1030D00020F0020040F00100206400E0012584F8A7
:1030E0003C602846DEE7000000200140002101404E
:1030F000002201402E2E2F447269766572732F5381
:10310000544D3332463478785F48414C5F4472699D
:103110007665722F5372632F73746D333266347811
:10312000785F68616C5F6164632E63000100000F6B
:1031300000B500680C4987B0884212D10B480021C5
:10314000026842F480620260006800F480600590CA
:10315000012000900320CDE901016946044800F0F8
:1031600009F907B000BD00000022014044380240C8
:10317000000002402DE9F05FDFF86CA10D46044627
:1031800050451CD05948844219D05948844216D021
:103190005848844213D05848844210D0574884423B
:1031A0000DD0574884420AD05648844207D056482A
:1031B000844204D04FF4A17154A004F0DBFEDFF888
:1031C00088E100204FF001094FF00F0B09FA00F1E0
:1031D00005EA01028A427DD1266847000323BB40ED
:1031E0009E432660C60804EB8606D6F820C0470733
:1031F0004FEAD7680BFA08F72CEA070CC6F820C08C
:10320000A6689E43A66066688E436660E16899433F
:10321000E16020F003037344D3F8086881070F0FBF
:103220000BFA07F10E40544502D14FF0000C39E083
:10323000DFF8B8C0644502D14FF0010C32E0DFF88E
:10324000B0C0644502D14FF0020C2BE0DFF8A4C0FF
:10325000644502D14FF0030C24E0DFF89CC06445C4
:1032600002D14FF0040C1DE0DFF890C0644502D19C
:103270004FF0050C16E0DFF888C0644502D14FF02E
:10328000060C0FE0DFF87CC0644502D14FF0070C5C
:1032900008E0DFF874C0644502D14FF0080C01E08B
:1032A0004FF0090C0CFA07FCB44516D1D3F80868A6
:1032B0008E43C3F8086825490B6893430B60091DCA
:1032C0000B6893430B60091D0B6893430B60091D4A
:1032D0000B6800E001E093430B60401C1028FFF4F2
:1032E00075AFBDE8F09F00000000024000040240FE
:1032F00000080240000C024000100240001402408E
:1033000000180240001C0240002002402E2E2F44D4
:103310007269766572732F53544D33324634787820
:103320005F48414C5F4472697665722F5372632F18
:1033300073746D3332663478785F68616C5F677080
:10334000696F2E630000000000300140003C014026
:10335000102801D1FEF700BE70470000044910B5E7
:103360000A68024202D00860FFF7F2FF10BD0000B9
:10337000143C01402DE9F84F0446A1480D46844213
:103380001BD0A048844218D09F48844215D09F4843
:10339000844212D09E4884420FD09E4884420CD072
:1033A0009D48844209D09D48844206D09C4884426E
:1033B00003D0C5219BA004F0DDFD28880004000C8B
:1033C00003D1C62197A004F0D5FD6868F8B10128A3
:1033D0001DD011281BD0022819D0122817D0A049BF
:1033E000884214D09F49884211D09F4988420ED00C
:1033F0009E4988420BD09E49884208D09D49884208
:1034000005D0032803D0C72186A004F0B3FDA86827
:1034100038B1012805D0022803D0C82181A004F0CA
:10342000A9FD00264FF0010B0BFA06F02F6882462B
:10343000074057457ED16868022801D012282ED156
:103440002869F8B109281DD001281BD0022819D0FD
:10345000032817D0042815D0052813D0062811D02A
:1034600007280FD008280DD00A280BD00B2809D028
:103470000C2807D00D2805D00F2803D0D92169A02A
:1034800004F078FDF00804EB8002106A7107CB0E9F
:103490000F219940884329699940014311622068AE
:1034A0007200032101FA02F92979904601F0030123
:1034B00020EA090001FA08F1014321606868012847
:1034C00005D0022803D0112801D012281CD1E868A9
:1034D00048B1012807D0022805D0032803D0EC21E9
:1034E00050A004F047FDA068E96820EA090001FA4D
:1034F00008F10143A1606068297920EA0A00C1F35C
:103500000011B14001436160E068A96820EA090048
:1035100001FA08F10143E1606868C0006AD55648C5
:10352000016841F480410160006826F0030100F465
:10353000804000E05EE0009050480A18D2F8080889
:10354000B1070B0F0F21994088432D498C4201D1BF
:10355000002128E02B498C4201D1012123E02A4996
:103560008C4201D102211EE028498C4201D1032165
:1035700019E027498C4201D1042114E025498C42ED
:1035800001D105210FE024498C4201D106210AE036
:1035900022498C4201D1072105E021498C4201D109
:1035A000082100E0092199400143C2F80818344974
:1035B00008686A68B843D20300D5384308603049C8
:1035C000091D08686A68B843920300D5384308604B
:1035D0002B49083108686A68B843D20200D53843DD
:1035E000086027490C3108686A68B843920200D520
:1035F00038430860761C102EFFF416AFBDE8F88F34
:10360000000002400004024000080240000C02409A
:10361000001002400014024000180240001C02404A
:10362000002002402E2E2F447269766572732F534C
:10363000544D3332463478785F48414C5F44726968
:103640007665722F5372632F73746D3332663478DC
:10365000785F68616C5F6770696F2E6300000000BF
:1036600000001110000021100000311000001210A5
:1036700000002210000032104438024000300140A7
:10368000003C014070B515460C00064604D140F2DE
:10369000B11108A004F06EFC45B1012D04D04FF427
:1036A000D97104A004F066FCB46170BD2004B0615F
:1036B00070BD00002E2E2F447269766572732F53F1
:1036C000544D3332463478785F48414C5F447269D8
:1036D0007665722F5372632F73746D33326634784C
:1036E000785F68616C5F6770696F2E63000000002F
:1036F0000148006870470000180000200248016877
:10370000491C016070470000180000200B4810B5EC
:10371000016841F400710160016841F48061016059
:10372000016841F480710160032000F0EFF800208F
:1037300000F006F800F03EF8002010BD003C02400A
:1037400010B5014688B00022192000F08FF819202A
:1037500000F05CF813480024016841F001010160A9
:10376000006805A900F001000690684600F050FAD4
:1037700000F08CFA0C490D4AB0FBF1F10C48491EDF
:10378000026040F2E732C0E90324C0E9011401F00D
:1037900023F810B1012008B010BD054801F0D4F89D
:1037A000F9E700004438024040420F0000000140A9
:1037B000B801002010B5032000F0A8F8002211463F
:1037C0006FF00B0000F052F8002211466FF00A0073
:1037D00000F04CF8002211466FF0090000F046F8A6
:1037E00000221146501F00F041F800221146101F20
:1037F00000F03CF800220F21901E00F037F8002264
:103800000F21BDE81040501E00F030B810B5040084
:1038100003D5D02106A004F0ADFB04F01F01012068
:1038200088406109890001F1E021C1F8000110BD63
:103830002E2E2F447269766572732F53544D333296
:10384000463478785F48414C5F4472697665722FE0
:103850005372632F73746D3332663478785F6861A6
:103860006C5F636F727465782E63000070B51546E7
:103870000C460646102A03D3BC2114A004F07AFBA0
:10388000102C03D3BD2111A004F074FB1E48006866
:10389000C0F30223C3F107022046042A00D9042200
:1038A000191D072901D2002300E0DB1E012404FAC0
:1038B00002F1491E014099409C40641E2C40214366
:1038C0003046BDE8704002F04ABE00002E2E2F4464
:1038D0007269766572732F53544D3332463478785B
:1038E0005F48414C5F4472697665722F5372632F53
:1038F00073746D3332663478785F68616C5F636FC0
:10390000727465782E6300000CED00E010B504467B
:1039100007280BD0062C09D0052C07D0042C05D085
:10392000032C03D0A42108A004F024FB154904F0C3
:10393000070208684FF6FF03184040EA0220124AC7
:103940001043086010BD00002E2E2F44726976656A
:1039500072732F53544D3332463478785F48414C5C
:103960005F4472697665722F5372632F73746D337F
:1039700032663478785F68616C5F636F7274657803
:103980002E6300000CED00E00000FA052DE9F04781
:10399000044600680D46401E0E2804D940F2372127
:1039A00089A004F0E7FA95B1012D10D0022D0ED0B8
:1039B000032D0CD0042D0AD0052D08D0062D06D0DD
:1039C000072D04D04FF40E717FA004F0D3FADFF876
:1039D0003092D9F8000000F00F01E8B28046A94209
:1039E00008D2014689F80010D9F8000000F00F0055
:1039F000A84272D12078834E80071CD5A068A0B160
:103A0000802812D0902810D0A0280ED0B0280CD03A
:103A1000C0280AD0D02808D0E02806D0F02804D04A
:103A200040F24F2168A004F0A5FA3068A16820F0A8
:103A3000F000084330602078C00767D0714F60689D
:103A4000083F88B1012827D0022828D0032826D093
:103A500040F256215CA004F08DFA606801281BD06A
:103A600002281CD003281AD03868800700285BDAA7
:103A70003068616820F0030008433060FFF738FECB
:103A80006168074641F28830012911D002291DD012
:103A90000329824627D035E038688003E6E7386896
:103AA0008001E3E7FFF724FEC11B514501D926E061
:103AB00082463068C0F381000128F3D126E000BFC0
:103AC000FFF716FEC11B514501D918E08246306848
:103AD000C0F381000228F3D118E025E0FFF708FECB
:103AE000C11B51450BD83068C0F381000328F5D1C4
:103AF0000CE000BFFFF7FCFDC11B514502D90320BC
:103B0000BDE8F087306810F00C0FF3D1D9F8001041
:103B1000484601F00F01A94208D980F800800068EA
:103B200000F00F00A84201D00120E9E720784FF40F
:103B3000805540074FF4A0574FF4C0584FF4E05958
:103B400014D5E06860B1A8420AD0B84208D0404518
:103B500006D0484504D04FF42D711BA004F00AFA9A
:103B60003068E16820F4E0500843306020780007B6
:103B700015D5206960B1A8420AD0B84208D04045A6
:103B800006D0484504D040F2BB210FA004F0F2F962
:103B90003068216920F4604040EAC100306000F0E4
:103BA0008DF83168F02292FAA2F201F0F001B2FA37
:103BB00082F2D140144A515CC84014490860002088
:103BC000FFF7BEFD00209BE72E2E2F44726976651D
:103BD00072732F53544D3332463478785F48414CDA
:103BE0005F4472697665722F5372632F73746D33FD
:103BF00032663478785F68616C5F7263632E63004D
:103C0000003C02400838024040D500081400002063
:103C10000F2202600C4A136803F003034360136829
:103C200003F0F0038360136803F4E053C360126889
:103C30004FF4E05303EAD20202610448006800F046
:103C40000F0008607047000008380240003C024046
:103C50000148006870470000140000200848094926
:103C6000006809684FF4E05292FAA2F201F4E051C0
:103C7000B2FA82F2D140044A515CC8407047000059
:103C8000140000200838024040D5000808480949BF
:103C9000006809684FF4604292FAA2F201F46041B0
:103CA000B2FA82F2D140044A515CC8407047000029
:103CB000140000200838024040D5000830B51948EB
:103CC000006810F00C01184812D0441004290ED0DE
:103CD00008290DD11349091F0A6802F03F030A6839
:103CE000550247F6C07204D5B4FBF3F003E020465A
:103CF00030BDB0FBF3F00B680968134092FAA2F2F2
:103D0000B2FA82F2D34058434FF4403292FAA2F210
:103D100001F44031B2FA82F2D140491C4900B0FBB3
:103D2000F1F030BD083802400024F4002DE9F84FCE
:103D3000044600680F2803D9F521EEA004F01AF913
:103D4000DFF8E8832078A8F1040BC007ABF1040585
:103D500040D0606838B1012805D0052803D0FA2189
:103D6000E4A004F007F9D8F800104046C1F381013F
:103D7000012908D00068C0F3810002280AD1DBF8CD
:103D80000000400206D52868800323D5606800281B
:103D900073D01FE0E5492079891F0870606860B121
:103DA000FFF7A6FC064604E0FFF7A2FC801B642890
:103DB0007ED828688003F7D50CE0FFF799FC06460B
:103DC00005E000BFFFF794FC801B6428F0D828684A
:103DD0008003F7D42078D64E80074FF0010A4FF0C9
:103DE000000754D5E06830B1012804D04FF4967133
:103DF000C0A004F0BFF820691F2804D940F22D119B
:103E0000BCA004F0B7F8D8F80010404611F00C0F31
:103E100008D00068C0F3810002280AD1DBF8000056
:103E2000400206D42868800715D5E068012824D10F
:103E300011E0E068E0B1C6F800A0FFF759FC814648
:103E400006E000BFFFF754FCA0EB09000228AFD842
:103E500028688007F6D52868F82292FAA2F221692C
:103E6000B2FA82F220F0F8009140084328600EE098
:103E70003760FFF73DFC814606E017E1FFF738FCAD
:103E8000A0EB0900022893D828688007F6D4207890
:103E9000000732D5DFF89C926069E8B1012806D0AE
:103EA00040F26D1193A004F065F86069A0B100E0E4
:103EB00015E1C9F800A0FFF71BFC814606E000BF32
:103EC000FFF716FCA0EB09000228C0D897486C3019
:103ED00000688007F4D510E0C9F80070FFF708FC0F
:103EE000814605E0FFF704FCA0EB09000228AED8EC
:103EF0008E486C3000688007F4D42078400753D592
:103F0000A06840B1012806D0052804D040F29711DE
:103F100078A004F02FF885483830016841F08051CE
:103F20000160006800F0805000908348016841F40F
:103F300080710160FFF7DCFB814605E0FFF7D8FBED
:103F4000A0EB090002289ED87B480068C005F5D583
:103F5000DFF8D891207A09F1680989F80000A06893
:103F600088B1FFF7C5FB009008E000BFFFF7C0FB7A
:103F70000099411A41F28830814284D8D9F8000072
:103F80008007F3D510E0FFF7B3FB009008E000BF17
:103F9000FFF7AEFB0099411A41F28830814294D874
:103FA000D9F800008007F3D4A06900287DD001284B
:103FB00009D0022807D04FF4E6714EA003F0DAFFD3
:103FC000A0690028F2D0D8F80000C0F381000228D0
:103FD0006CD0A069022804D03766FFF789FB04463D
:103FE00080E0E06938B1B0F5800F04D040F2D5111F
:103FF00040A003F0BFFF206A3F2804D94FF4EB71C3
:104000003CA003F0B7FF606A3238B0F5BF7F04D937
:1040100040F2D71137A003F0ADFFA06A02280AD002
:10402000042808D0062806D0082804D04FF4EC71E4
:1040300030A003F09FFFE06A001F0B2804D940F274
:10404000D9112CA003F096FF3766FFF751FB074606
:1040500005E000BFFFF74CFBC01B02283FD82868D3
:104060008001F7D4D4E90701084347F6C07292FAF9
:10407000A2F2616AB2FA82F29140A26A4FF0FF3373
:1040800003EB52024FF4403393FAA3F3B3FA83F3F2
:104090009A40114308434FF0706292FAA2F2E16A2B
:1040A000B2FA82F29140084301E01EE01FE0CBF833
:1040B0000000C6F860A0FFF71BFB044605E000BF48
:1040C000FFF716FB001B022809D828688001F7D5E6
:1040D0000BE000BFFFF70CFB001B022802D90320F6
:1040E000BDE8F88F28688001F4D40020F8E70120AB
:1040F000F6E700002E2E2F447269766572732F53F7
:10410000544D3332463478785F48414C5F4472698D
:104110007665722F5372632F73746D333266347801
:10412000785F68616C5F7263632E630008380240D9
:1041300000004742800E47420070004010B5040066
:1041400020D01149206888420AD01049884207D0FF
:104150000F49884204D040F25D110EA003F00AFF1F
:10416000022084F851002068016821F040010160BC
:10417000204600F005F90020606584F8510084F8BD
:10418000500010BD012010BD00300140003800403B
:10419000003C00402E2E2F447269766572732F53B7
:1041A000544D3332463478785F48414C5F447269ED
:1041B0007665722F5372632F73746D333266347861
:1041C000785F68616C5F7370692E630070B504007E
:1041D00066D05A49206888420AD05949884207D097
:1041E0005849884204D040F20B1157A003F0C2FE98
:1041F000606838B1B0F5827F04D04FF4867152A068
:1042000003F0B8FEA06850B1B0F5806F07D0B0F5EC
:10421000004F04D040F20D114BA003F0ABFEE0685C
:10422000B0F5006F05D020B14FF4877146A003F0C0
:10423000A1FEA069B0F5007F08D038B1B0F5802F9D
:1042400004D040F20F1140A003F094FEE06990B159
:10425000082810D010280ED018280CD020280AD0FA
:10426000282808D0302806D0382804D04FF4887188
:1042700035A003F07FFE206A30B1802804D040F2E0
:10428000111131A003F076FE606A58B110281BD0DE
:104290004FF489712CA003F06DFE606A10B113E039
:1042A000012070BD206930B1022804D040F2151100
:1042B00025A003F05FFE606930B1012804D04FF4FF
:1042C0008B7121A003F056FE0025A56294F85100E1
:1042D00020B984F85050204600F066F8022084F897
:1042E00051002068016821F040010160D4E901011A
:1042F0000843D4E903121143084361690843218B41
:1043000001F400710843E1690843216A0843A16A86
:10431000084321680860A069042101EA1040616A2D
:104320000843216848602068C16921F40061C161C7
:104330006565012084F85100002070BD0030014007
:1043400000380040003C00402E2E2F4472697665F4
:1043500072732F53544D3332463478785F48414C52
:104360005F4472697665722F5372632F73746D3375
:1043700032663478785F68616C5F7370692E6300B1
:1043800000680649884208D10548016821F4805137
:104390000160E0210348FEF7EDBE704700300140A8
:1043A000443802400000024000B500680D4987B063
:1043B000884215D10C48016841F4805101600068C1
:1043C000012100F480500590E02000900220CDE90A
:1043D000010103900520049069460448FEF7CAFFD6
:1043E00007B000BD003001404438024000000240E8
:1043F0002DE9F84F04460A9F80689A4693460D4679
:104400004FF00108002620B140F2363172A003F0CF
:10441000B1FD94F8500001280ED0012084F850001E
:10442000FFF766F9814694F85100616801280CD0C5
:10443000B1F5827F07D102E00220BDE8F88FA168C4
:1044400009B9042801D00226BEE055B1BBF1000F26
:1044500007D0BAF1000F04D094F85100012802D01F
:1044600004E00126B0E0052084F8510000206065DA
:10447000C4F838B0A4F83EA0A4F83CA02563A4F882
:1044800036A0A4F834A0206460642068016849065E
:1044900003D4016841F040010160E068B0F5006FAD
:1044A000606804D0F0B3E08E01283CD06BE010B11E
:1044B000E08E01282FD1216835F8020BC860E08E0C
:1044C000401EE08627E000BFB8F1000F0DD0E08E5F
:1044D00058B120688168890707D535F8021BC1608B
:1044E000E08E401EE0864FF00008E08F58B1206853
:1044F0008168C90707D0C0682BF8020BE08F401E07
:10450000E0874FF00108781C05D0FFF7F1F8A0EB29
:104510000900B84246D2E08E0028D5D1E08F0028AD
:10452000D2D136E0FFE7216815F8010B0873E08E61
:10453000401EE08627E000BFB8F1000F0DD0E08EEE
:1045400058B120688168890707D515F8011B0173E8
:10455000E08E401EE0864FF00008E08F58B12068E2
:104560008168C90707D0C0680BF8010BE08F401EB7
:10457000E0874FF00108781C05D0FFF7B9F8A0EBF1
:104580000900B8420ED2E08E0028D5D1E08F002875
:10459000D2D13B46012202212046CDF8009002F004
:1045A00049F908B103260FE04A463946204602F091
:1045B00031F918B101262020606505E0A06818B91E
:1045C0002068C16880680090012084F851000020B4
:1045D00084F85000304630E72E2E2F4472697665FD
:1045E00072732F53544D3332463478785F48414CC0
:1045F0005F4472697665722F5372632F73746D33E3
:1046000032663478785F68616C5F7370692E63001E
:1046100010B54FF0E024042809D020B140F2B311C6
:1046200005A003F0A7FC206920F0040002E0206947
:1046300040F00400206110BD2E2E2F447269766573
:1046400072732F53544D3332463478785F48414C5F
:104650005F4472697665722F5372632F73746D3382
:1046600032663478785F68616C5F636F7274657806
:104670002E63000010B5401EB0F1807F01D30120F1
:1046800010BD4FF0E02460610F21601701F067FF5B
:104690000020A06107202061002010BD70477047F6
:1046A00070B50D4604460068334988421FD0B0F10A
:1046B000804F1CD03149884219D03149884216D0E8
:1046C0003049884213D03049884210D02F4988425F
:1046D0000DD02F4988420AD02E49884207D02E4952
:1046E000884204D04FF4CB612CA003F043FC28682F
:1046F00090B1102810D020280ED030280CD040289F
:104700000AD0502808D0602806D0702804D040F283
:10471000596122A003F02EFC6868802805D020B1E2
:1047200040F25A611DA003F025FC94F838000128DE
:104730001FD0012084F83800022184F83910216844
:104740004A6822F070024A6021684A682B681A435E
:104750004A6021688A6822F080028A6021688A683B
:104760006B681A438A6084F83900002084F83800A6
:1047700070BD022070BD0000000001400004004038
:1047800000080040000C00400010004000140040F1
:104790000004014000400140001800402E2E2F442C
:1047A0007269766572732F53544D3332463478787C
:1047B0005F48414C5F4472697665722F5372632F74
:1047C00073746D3332663478785F68616C5F7469D6
:1047D0006D5F65782E63000010B504004CD0304842
:1047E000226882422AD0B2F1804F27D02D488242DF
:1047F00024D02D48824221D02C4882421ED02C4801
:1048000082421BD02B48824218D02B48824215D0BE
:104810002A48824212D02A4882420FD02948824236
:104820000CD02948824209D02848824206D0284824
:10483000824203D0D92127A003F09CFBA06858B185
:10484000102809D0202807D0402805D0602803D0A0
:10485000DA2120A003F08EFB206948B1B0F5807FFB
:1048600006D0B0F5007F03D0DB211AA003F082FB55
:1048700094F8390010B107E0012010BD002084F841
:104880003800204600F042F8022084F83900211D4B
:10489000206802F0D5FA012084F83900002010BD0C
:1048A000000001400004004000080040000C0040EF
:1048B000001000400014004000040140004001408E
:1048C000004401400048014000180040001C004026
:1048D000002000402E2E2F447269766572732F538C
:1048E000544D3332463478785F48414C5F447269A6
:1048F0007665722F5372632F73746D33326634781A
:10490000785F68616C5F74696D2E630008B500683C
:104910000B49884212D10B48016841F00201016045
:104920000068002200F00200009005211D20FEF723
:104930009DFFBDE808401D20FEF768BF08BD0000D0
:10494000000400404038024010B5044601681D488C
:1049500081422BD0B1F1804F28D01B48814225D015
:104960001A48814222D01A4881421FD019488142F8
:104970001CD01948814219D01848814216D01848D5
:10498000814213D01748814210D0174881420DD080
:10499000164881420AD01648814207D01548814204
:1049A00004D04FF4B27114A003F0E4FA2068C16897
:1049B00041F00101C1602068016841F0010101601E
:1049C000002010BD0000014000040040000800402D
:1049D000000C0040001000400014004000040140A2
:1049E00000400140004401400048014000180040E0
:1049F000001C0040002000402E2E2F447269766576
:104A000072732F53544D3332463478785F48414C9B
:104A10005F4472697665722F5372632F73746D33BE
:104A200032663478785F68616C5F74696D2E6300FC
:104A30002DE9F05F044690F838000D46012844D077
:104A4000012084F83800022084F839002868B0F585
:104A5000805F16D0B0F5005F13D090B1102810D051
:104A600020280ED030280CD040280AD0502808D05A
:104A7000602806D0702804D040F66D71F4A003F0D1
:104A800079FA2068816821F0770121F47F41816003
:104A90002868FD49FD4AFE4BFE4EFF4FDFF8FC83C0
:104AA000DFF8FCB3DFF8FCE3DFF8FC934FF0804C59
:104AB0004FF4004A50287DD00FDC20287BD007DC43
:104AC000002879D0102878D197E10220BDE8F09F26
:104AD000302873D04028F6D139E160286FD0702893
:104AE0007AD0B0F5805F44D04FF400584045EAD109
:104AF000206888420ED060450CD090420AD098427F
:104B000008D0B04206D0B84204D040F69A71D0A086
:104B100003F030FA6868504509D040B1022806D049
:104B20000A2804D040F69C71C9A003F023FAA868B3
:104B300060B1B0F5805F09D0404507D0B0F5405F67
:104B400004D040F69D71C2A003F014FAE8680F2863
:104B500004D940F69E71BEA003F00CFAD5E90121FC
:104B6000EB68206802F0CCF92068816841F480414C
:104B700073E0206888422AD0604528D0904226D031
:104B8000984224D0B04222D0C84988421FD0C84998
:104B900088421CD0B8421AD0404518D0584516D08B
:104BA000704514D0484512D0C24988420FD0C2493E
:104BB000884206E053E039E106E1C1E087E18BE09D
:104BC0000AE004D040F67971A1A003F0D3F920687F
:104BD000816821F0070140E0206888420ED06045DE
:104BE0000CD090420AD0984208D0B04206D0B842C9
:104BF00004D040F6827196A003F0BCF96868504575
:104C000009D040B1022806D00A2804D040F68471A9
:104C10008FA003F0AFF9A86868B1B0F5805F0AD043
:104C2000B0F5005F07D0B0F5405F04D040F6857165
:104C300087A003F09FF9E8680F2804D940F6867131
:104C400083A003F097F9D5E90121EB68206802F011
:104C500057F92068816841F07701816070E0206831
:104C600088421CD060451AD0904218D0984216D085
:104C7000B04214D0B84212D0404510D058450ED0A2
:104C800070450CD048450AD08A49884207D08A49E5
:104C9000884204D040F6AC716DA003F06BF96868EF
:104CA000504509D040B1022806D00A2804D040F669
:104CB000AF7167A003F05EF9E8680F2804D94FF4DC
:104CC0007B6163A003F056F9EA686968206802F026
:104CD00029F95021206831E02068884212D06045CF
:104CE00010D090420ED098420CD0B0420AD0B842B8
:104CF00008D0404506D0484504D040F6BA7154A0CB
:104D000003F038F96868504509D040B1022806D050
:104D10000A2804D040F6BD714DA003F02BF9E868D5
:104D20000F2804D940F6BE7149A003F023F9EA68C0
:104D30006968206802F007F96021206802F0EAF84B
:104D4000012084F83900002084F83800BEE620688D
:104D500088421CD060451AD0904218D0984216D094
:104D6000B04214D0B84212D0404510D058450ED0B1
:104D700070450CD048450AD04E49884207D04E496C
:104D8000884204D040F6C87131A003F0F3F8686897
:104D9000504509D040B1022806D00A2804D040F678
:104DA000CB712BA003F0E6F8E8680F2804D940F691
:104DB000CC7127A003F0DEF8EA686968206802F089
:104DC000B1F840212068B9E72068884212D06045D8
:104DD00010D090420ED098420CD0B0420AD0B842C7
:104DE00008D0404506D0484504D040F6D67118A0FA
:104DF00003F0C0F800212068A0E72068884212D0A4
:104E0000604510D090420ED098420CD0B0420AD0EB
:104E1000B84208D0404506D0484504D040F6DC7181
:104E20000BA003F0A7F81021206887E720688842CC
:104E30004AD0604548D0904246D0984244D0B042D3
:104E400042D0B84240D040453ED048453CD035E005
:104E50002E2E2F447269766572732F53544D333260
:104E6000463478785F48414C5F4472697665722FAA
:104E70005372632F73746D3332663478785F686170
:104E80006C5F74696D2E63000000014000040040F7
:104E900000080040000C00400004014000400140B8
:104EA000004401400048014000180040001000404C
:104EB00000140040001C00400020004040F6E27159
:104EC000AFF2740003F056F82021206836E720681E
:104ED000884213D0604511D090420FD098420DD037
:104EE000B0420BD0B84209D0404507D0484505D064
:104EF00040F6E871AFF2A80003F03CF830212068DA
:104F00001CE7704770B50446006801694FF0000562
:104F1000C943890715D4C168C943890711D4E91E5B
:104F2000016101202076206880698007204602D038
:104F3000FFF7E7FF04E000F098F8204600F096F84D
:104F4000257620680169C943490717D4C168C94358
:104F5000490713D46FF00401016102202076206814
:104F6000806910F4407F204602D0FFF7CAFF04E0BA
:104F700000F07BF8204600F079F82576206801697A
:104F8000C943090716D4C168C943090712D46FF091
:104F900008010161042020762068C069800720464E
:104FA00002D0FFF7AEFF04E000F05FF8204600F00B
:104FB0005DF8257620680169C943C90617D4C16820
:104FC000C943C90613D46FF010010161082020768F
:104FD0002068C06910F4407F204602D0FFF791FF9F
:104FE00004E000F042F8204600F040F82576206802
:104FF0000169C943C90708D1C168C943C90704D1B8
:10500000891E0161204600F033F820680169C94318
:10501000090609D4C168C943090605D46FF08001A7
:1050200001612046FFF73AFB20680169C943490640
:1050300009D4C168C943490605D46FF04001016134
:10504000204600F02BF820680169C94389060BD47B
:10505000C168C943890607D46FF020010161204669
:10506000BDE87040FFF71BBB70BD70477047000084
:10507000074A0168914203D106490A68521C0A6036
:1050800000680549884201D1FEF738BB704700002F
:1050900000040040100000200000014070470000A4
:1050A00070B5040021D0A0693A4900283A4A3B4B28
:1050B0003B4D20681BD088420BD0904209D09842CB
:1050C00007D0A84205D0FE2136A002F053FFA06908
:1050D00000B3A069B0F5807F1CD0B0F5007F19D077
:1050E000B0F5407F16D0FF2111E0012070BD88424D
:1050F00010D090420ED098420CD03949884209D045
:105100003849884206D0A84204D040F2031125A0B5
:1051100002F030FFA06838B1B0F5805F04D040F2F3
:10512000051120A002F026FFE06938B1B0F5004F6C
:1051300004D04FF483711BA002F01CFF94F83900D7
:10514000002520B984F83850204600F04DF824207E
:1051500084F839002068C16821F40051C1602046FC
:1051600001F004FF2068016921F490410161206889
:10517000416921F02A0141612068C16841F4005170
:10518000C160E563202084F8390084F83A000020EB
:1051900070BD000000100140004400400048004085
:1051A000001401402E2E2F447269766572732F53BE
:1051B000544D3332463478785F48414C5F447269CD
:1051C0007665722F5372632F73746D333266347841
:1051D000785F68616C5F756172742E630000000017
:1051E000004C00400050004000B500680E4987B0F8
:1051F000884217D10D48016841F010010160006834
:10520000694600F0100005904FF4C0600090022045
:10521000019001200290032003900720049004488D
:10522000FEF7A8F807B000BD001001404438024066
:10523000000002402DE9F843044690F839001E466C
:1052400017460D46202850D135B32FB394F83800B7
:1052500001284AD0012084F838004FF00008C4F833
:105260003C80212084F83900FEF742FAA784E784C5
:1052700081464FF48057E08C4B46401EE084A06886
:105280004FF00002B8424FF080012046009611D145
:1052900002F00EF800BB02E00120BDE8F883288888
:1052A000C0F3080120684160206908B16D1C08E066
:1052B000AD1C06E001F0FCFF70B9216815F8010B88
:1052C0004860E08C0028D6D14B4600224021204681
:1052D000009601F0EDFF08B10320DEE7202084F8FE
:1052E000390084F838800020D7E70220D5E7000095
:1052F00070B584B0064606208DF8040000200D46E7
:10530000029009881446012904BF8DF804004FF467
:1053100080702DD02549D1F800C0BCF1000F08D015
:1053200002A8009001AB29463046E04708B304B01C
:1053300070BD20732888A0F5807141F230000529E6
:1053400017D2DFE801F003090E13190001208DF8D0
:10535000040040F206600BE002218DF80410029078
:1053600007E003218DF80410029002E0042104E01C
:105370000290029848B903E005218DF80410F7E780
:105380004FF415710A4802F01BFE9DF9040081B22A
:10539000304601F0EFFF298841809DF80410A1718B
:1053A0000299A160018004B0002070BDA896012080
:1053B000846100082DE9F04194B04FF00408446B7B
:1053C000054602AE4346002201A93046CDF80080D2
:1053D00002F0E7FB94F8B40100281CBF14B0BDE84C
:1053E000F081012784F8B4719020ADF8440040F2B8
:1053F0002440ADF84200ADF840803146284600F028
:1054000059F918B1CD2115A002F0DAFD9DF8070079
:10541000A4F86600686B002190F8662080F8377069
:1054200080F8387080F8351080F83410016380F807
:10543000477080F8487080F8451080F84410921E3C
:10544000016480F8572080F8582080F8551080F8C3
:105450005410016514B0BDE8F08100002E2E5C2EC2
:105460002E5C6273705F61746865726F735F7769D9
:1054700066695C7372635C61746865726F735F7791
:105480006966695C636F6D6D6F6E5F7372635C6894
:1054900074635C6874632E630000000070B5416B38
:1054A0000646012591F86600002481F8375081F8FE
:1054B000385081F8354081F834400C6381F847500A
:1054C00081F8485081F8454081F84440801E0C64C2
:1054D00081F8570081F8580081F85540094881F853
:1054E00054400C65416819B130468847040006D124
:1054F0000121304600F064FC706BC0F8B0512046CA
:1055000070BD0000A896012010B513490446406BF9
:1055100089688AB021B12046884740B10AB010BDE1
:105520000621A0F866104FF4D061A0F868100020A2
:1055300000900190029003900490059006900790CF
:10554000089009900120ADF8000006AA694620469F
:10555000FFF7CEFE0AB010BDA8960120406C406A4D
:10556000406900472DE9F0410546446B406C170047
:105570008846406AC66A03D10021286804F046FDC7
:1055800094F8A301B8F1000F0FD028B9012084F8D6
:10559000A30108F0FF00B047002F18BFBDE8F0815D
:1055A0002868BDE8F04104F04FBF012804BF002087
:1055B00084F8A301F0D1EEE710B5446B406C406A6B
:1055C00000698047C4F89C010120C4F89801C120FB
:1055D00084F8A00194F8A10140F0020084F8A10130
:1055E00010BD002808BF704710B504460120616B4C
:1055F00081F8A401616C606B496A90F8A321C96AC3
:10560000012A04D1002280F8A321104688472046B1
:10561000BDE81040FCF769BC406C406A426A08462D
:10562000104770B50646406C82B00D00406A846930
:1056300009D00846A047716C0120496A496A02B046
:10564000BDE870400847FF210091036B01A90222C9
:105650006846984702B02846A446BDE870406047B7
:1056600070B594B00125064602AC2B46002201A974
:105670002046009502F095FAFF208DF804001020D6
:10568000ADF8440040F20140ADF84200ADF84050A2
:105690002146304600F00EF814B070BD416B91F811
:1056A000A11111F0020F08BF70474FF400425111D1
:1056B000FCF7D8BCF8B5064691F83C000C4610F053
:1056C000200018BF40200090084602F0E1FB00993E
:1056D00040EA01024FF4C06130460092FCF7C2FC80
:1056E00005006AD194F83C0010F0800F16D1002319
:1056F00001224A213046FCF78BF805005DD1304687
:105700002146FCF739F80546182801D035B154E098
:105710004FF499712A4802F053FC4EE04FF40040D8
:10572000009094F83C0010F0800F14BF00204FF45C
:10573000804040F40040618F41EA00024FF4E06194
:1057400030460092FCF78EFC050008BFC82534D116
:105750006A464FF4A0613046FCF767FC002804BF9E
:10576000009810F0010F0DD09DB194F83C0010F09E
:10577000800F1BD000230122C8213046FCF748F8D7
:1057800050B113E06D1E04D001213046FFF744FFF5
:10579000DEE74FF0FF3510E030462146FBF7ECFF27
:1057A000182803D1D621064802F00AFC4FF44072B3
:1057B00091003046FCF756FC05462846F8BD00002F
:1057C0009CD90008012B02D01268FCF74BBCFCF7F7
:1057D0002CBC0000F0B585B0054603AA4FF440711B
:1057E000446BFCF722FC07003AD10398C4F884010B
:1057F000042835D36A464FF4A0512846FCF715FC1F
:1058000007002DD100986A4686B2ADF804604FF4C7
:10581000A8512846FCF709FC070021D1009871BA6D
:1058200080B240BAADF80410ADF808009DF804004D
:105830008DF800009DF805008DF801009DF8080026
:105840008DF802009DF809008DF80300009820B93A
:1058500040F23341044802F0B3FB0098C4F86401FD
:1058600005B03846F0BD00009CD9000810B529B13C
:10587000FC21064802F0A4FB204610BD406BD0F886
:105880006801801A00F50064F6E700009CD9000862
:1058900070B5446B054694F8A00110F0030F04D1D5
:1058A00040F29331684802F08BFBB4F8780120F0A5
:1058B000200040F04001A4F8781194F8A0214FF0A6
:1058C000000012F0080F23D0032184F8801184F81F
:1058D000811100BFA4F87C015C48D4F89C1181427E
:1058E00084BF4FF40070A4F87C01B4F87C0140F050
:1058F0008000A4F87C0194F88111032908BF40F0CE
:10590000040017D0012908BF40F0060012D013E0B0
:1059100012F0010F1FBF84F8800184F8810121F08B
:105920004001A4F8781102BF012184F8801184F8A5
:105930008111CFE7A4F87C0101212846FFF76CFE16
:10594000B4F87C214FF480612846FCF78BFB0600FD
:1059500077D104F5C4724FF400712846FCF765FB5B
:1059600006006ED1D4F88801C4F88C01A0F540611E
:105970005B3918BF4FF0FF3663D100224FF49851C6
:105980002846FCF76FFB060007D14FF480624FF406
:1059900040612846FCF766FB0646002E51D16C6B31
:1059A0000E21B4F87A0140F00E00A4F87A0110F04C
:1059B0000E0F04BF284600F0AFFDB4F87A214FF473
:1059C00050612846FCF74EFB6C6B1021B4F87A014D
:1059D00040F01000A4F87A0110F0100F04BF284620
:1059E00000F09AFDB4F87A214FF450612846FCF794
:1059F00039FB6C6B01214FF0000294F8A00110F00C
:105A0000800F1BD04FF450612846FCF72BFB18B1D8
:105A100076210D4802F0D4FA002201212846FFF732
:105A2000A1FDB4F87A214FF450612846FCF71AFB27
:105A300018B17E21044802F0C3FA02E02846FFF7BD
:105A400091FD304670BD00009CD9000800366E0103
:105A500070B5456B044684B0D5F88C01461AB04247
:105A600003D9002E08BF012604E040F21221374876
:105A700002F0A6FA32464FF498512046FCF7F2FAAB
:105A800000281CBF04B070BD02AA4FF4A0612046DC
:105A9000FCF7CBFA00281CBF04B070BD029800F0E0
:105AA0000600042812D101212046FFF7B5FD02AA05
:105AB0004FF4A0612046FCF7B8FA00281CBF04B0E0
:105AC00070BD029800F0060004281ED0B5F87801D9
:105AD0004FF4806140F00400A5F87801656BB5F8DB
